:020000040800F2
:10000000000002209DB50008992800089B280008E0
:100010009D2800089F280008A12800080000000073
:10002000000000000000000000000000D1B2000845
:10003000A32800080000000071B300087FAE00088C
:10004000EDB50008EDB50008EDB50008EDB5000808
:10005000EDB50008EDB50008EDB50008EDB50008F8
:10006000EDB50008EDB50008EDB50008A5280008BD
:10007000B5280008EDB50008EDB50008EDB500089D
:10008000EDB50008EDB50008EDB50008EDB50008C8
:10009000EDB50008EDB50008EDB50008EDB50008B8
:1000A000EDB50008C5280008EDB50008EDB500085D
:1000B000EDB50008EDB50008EDB50008EDB5000898
:1000C000EDB50008EDB50008EDB50008EDB5000888
:1000D000EDB50008D5280008EDB50008EDB500081D
:1000E000EDB50008EDB5000800000000EDB5000812
:1000F000EDB50008EDB50008EDB50008EDB5000858
:10010000EDB50008EDB50008EDB50008EDB5000847
:10011000EDB50008EDB50008EDB50008EDB5000837
:10012000EDB50008EDB50008EDB50008EDB5000827
:10013000EDB50008EDB50008EDB50008EDB5000817
:1001400000000000000000000000000000000000AF
:10015000EDB50008EDB50008EDB50008EDB50008F7
:10016000EDB50008EDB50008EDB50008EDB50008E7
:10017000EDB50008EDB50008EDB500080000000081
:10018000EDB50008EDB50008EDB50008EDB50008C7
:10019000EDB50008EDB50008EDB50008EDB50008B7
:1001A000EDB50008EDB50008EDB50008EDB50008A7
:1001B000EDB50008EDB50008EDB50008EDB5000897
:1001C000EDB50008EDB50008EDB50008EDB5000887
:1001D000EDB50008EDB50008EDB50008EDB5000877
:1001E000EDB50008EDB50008EDB50008EDB5000867
:1001F000EDB50008EDB50008EDB50008EDB5000857
:10020000EDB50008EDB50008EDB50008EDB5000846
:10021000EDB50008EDB50008EDB50008EDB5000836
:10022000EDB50008EDB50008EDB5000800000000D0
:10023000EDB50008EDB5000800000000EDB50008C0
:10024000EDB50008EDB50008EDB50008EDB5000806
:10025000EDB50008EDB50008EDB50008EDB50008F6
:10026000EDB50008EDB50008EDB50008EDB50008E6
:10027000EDB50008EDB50008EDB500080000000080
:10028000EDB50008EDB50008EDB500080000000070
:0802900000000000EDB50008BC
:1002A00010B5054C237833B9044B13B10448AFF3B0
:1002B00000800123237010BDEC010020000000002D
:1002C000CCF2000808B5034B1BB103490348AFF358
:1002D000008008BD00000000F0010020CCF2000802
:1002E000034613F8012B002AFBD1181A0138704776
:1002F00001F0FF01102A2BDB10F0070F08D010F8D7
:10030000013B013A8B422DD010F0070F42B3F6D1DA
:10031000F0B441EA012141EA014122F007047FF0F3
:1003200000070023F0E80256083C85EA010586EA4A
:10033000010685FA47F5A3FA87F586FA47F6A5FA86
:1003400087F68EB9EED1F0BC01F0FF0102F0070292
:1003500032B110F8013B013A83EA010313B1F8D13D
:100360000020704701387047002D06BF354603381E
:10037000073815F0010F07D1013015F4807F02BF57
:10038000013015F4C03F0130F0BC0138704700BFA8
:1003900081F0004102E000BF83F0004330B54FEA36
:1003A00041044FEA430594EA050F08BF90EA020FA3
:1003B0001FBF54EA000C55EA020C7FEA645C7FEA36
:1003C000655C00F0E2804FEA5454D4EB5555B8BF59
:1003D0006D420CDD2C4480EA020281EA030382EACA
:1003E000000083EA010180EA020281EA0303362D5C
:1003F00088BF30BD11F0004F4FEA01314FF4801C2F
:100400004CEA113102D0404261EB410113F0004F40
:100410004FEA03334CEA133302D0524263EB4303F7
:1004200094EA050F00F0A780A4F10104D5F1200E95
:100430000DDB02FA0EFC22FA05F2801841F10001F0
:1004400003FA0EF2801843FA05F359410EE0A5F1C4
:1004500020050EF1200E012A03FA0EFC28BF4CF0F5
:10046000020C43FA05F3C01851EBE37101F00045AB
:1004700007D54FF0000EDCF1000C7EEB00006EEBB8
:100480000101B1F5801F1BD3B1F5001F0CD3490842
:100490005FEA30004FEA3C0C04F101044FEA445299
:1004A00012F5800F80F09A80BCF1004F08BF5FEA20
:1004B000500C50F1000041EB045141EA050130BD00
:1004C0005FEA4C0C404141EB0101013C28BFB1F512
:1004D000801FE9D291F0000F04BF01460020B1FA5D
:1004E00081F308BF2033A3F10B03B3F120020CDA30
:1004F0000C3208DD02F1140CC2F10C0201FA0CF00E
:1005000021FA02F10CE002F11402D8BFC2F1200C72
:1005100001FA02F120FA0CFCDCBF41EA0C01904028
:10052000E41AA2BF01EB0451294330BD6FEA040471
:100530001F3C1CDA0C340EDC04F11404C4F120025C
:1005400020FA04F001FA02F340EA030021FA04F36E
:1005500045EA030130BDC4F10C04C4F1200220FAC5
:1005600002F001FA04F340EA0300294630BD21FA03
:1005700004F0294630BD94F0000F83F4801306BFC9
:1005800081F480110134013D4EE77FEA645C18BFBD
:100590007FEA655C29D094EA050F08BF90EA020F54
:1005A00005D054EA000C04BF1946104630BD91EA4C
:1005B000030F1EBF0021002030BD5FEA545C05D14F
:1005C0004000494128BF41F0004130BD14F580048E
:1005D0003CBF01F5801130BD01F0004545F0FE4102
:1005E00041F470014FF0000030BD7FEA645C1ABF37
:1005F000194610467FEA655C1CBF0B46024650EA6E
:10060000013406BF52EA033591EA030F41F4002199
:1006100030BD00BF90F0000F04BF0021704730B51F
:100620004FF4806404F132044FF000054FF00001F4
:1006300050E700BF90F0000F04BF0021704730B5B5
:100640004FF4806404F1320410F0004548BF40428A
:100650004FF000013EE700BF42004FEAE2014FEADF
:1006600031014FEA02701FBF12F07F4393F07F4FBA
:1006700081F06051704732F07F4208BF704793F0BD
:100680007F4F04BF41F40021704730B54FF46074D0
:1006900001F0004521F000411CE700BF50EA0102D3
:1006A00008BF704730B54FF000050AE050EA01027C
:1006B00008BF704730B511F0004502D5404261EBEC
:1006C00041014FF4806404F132045FEA915C3FF42D
:1006D000D8AE4FF003025FEADC0C18BF03325FEACA
:1006E000DC0C18BF033202EBDC02C2F1200300FA7B
:1006F00003FC20FA02F001FA03FE40EA0E0021FAA0
:1007000002F11444BDE600BF53B94AB9002908BF3D
:1007100000281CBF4FF0FF314FF0FF3000F074B9DC
:10072000ADF1080C6DE904CE00F006F8DDF804E048
:10073000DDE9022304B070472DE9F047089D044627
:100740008E46002B4DD18A42944669D9B2FA82F284
:1007500052B101FA02F3C2F1200120FA01F10CFAC0
:1007600002FC41EA030E94404FEA1C48210CBEFBF8
:10077000F8F61FFA8CF708FB16E341EA034306FB81
:1007800007F199420AD91CEB030306F1FF3080F010
:100790001F81994240F21C81023E63445B1AA4B25D
:1007A000B3FBF8F008FB103344EA034400FB07F7FF
:1007B000A7420AD91CEB040400F1FF3380F00A8140
:1007C000A74240F207816444023840EA0640E41B35
:1007D00000261DB1D4400023C5E900433146BDE8E1
:1007E000F0878B4209D9002D00F0EF800026C5E983
:1007F000000130463146BDE8F087B3FA83F6002E9B
:100800004AD18B4202D3824200F2F980841A61EB12
:10081000030301209E46002DE0D0C5E9004EDDE730
:1008200002B9FFDEB2FA82F2002A40F09280A1EB18
:100830000C014FEA1C471FFA8CFE0126200CB1FB6D
:10084000F7F307FB131140EA01410EFB03F0884266
:1008500008D91CEB010103F1FF3802D2884200F2F3
:10086000CB804346091AA4B2B1FBF7F007FB101185
:1008700044EA01440EFB00FEA64508D91CEB040423
:1008800000F1FF3102D2A64500F2BB800846A4EB7E
:100890000E0440EA03409CE7C6F12007B34022FA69
:1008A00007FC4CEA030C20FA07F401FA06F31C4398
:1008B000F9404FEA1C4900FA06F3B1FBF9F8200CA5
:1008C0001FFA8CFE09FB181140EA014108FB0EF0EB
:1008D000884202FA06F20BD91CEB010108F1FF3A3B
:1008E00080F08880884240F28580A8F10208614447
:1008F000091AA4B2B1FBF9F009FB101144EA014155
:1009000000FB0EFE8E4508D91CEB010100F1FF34FF
:100910006CD28E456AD90238614440EA0840A0FB97
:100920000294A1EB0E01A142C846A64656D353D06D
:100930005DB1B3EB080261EB0E0101FA07F722FA91
:1009400006F3F1401F43C5E9007100263146BDE8BA
:10095000F087C2F12003D8400CFA02FC21FA03F31D
:10096000914001434FEA1C471FFA8CFEB3FBF7F09E
:1009700007FB10360B0C43EA064300FB0EF69E42C3
:1009800004FA02F408D91CEB030300F1FF382FD25C
:100990009E422DD9023863449B1B89B2B3FBF7F604
:1009A00007FB163341EA034106FB0EF38B4208D9DD
:1009B0001CEB010106F1FF3816D28B4214D9023E1E
:1009C0006144C91A46EA004638E72E46284605E73C
:1009D0000646E3E61846F8E64B45A9D2B9EB02080D
:1009E00064EB0C0E0138A3E74646EAE7204694E79D
:1009F0004046D1E7D0467BE7023B614432E73046D0
:100A000009E76444023842E7704700BF10B584B07C
:100A10000024009401940294039402F01BF8012333
:100A20008DF800308DF8014001941F228DF80820C8
:100A300087228DF809208DF80A408DF80B408DF83B
:100A40000C308DF80D308DF80E408DF80F40684653
:100A500002F01EF8042002F00BF804B010BD0000F4
:100A600008B50268034B9A4200D008BD06F016FA9A
:100A7000FBE700BF0000014072B6FEE700B59FB083
:100A80004C2200210BA80AF0EBFD2022002103A834
:100A90000AF0E6FD022006F0A9F900230093394B85
:100AA000DA6A22F00102DA62DB6A03F001030093E2
:100AB000354B9A6942F440429A619B6903F4404382
:100AC0000093009B304B9B6913F4005FFAD02F4BCF
:100AD000D3F8F42042F00202C3F8F420D3F8F43043
:100AE00003F002030193019B00230293264B9A69B2
:100AF00042F440429A619B6903F440430293214BC4
:100B0000DA6A42F00102DA62DB6A03F0010302935F
:100B1000029B1D4B9B6913F4005FFAD001230B93DA
:100B20004FF480330C9302231493159305221692ED
:100B3000C0221792189319931A9308231B9300232A
:100B40001C931D930BA802F031FEB0B93F23039311
:100B5000032304930023059308230693402307935C
:100B600008934FF4806209920A93042103A803F0CA
:100B700071FA20B91FB05DF804FBFFF77DFFFFF7A6
:100B80007BFF00BF00040058004802580044025890
:100B900030B58BB0FFF73AFF06F052F9FFF76EFF62
:100BA00001F0A6F807F094F801F0A4FB01F0FCFBBB
:100BB00001F078FC01F0D0FC01F00AFD01F044FDE9
:100BC00001F0BAFD01F010FE07F006F807F0A4F8F6
:100BD00001F0DEFA01F036FB00F07EFA00F0FEF8DC
:100BE000012000F08DF9012000F090F9012000F0C3
:100BF00093F9092000F09CF900230893ADF8243004
:100C00000693ADF81C300493ADF814300023039321
:100C100003AB04AA06A908A800F0C0F9BDF91A3070
:100C2000BDF91C201D4D1E4C01920093BDF91830DA
:100C30002A46802120460BF0E5FABDF91A30BDF9AD
:100C40001C2001920093BDF918302A4680212046CD
:100C50000BF0D8FA0AF020F908F0E0FA0AF02EF9C1
:100C6000BDF91A30BDF91C200C4D0D4C01920093BA
:100C7000BDF918302A46802120460BF0C3FABDF991
:100C80001A30BDF91C2001920093BDF918302A4694
:100C9000802120460BF0B6FAE2E700BFE8F2000838
:100CA0000802002008B564230122D021034806F081
:100CB000D7FD08B9012008BD0020FCE7C4060020CC
:100CC00000B585B04FF0FF330293019200900123ED
:100CD0000A46D021024806F0EDFC05B05DF804FBA1
:100CE000C4060020F0B585B00446154661F07F01CA
:100CF0008DF80F10094E4FF0FF37009701230DF1CB
:100D00000F02D021304606F045FB00972B462246C5
:100D1000D021304606F010FC05B0F0BDC40600201E
:100D200000B583B08DF80710012201460DF10700D0
:100D3000FFF7C6FF0A2006F0C3F803B05DF804FB16
:100D400008B513460A4601461846FFF7CBFF08BD13
:100D500010B5044C224601217520FFF7F1FF2078E1
:100D600010BD00BF8802002038B505460C460C2196
:100D70002520FFF7D5FF29462620FFF7D1FF214682
:100D80006320FFF7CDFF81212720FFF7C9FF38BD82
:100D900070B506460C4615468C212520FFF7C0FF8E
:100DA00031462620FFF7BCFF44F080012720FFF7E3
:100DB000B7FF012006F084F82A4621464920FFF7B4
:100DC000BFFF70BD10B5044C224601210020FFF783
:100DD000DFFF207810BD00BF8802002008B50AE0C0
:100DE0004FF47A7340224249424807F055FF4FF4CE
:100DF000967006F065F8FFF755FF0028F0D0012146
:100E00006B20FFF78DFF20216A20FFF789FF0D215E
:100E10002420FFF785FF00210A20FFF7A5FF80218E
:100E20006B20FFF77DFF0A2006F04AF801210B2016
:100E3000FFF79AFF01216B20FFF772FFFFF788FF92
:100E4000712818BF732801D0012008BD00216C2033
:100E5000FFF766FF18211C20FFF762FF00211B200F
:100E6000FFF75EFF01211D20FFF75AFF01211A2025
:100E7000FFF756FF00211920FFF752FF20216A20BB
:100E8000FFF74EFF0D212420FFF74AFFFFF79AFFDF
:100E9000482801D00120D8E700210A20FFF764FF8D
:100EA000642006F00DF80F210A20FFF75DFF642093
:100EB00006F006F8104A03211020FFF769FF002111
:100EC0000A20FFF751FF642005F0FAFF16210A20DF
:100ED000FFF74AFF642005F0F3FF01216B20FFF7C5
:100EE0001FFF064A07210320FFF752FF0020ACE74F
:100EF00004F3000808080020A00200208802002057
:100F000008B501461C20FFF70BFF08BD08B50146D8
:100F10001B20FFF705FF08BD10B5044601461D2044
:100F2000FFF7FEFE21461A20FFF7FAFE10BD000073
:100F300010B5044613211920FFF7F2FE092C17D92A
:100F400000210A20FFF710FF642005F0B9FF1221ED
:100F50000A20FFF709FF642005F0B2FF0E4A0721BF
:100F60000320FFF715FF21461920FFF7D9FE10BD1A
:100F700000210A20FFF7F8FE642005F0A1FF1621EA
:100F80000A20FFF7F1FE642005F09AFF024A0721CC
:100F90000320FFF7FDFEE6E7880200202DE9F0417F
:100FA00080460D4617461E46474C224615213B20DB
:100FB000FFF7C6FE2278637843EA0223A8F80030E0
:100FC000A278E37843EA0223A8F802302279637911
:100FD00043EA0223A8F80430227A637A43EA022320
:100FE0003B80A27AE37A43EA02237B80227B637B05
:100FF00043EA0223BB80E37B1B021BB2A27B1343A9
:1010000006EE903A637C1B021BB2227C134307EE70
:10101000103AE27C120212B2A37C134307EE903A1C
:10102000F8EEE66A294A1378803B06EE103AB8EEED
:10103000C66A9FED275A26EE056AF7EE005A36EE8D
:10104000256A66EE866AFDEEE66A16EE903A2B8019
:10105000B8EEC77A5378803B06EE903AF8EEE66A2F
:1010600066EE856A76EEA56A27EE267ABDEEC77A29
:1010700017EE103A6B80F8EEE77A9378803B07EE34
:10108000103AB8EEC77A27EE057A37EE257A67EE82
:10109000877AFDEEE77A17EE903AAB80A279E37992
:1010A00043EA0223153B07EE903AF8EEE77ADFEDCC
:1010B000096A87EEA67AF3EE057A77EE277AC6ED0F
:1010C000007ABDE8F08100BF88020020A002002065
:1010D0000000803B5CEFA64310B5002410E00A4BF3
:1010E00053F824000368EF229A62026844F61F63F3
:1010F000D362C360054B53F8241002F007FA0134A1
:10110000082CECDD10BD00BF44F3000820F30008FC
:10111000082835D8B5EEC00AF1EE10FA20D4DFED7C
:10112000257AB4EEE70AF1EE10FA01DDB0EE670AB7
:101130009FED207AC0EE077A9FED1F7A67EE877ADF
:10114000FCEEE77A17EE903A03F5FA731B4A52F871
:10115000202042B91A4A52F820201268536370477F
:101160009FED180ADBE7042A0BD0082A0FD00C2ABF
:1011700013D0102A17D0124A52F820201268D365D3
:1011800070470F4A52F820201268936370470C4A48
:1011900052F820201268D3637047094A52F8202081
:1011A000126813647047064A52F82020126893654B
:1011B000704700BF000034430000FA4420F30008E9
:1011C00044F3000800000000002308E0054903EB99
:1011D0008300820088188B54002242600133072B61
:1011E000F4D97047A4020020014B01221A70704705
:1011F00044030020014B02221A7070474403002070
:10120000014B03221A70704744030020014B042253
:101210001A70704744030020014B00221A70704777
:10122000440300200000000010B50C46F6EE007AE2
:10123000B4EEE70AF1EE10FA18D570EE007AB3EECC
:10124000047A67EE877AC0ED007AB7EEC00A9FEDA8
:10125000187B20EE070BB7EEC00B0DF0D1FAF2EEC3
:101260000E7A20EE270A84ED000A10BDB7EEC00A00
:10127000B7EE007B37EE407B37EE077BB3EE046BB7
:1012800027EE067BB7EEC77B80ED007A9FED087BEB
:1012900020EE070BB7EEC00B0DF0B2FAF2EE0E7AAD
:1012A00020EE270A84ED000ADFE700BFAFF30080DD
:1012B000182D4454FB21094038B52DED048BB0EEB8
:1012C000409AB0EE608A05460C4620EE000A60EEB9
:1012D000A07A30EE270A0DF019FCDFED3D7AB4EE6E
:1012E000E70AF1EE10FA01DDB0EE670ADFED397AB8
:1012F000B4EEE70AF1EE10FA01D5B0EE670A60EE3F
:10130000007A9FED350A77EEC07A9FED340A77EECA
:10131000C07A9FED337A87EE870AFFEE007AC0FE2F
:10132000277AB7EE000A87FEC00A0DF095FBF0EEB3
:10133000408AF0EE490AB0EE480A0DF0E5FBB0EE47
:10134000408AB0EE680A0DF05BFAB0EE409AB0EE5B
:10135000680A0DF059F99FED237A20EE070ADFEDB8
:10136000220A70EE200A29EE070A0DF0CDFB38EEB6
:10137000407A9FED1E0A27EE007AB7EEC77A9FEDFE
:10138000125B87EE056BB7EEC66BDFED197A86FE52
:10139000276A86FE406A85ED006A28EE800AB7EE6D
:1013A000C00A80EE057BB7EEC77BDFED127A87FEC1
:1013B000277ADFED117A87FE677A84ED007ABDEC3B
:1013C000048B38BDAFF30080182D4454FB21094035
:1013D00066A61543686642417B86CC4580B493453A
:1013E00000CF2D4600808942CDCCA142000034437D
:1013F000000000000000DC4200008C4219B14000F7
:101400000130C0B27047C0B24000C0B270470000A7
:1014100010B52DED048B84B0B6EE009ADFED7A9A0C
:10142000ECE001212046FFF7E9FFDFED788A9DED32
:10143000020A38EEC00AFFF76BFE9DED038A38EE14
:10144000688AF3EE047AB4EEE78AF1EE10FA08D86F
:1014500000212046FFF7D2FF38EEC80AFFF758FEFA
:1014600010E000212046FFF7C9FF9FED690AFFF752
:101470004FFE07E000212046FFF7C0FF9FED650A01
:10148000FFF746FE0234032C2FDC01A96846B0EEBC
:10149000690AFFF7C9FE03A902A8DDED010A9DED67
:1014A000000AFFF709FF002CBBD001212046FFF7FF
:1014B000A5FFDFED568A9DED020A30EE280AFFF700
:1014C00027FE9DED038A38EE688AF3EE047AB4EEC7
:1014D000E78AF1EE10FACDD800212046FFF78EFF03
:1014E00038EE280AFFF714FECCE7012431E0012191
:1014F0002046FFF783FFDFED458A9DED020A38EEB7
:10150000C00AFFF705FE9DED038A38EE688AF3EE08
:10151000047AB4EEE78AF1EE10FA08D800212046EA
:10152000FFF76CFF38EEC80AFFF7F2FD10E000216C
:101530002046FFF763FF9FED360AFFF7E9FD07E05E
:1015400000212046FFF75AFF9FED320AFFF7E0FD2A
:101550000234032C2FDC01A96846B0EE490AFFF7DC
:1015600063FE03A902A8DDED010A9DED000AFFF765
:10157000A3FE012CBBD001212046FFF73FFFDFED8A
:10158000238A9DED020A30EE280AFFF7C1FD9DED8A
:10159000038A38EE688AF3EE047AB4EEE78AF1EE55
:1015A00010FACDD800212046FFF728FF38EE280A90
:1015B000FFF7AEFDCCE7B7EEE97A9FED116B37EEA2
:1015C000067BF7EEC79BB7EEC90A30EE060BB7EE07
:1015D000C09BF7EE007AF4EEE79AF1EE10FA01DB29
:1015E00079EEE79AF7EE007AB4EEE79AF1EE10FAA8
:1015F00001DB39EE679A322008F0D2FF002442E77F
:101600009A9999999999B93F000000000000B44255
:1016100000008C420000DC4270B584B0002426E05B
:10162000F6EE007A01A96846B7EE000A30EE670AC6
:10163000FFF7FAFD03A902A8DDED010A9DED000AFE
:10164000FFF73AFE01212046FFF7D8FE06460021AB
:101650002046FFF7D3FE05469DED020A3046FFF710
:1016600057FD9DED030A2846FFF752FD0134032C78
:1016700006DC032C18BF002CD2D1DFED027AD1E7B3
:1016800004B070BD0000000070B584B0002423E0F9
:10169000B6EE000A2BE001A96846FFF7C5FD03A9D5
:1016A00002A8DDED010A9DED000AFFF705FE01210C
:1016B0002046FFF7A3FE064600212046FFF79EFEC8
:1016C00005469DED020A3046FFF722FD9DED030A17
:1016D0002846FFF71DFD0134032C13DC032C18BF33
:1016E000002C0CBF01230023D2D19FED070A002B51
:1016F000D1D001A96846F7EE007A37EEC00AFFF7AD
:1017000093FDCCE704B070BD0000000070B584B05C
:10171000002427E0B6EE000A2FE001A96846F7EEA4
:10172000007A37EEC00AFFF77FFD03A902A8DDEDBE
:10173000010A9DED000AFFF7BFFD01212046FFF7DA
:101740005DFE064600212046FFF758FE05469DED4A
:10175000020A3046FFF7DCFC9DED030A2846FFF73E
:10176000D7FC0134032C0FDC032C18BF002C0CBF5A
:1017700001230023CED19FED050A002BCDD001A976
:101780006846FFF751FDD0E704B070BD00000000CF
:1017900070B584B0002422E0B6EE000A01A96846C4
:1017A000FFF742FD03A902A8DDED010A9DED000A45
:1017B000FFF782FD01212046FFF720FE06460021AB
:1017C0002046FFF71BFE05469DED020A3046FFF757
:1017D0009FFC9DED030A2846FFF79AFC0134032C79
:1017E00006DC032C18BF002CD6D19FED020AD5E7EA
:1017F00004B070BD0000000090ED007AD1ED007AD9
:10180000B4EEE77AF1EE10FACCBF012000204CBF15
:1018100001230023C01A704708B50DF077F9F7EEE1
:10182000007A87EE800A08BD08B5FFF7D7FA0120D5
:10183000FFF766FB0120FFF769FB0120FFF76CFB58
:101840000920FFF775FB08BD064B1B680360064BBC
:101850001B684360054B1B688360054B1B68C360B6
:10186000704700BF000000206003002064030020D8
:101870006803002000B585B010480268104901EBEC
:10188000820383ED000A01320E4B83FB02C3A3EBFC
:10189000E27303EB4303D31A03600DF1040C07C991
:1018A0008CE80700084B0422032160460AF05AFB2B
:1018B0009DED020A05B05DF804FB00BF5403002053
:1018C0004803002056555555F91700080000000040
:1018D000F0B52DED0A8B87B000230DF1060203A9A8
:1018E0006846FFF75BFBBDF9003009EE903AF8EE71
:1018F000E99AF1EE006A69EEA69A9FEDED7A69EE3B
:10190000879ADFEDEC7A69EEA79ABDF9023008EE0E
:10191000103AB8EEC88A28EE268A28EE078A28EE02
:10192000278ABDF9043008EE903AF8EEE88A68EEAE
:10193000A68A68EE878A68EEA78ABDF9063005EEAA
:10194000103AB8EEC55ADFEDDC6A25EE265A25EED0
:10195000275AB7EEC55A9FEDD23B25EE035B9FEDAC
:10196000D24B85EE042BB7EEC29BBDF9083005EED5
:10197000103AB8EEC55A25EE265A25EE275AB7EE8C
:10198000C55A25EE035B85EE04ABB7EECAABBDF9D5
:101990000A3006EE103AB8EEC66A26EE266A26EE41
:1019A000276AB7EEC66A26EE036B86EE04CBB7EE67
:1019B000CCCBBDF90C300AEE903AF8EEEAAADFED96
:1019C000BF7A6AEEA7AABDF90E300CEE903AF8EE97
:1019D000ECCA6CEEA7CABDF910300BEE903AF8EEE7
:1019E000EBBA6BEEA7BA05F065FAB54B1860B54ACD
:1019F0001368C31A07EE903AF8EE677A9FEDB27A51
:101A000087EE87BA1060B0EE690AFFF733FFF0EE99
:101A1000409AB0EE480AFFF72DFFB0EE408AB0EED4
:101A2000680AFFF727FFF0EE408AB0EE6A0AFFF778
:101A300021FFF0EE40AAB0EE6C0AFFF71BFFF0EEBC
:101A400040CAB0EE6B0AFFF715FFF0EE40BA69EE40
:101A5000A97A28EE080A77EE807A28EEA80A37EEEF
:101A6000800AFFF7D9FE69EE809A28EE008A68EEB8
:101A7000808A6AEEAAAA6CEEACCA7AEEACAA6BEEC9
:101A8000ABBA3AEEAB0AFFF7C7FE904B93ED007A84
:101A900039EE479A8E4B93ED007A3AEE47AA8D4B7A
:101AA00093ED007A3CEE477AF6EE00AA2BEE2ABAC6
:101AB000894E96ED006A66EE497A884DD5ED006A4A
:101AC00066EE8A5A77EEE57A854C94ED000A60EE70
:101AD000075A77EEE57A67EE8B7A824FD7ED005A98
:101AE00077EEA57AC7ED007A67EE895A26EE875A17
:101AF00075EE855A20EE0A5A75EEC55A65EE8B5A78
:101B000036EE256A86ED006A67EE8A5A26EE075A97
:101B100075EEC55A20EE095A75EE855A65EE8B5A58
:101B200076EEA56AC5ED006A27EE877A26EE0AAA48
:101B300037EE0A7A26EE899A37EE497A27EE0B7A43
:101B400030EE077A84ED007A67EEA77A26EE066A11
:101B500077EE867A66EEA66A77EEA67A27EE077AA1
:101B600037EE870AFFF758FED7ED007A60EE277A46
:101B7000C7ED007A96ED007A20EE077A86ED007ABE
:101B8000D5ED006A60EE266AC5ED006A94ED006A44
:101B900020EE060A84ED000A67EEA67A27EE000A18
:101BA00037EEC00A30EE000A0CF082FFB0EE409A29
:101BB000D6ED000A97ED000A20EE800AD5ED007AF6
:101BC00094ED007A27EE877A30EE070A60EEA00ADD
:101BD00067EEA77A70EEA70A70EEA00AF7EE007A19
:101BE00077EEE00A30EE000A0CF08EFFB0EE40AA6D
:101BF000F0EE680AB0EE480A0CF086FFB0EE40BA8C
:101C000068EE087A68EEA88A77EEA87AB7EEE70A57
:101C10000CF0FEFEF7EEC00BB0EE690A0CF074FF9C
:101C2000DFED318A29EE288ADFED307A2BEE27BAF4
:101C300038EE0B8A6AEE288A20EE270A78EE808A30
:101C400068EEAA8AB0EE680A0CF0DAFDB0EE409AAF
:101C5000B0EE680A0CF0D8FCF0EE408A68EE2AAAD2
:101C6000B0EE6A0A0CF0CCFDB0EE408AB0EE6A0A23
:101C70000CF0CAFC68EE807AC7ED007A69EE007A53
:101C8000C6ED007A68EE888AC5ED008A29EE089ACA
:101C900084ED009A07B0BDEC0A8BF0BDAFF3008075
:101CA000182D4454FB2109400000000000806640CC
:101CB000C3F51C41000000380000FA430681153EC0
:101CC0005C0300205803002000007A446C030020CD
:101CD00070030020740300206003002064030020D0
:101CE000680300200000002048E17A3F00D7A33CB1
:101CF00086B0254BD3F8E02042F01002C3F8E02074
:101D0000D3F8E02002F010020092009AD3F8E0200D
:101D100042F00402C3F8E020D3F8E02002F004020D
:101D20000192019AD3F8E02042F08002C3F8E0204B
:101D3000D3F8E02002F080020292029AD3F8E02069
:101D400042F00102C3F8E020D3F8E02002F00102E3
:101D50000392039AD3F8E02042F00202C3F8E02095
:101D6000D3F8E02002F002020492049AD3F8E020B3
:101D700042F00802C3F8E020D3F8E03003F0080393
:101D80000593059B06B07047004402588AB003686B
:101D9000554A934229D0554A934235D0544A9342EA
:101DA00040D0544A93424BD0534A934256D0534A60
:101DB000934261D0524A93426CD0524A934277D0B8
:101DC000514A934200F08280504A93421AD1504BBC
:101DD000D3F8F02042F48022C3F8F020D3F8F0309A
:101DE00003F480230993099B0CE0494BD3F8E820C6
:101DF00042F00202C3F8E820D3F8E83003F002030F
:101E00000093009B0AB07047414BD3F8E82042F0A2
:101E10000402C3F8E820D3F8E83003F00403019388
:101E2000019BEFE73A4BD3F8E82042F00802C3F8F1
:101E3000E820D3F8E83003F008030293029BE1E7BF
:101E4000334BD3F8F02042F00202C3F8F020D3F86D
:101E5000F03003F002030393039BD3E72C4BD3F83A
:101E6000E82042F04002C3F8E820D3F8E83003F05D
:101E700040030493049BC5E7254BD3F8E82042F0C8
:101E80008002C3F8E820D3F8E83003F0800305931C
:101E9000059BB7E71E4BD3F8E82042F48072C3F8E5
:101EA000E820D3F8E83003F480730693069BA9E793
:101EB000174BD3F8F02042F48032C3F8F020D3F867
:101EC000F03003F480330793079B9BE7104BD3F864
:101ED000F02042F40032C3F8F020D3F8F03003F4DD
:101EE00000330893089B8DE7000400400008004081
:101EF000000C00400004014000180040001C00409D
:101F000000200040004001400044014000480140E2
:101F10000044025800B591B000230B930C930D932D
:101F20000E930F9303688A4A934238D0894A9342AA
:101F30004ED0894A934263D0884A934277D0884AE8
:101F4000934200F08C80874A934200F0A080864A3A
:101F5000934200F0B480854A934200F0C880844ADE
:101F6000934200F0DC80834A93422ED1824BD3F817
:101F7000E02042F00202C3F8E020D3F8E03003F0A2
:101F800002030A930A9B4FF400730B9302230C93F2
:101F900001230F930BA9794803F072FA15E0764BF1
:101FA000D3F8E02042F00202C3F8E020D3F8E0309A
:101FB00003F002030193019B10230B9302230C9364
:101FC0000F930BA96D4803F05BFA11B05DF804FBA9
:101FD000694BD3F8E02042F00802C3F8E020D3F8C0
:101FE000E03003F008030293029B4FF480530B93FD
:101FF00002230C930F930BA9614803F041FAE4E725
:102000005D4BD3F8E02042F00102C3F8E020D3F8A2
:10201000E03003F001030393039B01230B9302239E
:102020000C930F930BA9574803F02AFACDE7524BB4
:10203000D3F8E02042F00402C3F8E020D3F8E03007
:1020400003F004030493049B40230B9302230C939B
:1020500003230F930BA94C4803F012FAB5E7464B44
:10206000D3F8E02042F00202C3F8E020D3F8E030D9
:1020700003F002030593059B4FF480430B93022367
:102080000C930F930BA93D4803F0FAF99DE73A4BE7
:10209000D3F8E02042F00102C3F8E020D3F8E030AA
:1020A00003F001030693069B40230B9302230C933A
:1020B00009230F930BA9334803F0E2F985E72E4B70
:1020C000D3F8E02042F00102C3F8E020D3F8E0307A
:1020D00003F001030793079B80230B9302230C93C8
:1020E00009230F930BA9274803F0CAF96DE7224B88
:1020F000D3F8E02042F01002C3F8E020D3F8E0303B
:1021000003F010030893089B20230B9302230C93E6
:1021100004230F930BA91D4803F0B2F955E7164BA2
:10212000D3F8E02042F00202C3F8E020D3F8E03018
:1021300003F002030993099B4FF480730B9302236E
:102140000C9301230F930BA90C4803F099F93CE77A
:102150000004004000080040000C00400004014062
:1021600000180040001C00400020004000400140DA
:102170000044014000480140004402580004025855
:10218000000C0258000002580008025800100258C3
:1021900000B58FB000230A930B930C930D93079314
:1021A0000893099300930193029303930493059377
:1021B00006932248224A0260EF224260836044F67E
:1021C0001F62C2600361836100F0A0FF30BB4FF467
:1021D00080530A930AA9194801F0ECF808BB174884
:1021E00000F0C4FF00BB00230793099307A913481D
:1021F00001F040FAD8B96023009342F20F730193C3
:1022000000220292049269460C4801F029F888B92C
:102210000A48FFF77FFE0FB05DF804FBFEF72CFCC9
:10222000D5E7FEF729FCDAE7FEF726FCDBE7FEF749
:1022300023FCE0E7FEF720FCEAE700BF40050020B2
:102240000004004000B58FB000230A930B930C9359
:102250000D930793089309930093019302930393BB
:102260000493059306932148214A0260EF224260BD
:10227000836044F61F62C2600361836100F046FF21
:1022800020BB4FF480530A930AA9184801F092F832
:10229000F8B9164800F06AFFF0B9002307930993D4
:1022A00007A9124801F0E6F9C8B96023009300229B
:1022B00001920292049269460C4800F0D1FF88B95D
:1022C0000A48FFF727FE0FB05DF804FBFEF7D4FBCA
:1022D000D7E7FEF7D1FBDCE7FEF7CEFBDDE7FEF745
:1022E000CBFBE2E7FEF7C8FBEAE700BF8C05002066
:1022F0000008004000B58FB000230A930B930C93A5
:102300000D9307930893099300930193029303930A
:102310000493059306932248224A0260EF2242600A
:10232000836044F61F62C2600361836100F0EEFEC9
:1023300030BB4FF480530A930AA9194801F03AF8C8
:1023400008BB174800F012FF00BB00230793099356
:1023500007A9134801F08EF9D8B96023009342F21F
:102360000F73019300220292049269460C4800F018
:1023700077FF88B90A48FFF7CDFD0FB05DF804FB81
:10238000FEF77AFBD5E7FEF777FBDAE7FEF774FB9B
:10239000DBE7FEF771FBE0E7FEF76EFBEAE700BF65
:1023A000D8050020000C004010B59AB00024169407
:1023B0001794189419941394149415940C940D94E0
:1023C0000E940F941094119412942C22214601A87B
:1023D00009F046F93148324B0360EF2343608460D3
:1023E00044F61F63C36004614461846100F08EFEA3
:1023F000002841D14FF48053169316A9274800F0C6
:10240000D9FF00283BD1254800F0B0FE002839D183
:10241000002313931493159313A9204801F02AF96C
:10242000002832D160230C9342F20F730D930022E7
:102430000E920F921092119212920CA9174800F06E
:102440000FFF28BB0023019302930393049305938A
:102450004FF400520692079308934FF000720992CE
:102460000A930B9301A90D4801F054F998B90B4850
:10247000FFF750FD1AB010BDFEF7FEFABAE7FEF7FF
:10248000FBFAC0E7FEF7F8FAC2E7FEF7F5FAC9E78C
:10249000FEF7F2FAD6E7FEF7EFFAE8E724060020A7
:1024A0000004014000B58FB000230A930B930C93F6
:1024B0000D93079308930993009301930293039359
:1024C0000493059306932248224A0260EF22426059
:1024D000836044F61F62C2600361836100F016FEF0
:1024E00030BB4FF480530A930AA9194800F062FFE9
:1024F00008BB174800F03AFE00BB0023079309937E
:1025000007A9134801F0B6F8D8B96023009342F246
:102510000F73019300220292049269460C4800F066
:102520009FFE88B90A48FFF7F5FC0FB05DF804FB81
:10253000FEF7A2FAD5E7FEF79FFADAE7FEF79CFA74
:10254000DBE7FEF799FAE0E7FEF796FAEAE700BF65
:10255000780300200018004000B589B000230193E3
:102560000293039304930593069307931648174A1F
:102570000260EF224260836044F61F62C260036122
:10258000836100F0C3FDB0B90F4800F0EFFDA8B9BA
:102590006023019342F20F7302930022039205928B
:1025A00001A9094800F05CFE58B90748FFF7B2FCE2
:1025B00009B05DF804FBFEF75FFAE5E7FEF75CFAA9
:1025C000E6E7FEF759FAF0E7C4030020001C0040DC
:1025D00000B589B0002301930293039304930593FC
:1025E000069307931648174A0260EF224260836001
:1025F00044F61F62C2600361836100F087FDB0B9D9
:102600000F4800F0B3FDA8B96023019342F20F73A5
:10261000029300220392059201A9094800F020FECE
:1026200058B90748FFF776FC09B05DF804FBFEF7E0
:1026300023FAE5E7FEF720FAE6E7FEF71DFAF0E7F2
:10264000100400200020004010B59AB00024169419
:102650001794189419941394149415940C940D943D
:102660000E940F941094119412942C22214601A8D8
:1026700008F0F6FF2E482F4B0360EF234360846081
:1026800044F61F63C36004614461846100F03EFD51
:1026900000283BD14FF48053169316A9244800F02C
:1026A00089FE002835D1224800F060FD002833D192
:1026B00000231393159313A91D4800F0DBFF002896
:1026C0002DD160230C9342F20F730D9300220E92D2
:1026D0000F921092119212920CA9154800F0C0FDB1
:1026E00000BB0023019302930393049305934FF4DB
:1026F0000052069207930B9301A90D4801F00AF8C6
:1027000098B90B48FFF706FC1AB010BDFEF7B4F9F4
:10271000C0E7FEF7B1F9C6E7FEF7AEF9C8E7FEF786
:10272000ABF9CEE7FEF7A8F9DBE7FEF7A5F9E8E796
:102730005C0400200040014010B592B000240B94CE
:102740000C940D940E940F94109411942C22214605
:10275000684608F085FF2248224B0360EF23436060
:10276000846044F61F63C36004614461846100F0C7
:10277000CDFC40BB1A4800F0F9FC38BB60230B933A
:1027800042F20F730C9300220D920E920F92109250
:1027900011920BA9124800F063FDD0B900230093F9
:1027A00001930293039304934FF40052059206930E
:1027B0000A9369460A4800F0ADFF68B90848FFF778
:1027C000A9FB12B010BDFEF757F9D3E7FEF754F995
:1027D000D4E7FEF751F9E1E7FEF74EF9EEE700BF67
:1027E000A80400200044014010B592B000240B94CE
:1027F0000C940D940E940F94109411942C22214655
:10280000684608F02DFF2248224B0360EF23436007
:10281000846044F61F63C36004614461846100F016
:1028200075FC40BB1A4800F0A1FC38BB60230B9339
:1028300042F20F730C9300220D920E920F9210929F
:1028400011920BA9124800F00BFDD0B900230093A0
:1028500001930293039304934FF40052059206935D
:102860000A9369460A4800F055FF68B90848FFF71F
:1028700051FB12B010BDFEF7FFF8D3E7FEF7FCF8EE
:10288000D4E7FEF7F9F8E1E7FEF7F6F8EEE700BF68
:10289000F404002000480140FEE7FEE7FEE7FEE703
:1028A000FEE7704708B5024803F004FF08BD00BF0B
:1028B0001807002008B5024803F0FCFE08BD00BF61
:1028C0009007002008B5024800F0D9FA08BD00BF03
:1028D0007006002008B5024805F0F0FB08BD00BFF7
:1028E0000808002000B583B00A4BD3F8F42042F06A
:1028F0000202C3F8F420D3F8F43003F0020301938A
:10290000019B00220F216FF0010000F05FF803B07F
:102910005DF804FB004402580F2801D901207047DC
:1029200010B58AB0044600220146192000F04EF886
:10293000192000F081F8174B1C60174BD3F8F020DA
:1029400042F00102C3F8F020D3F8F03003F00103A5
:102950000093009B01A902A801F00CFD01F0F8FC16
:1029600043000E48A0FB03239B0C013B0C480D4A7F
:10297000026040F2E732C26043600023036183607B
:1029800000F0C4FB10B101200AB010BD044800F0F3
:1029900029FAF9E7080000200044025883DE1B43AF
:1029A00070060020000001400649CB6823F4E06374
:1029B0001B041B0C000200F4E0600343024A1A43AC
:1029C000CA60704700ED00E00000FA0500B5174B43
:1029D000DB68C3F30223C3F1070CBCF1040F28BF6B
:1029E0004FF0040C03F1040EBEF1060F14D9033BA3
:1029F0004FF0FF3E0EFA0CFC21EA0C0199400EFA52
:102A000003F322EA03031943002807DB0901C9B2D3
:102A1000074B19545DF804FB0023E9E700F00F00B1
:102A20000901C9B2034B1954F4E700BF00ED00E0FF
:102A300000E400E014ED00E0002807DB00F01F02D6
:102A4000400901239340024A42F82030704700BFFA
:102A500000E100E0BFF35F8F044B5A6A22F480323A
:102A60005A620022C3F89420704700BF00ED00E0D6
:102A700040F00100054BC3F894005A6A42F48032DA
:102A80005A62BFF34F8FBFF36F8F704700ED00E0C6
:102A90004378144AC2F89830D2F8A03023F00103EA
:102AA000C2F8A0304368C2F89C30017BC37A1B0691
:102AB00043EA0173817A43EAC143417B43EA81439C
:102AC000817B43EA4143C17B43EA0143417A43EAC4
:102AD0000123017A43EA410301780B43C2F8A03095
:102AE000704700BF00ED00E0F0B4036A026A22F014
:102AF00001020262466884691F4A22400D6815433C
:102B000023F002038C6823431C4A1D4CA04218BFCB
:102B100090420CBF012200220CD004F58044A04258
:102B200014BF00240124174FB84203D014B9164C27
:102B3000A04205D123F00803CC68234323F004030B
:102B40005AB9124A904214BF002201220D4CA042F1
:102B500003D012B90C4A904207D126F4407C4A694E
:102B600042EA0C0C8E6946EA0C06466085614A68AA
:102B700042630362F0BC70478CFFFEFF000001401F
:102B80000004014000400140004801400044014071
:102B900070B4036A026A22F4807202624568C469F2
:102BA0001A4A22400E68164323F400738A6843EAE7
:102BB0000223174A174CA04218BF90420CBF0122B3
:102BC000002206D123F40063CC6843EA042323F4F3
:102BD00080635AB9104A904214BF002201220F4C60
:102BE000A04203D012B90E4A904207D125F4405CAE
:102BF0004A694CEA021C8D694CEA05154560C661BC
:102C00004A68C263036270BC704700BF8CFFFEFF5E
:102C10000000014000040140004401400040014028
:102C20000048014070B4036A026A22F480520262D2
:102C30004468C569144A2A400D6842EA052223F413
:102C400000538D6843EA0533104E114DA84218BF5A
:102C5000B0420DD005F58045A84214BF00250125DE
:102C600006F58046B04203D015B90A4DA84204D1FA
:102C700024F480444D6944EA85144460C2614A6882
:102C80000264036270BC7047FF8CFFFE00000140CD
:102C9000000401400048014070B4036A026A22F453
:102CA000803202624268456D144C2C400D682C4302
:102CB00023F400338D6843EA0543114E114DA842B9
:102CC00018BFB0420DD005F58045A84214BF0025BD
:102CD000012506F58046B04203D015B90A4DA84239
:102CE00004D122F480324D6942EA052242604465F3
:102CF0004A688265036270BC704700BF8FFFFEFFA9
:102D000000000140000401400048014070B4036A23
:102D1000026A22F4801202624468456D144A2A4015
:102D20000D6842EA052223F400138D6843EA055337
:102D3000104E114DA84218BFB0420DD005F5804588
:102D4000A84214BF0025012506F58046B04203D0F5
:102D500015B90A4DA84204D124F480244D6944EAEF
:102D60008524446042654A68C265036270BC70474E
:102D7000FF8FFFFE000001400004014000480140B9
:102D800010B4036A046A24F001040462846924F024
:102D9000F00C4CEA021223F00A030B438261036237
:102DA0005DF8044B704710B4036A046A24F0100401
:102DB0000462846924F4704C4CEA023223F0A003CC
:102DC00043EA0113826103625DF8044B704700001F
:102DD0008268034B13400B4343F007038360704743
:102DE0008FFFCFFF90F83D30DBB2012B3AD10223A9
:102DF00080F83D300268D36843F00103D360036874
:102E00001A4AB3F1804F18BF93421DD0A2F57C42FD
:102E1000934219D002F58062934215D002F5806288
:102E2000934211D002F5784293420DD0A2F56C4244
:102E3000934209D002F59432934205D01A6842F0C9
:102E400001021A60002070479968094A0A40062A60
:102E500018BFB2F5803F07D01A6842F001021A602D
:102E6000002070470120704700207047000001409B
:102E7000070001007047704770477047704770B592
:102E800004460368DE681D6915F0020F10D016F0C5
:102E9000020F0DD06FF002021A610123037703685D
:102EA0009B6913F0030F64D0FFF7E6FF002323773D
:102EB00015F0040F12D016F0040F0FD023686FF036
:102EC00004021A610223237723689B6913F4407F6D
:102ED00055D02046FFF7D0FF0023237715F0080FC9
:102EE00012D016F0080F0FD023686FF008021A6195
:102EF000042323772368DB6913F0030F46D02046B1
:102F0000FFF7BAFF0023237715F0100F12D016F049
:102F1000100F0FD023686FF010021A610823237777
:102F20002368DB6913F4407F37D02046FFF7A4FF06
:102F30000023237715F0010F02D016F0010F33D1D3
:102F400015F4025F02D016F0800F35D115F4807FA2
:102F500002D016F0800F37D115F0400F02D016F0D6
:102F6000400F39D115F0200F02D016F0200F3BD1C1
:102F700070BDFFF780FF2046FFF77FFF96E72046F2
:102F8000FFF779FF2046FFF778FFA5E72046FFF718
:102F900072FF2046FFF771FFB4E72046FFF76BFF93
:102FA0002046FFF76AFFC3E723686FF001021A614A
:102FB0002046FDF755FDC3E723686FF402521A61FE
:102FC000204600F0F0FBC1E723686FF480721A61BD
:102FD000204600F0E9FBBFE723686FF040021A616A
:102FE0002046FFF74BFFBDE723686FF020021A6110
:102FF000204600F0D7FBBBE730B503683D4A90425E
:1030000014BF4FF0000E4FF0010EB0F1804F14BF0F
:1030100072464EF00102AAB9374CA04214BF0024F8
:103020000124364DA8420DD064B904F1804404F562
:103030008234A04214BF0024012405F50065A84293
:1030400000D01CB123F070034C68234312BB2A4A02
:10305000904214BF00220122284CA0421AD0CAB9C3
:1030600002F1804202F58232904214BF0022012216
:1030700004F50064A0420DD062B9214A904214BF09
:103080000022012204F59A34A04203D012B91D4A4D
:10309000904204D123F4407CCB6843EA0C0323F034
:1030A00080034A69134303608A68C2620A688262C5
:1030B000154A904214BF73464EF0010363B9104B9A
:1030C000984214BF0023012302F57052904203D0AE
:1030D00013B90C4B984201D10B690363012343617F
:1030E000036913F0010F03D0036923F001030361A7
:1030F00030BD00BF00000140000800400004004057
:1031000000440140004801400004014060B310B594
:10311000044690F83D3013B3022384F83D30214635
:1031200051F8040BFFF768FF012384F8483084F856
:103130003E3084F83F3084F8403084F8413084F8E1
:10314000423084F8433084F8443084F8453084F8C1
:10315000463084F8473084F83D30002010BD80F8B8
:103160003C30FEF713FED7E70120704760B310B57F
:10317000044690F83D3013B3022384F83D302146D5
:1031800051F8040BFFF738FF012384F8483084F826
:103190003E3084F83F3084F8403084F8413084F881
:1031A000423084F8433084F8443084F8453084F861
:1031B000463084F8473084F83D30002010BD80F858
:1031C0003C30FFF757FED7E70120704770B4036A21
:1031D000026A22F010020262456884691A4A22409B
:1031E0000E6842EA062623F020038A6843EA0213A7
:1031F000164A174CA04218BF90420CBF0122002271
:1032000006D123F08003CC6843EA041323F0400383
:103210005AB9104A904214BF002201220E4CA0421B
:1032200003D012B90D4A904207D125F4406C4A6987
:103230004CEA820C8D694CEA8505456086614A68D6
:103240008263036270BC7047FF8CFFFE0000014088
:10325000000401400044014000400140004801409A
:1032600038B590F83C30012B00F0958004460D46AF
:10327000012380F83C30142A00F28880DFE802F055
:103280000B8686861F868686348686864886868650
:103290005D86868671000068FFF726FC22689369C8
:1032A00043F0080393612268936923F00403936158
:1032B0002268936929690B439361002067E00068E5
:1032C000FFF784FF2268936943F4006393612268E7
:1032D000936923F48063936122689369296943EABF
:1032E00001239361002052E00068FFF751FC22683F
:1032F000D36943F00803D3612268D36923F0040340
:10330000D3612268D36929690B43D36100203EE071
:103310000068FFF787FC2268D36943F40063D36138
:103320002268D36923F48063D3612268D369296951
:1033300043EA0123D361002029E00068FFF7ACFCD9
:103340002268536D43F0080353652268536D23F0E0
:10335000040353652268536D29690B4353650020AC
:1033600015E00068FFF7D2FC2268536D43F4006358
:1033700053652268536D23F4806353652268536D4F
:10338000296943EA01235365002000E0012000235E
:1033900084F83C3038BD0220FCE710B4846824F483
:1033A0007F4C42EA03220A4342EA0C0282605DF843
:1033B000044B704790F83C30012B00F08F8010B523
:1033C0000446012380F83C30022380F83D30026837
:1033D0009068434B034093600B68702B55D031D8F5
:1033E000502B6CD00CD9602B2AD1CA684968206850
:1033F000FFF7D9FC60212068FFF7EAFC002035E0E8
:10340000402B0AD1CA6849682068FFF7B9FC4021FF
:103410002068FFF7DDFC002028E05BD8202B07D0D8
:1034200003D9302B04D0012020E00BB1102B05D1A3
:1034300019462068FFF7CCFC002017E0012015E0BA
:10344000012013E0B3F5005F2CD00BD9254A93423D
:10345000EED012D9244A9342EAD010329342E7D0F8
:10346000012003E0B3F5805F36D10020012384F80A
:103470003D30002384F83C3010BDB3F5801FD7D019
:10348000B3F1101FD4D00120F0E7CB684A688968F7
:103490002068FFF782FF2268936843F07703936008
:1034A0000020E3E7CB684A6889682068FFF775FF6A
:1034B0002268936843F4804393600020D6E7CA688B
:1034C00049682068FFF75CFC50212068FFF780FC0A
:1034D0000020CBE70120C9E70120C7E702207047A1
:1034E0008800CEFF200010003000100001F01F0106
:1034F000012303FA01FC036A23EA0C030362036A53
:1035000002FA01F10B4303627047000010B5044654
:10351000084600294ED194F83E30DBB2013B18BF7B
:103520000123002B40F09B8000286ED1022384F8F9
:103530003E30012201462068FFF7D8FF23684A4940
:103540004A4A934218BF8B420BD002F57052934205
:1035500007D002F58062934203D002F58062934265
:1035600003D15A6C42F400425A6423683E4AB3F1D4
:10357000804F18BF934264D0A2F57C42934260D042
:1035800002F5806293425CD002F58062934258D08B
:1035900002F57842934254D0A2F56C42934250D047
:1035A00002F5943293424CD01A6842F001021A603C
:1035B000002055E004290CD0082911D00C2916D080
:1035C00010291BD094F84330DBB2013B18BF012314
:1035D000A7E794F83F30DBB2013B18BF0123A0E717
:1035E00094F84030DBB2013B18BF012399E794F80F
:1035F0004130DBB2013B18BF012392E794F842301F
:10360000DBB2013B18BF01238BE7042809D008284F
:103610000BD00C280DD010280FD0022384F8433093
:1036200087E7022384F83F3083E7022384F84030A1
:103630007FE7022384F841307BE7022384F842309D
:1036400077E799680A4A0A40062A18BFB2F5803F10
:1036500007D01A6842F001021A60002000E0012041
:1036600010BD0020FCE700BF000001400004014045
:103670000700010090F83C30012B45D070B40123C5
:1036800080F83C30022380F83D3003685A689C681B
:103690001E4E1F4DAB4218BFB34203D122F470023D
:1036A0004D682A4322F070020D682A435A6003686D
:1036B000164AB3F1804F18BF934217D0A2F57C424F
:1036C000934213D002F5806293420FD002F58062DC
:1036D00093420BD002F57842934207D0A2F56C4298
:1036E000934203D002F59432934204D124F0800433
:1036F0008A6814439C60012380F83D30002380F8E1
:103700003C30184670BC70470220704700000140F2
:103710000004014090F83C30012B3CD030B4012330
:1037200080F83C30CB6823F440738A68134323F459
:1037300080634A68134323F400630A68134323F445
:1037400080530A69134323F400534A69134323F453
:1037500080438A6A134323F470238A6943EA02434D
:1037600002680E4D0E4CA24218BFAA420CD123F49F
:1037700070034C6A43EA045323F08073CC692343FB
:1037800023F00073096A0B435364002380F83C3034
:10379000184630BC70470220704700BF000001404F
:1037A000000401407047704770470000002800F097
:1037B000398338B50446036813F0010F25D0944AC5
:1037C000136903F03803926A102B15D0182B0FD011
:1037D0006368B3F5803F3FD0002B53D18C4B1A6800
:1037E00022F480321A601A6822F480221A6038E0CB
:1037F00002F00302022AEBD1854B1B6813F4003F51
:1038000003D06368002B00F00F83236813F0020FCE
:1038100000F0A1807E4A1369926A13F038035AD0EF
:10382000182B55D0E368002B00F0DE8078490A6839
:1038300022F0190213430B6003F03CFB0546744B66
:103840001B6813F0040F40F0AD8003F033FB401B06
:103850000228F4D90320EEE26D4A136843F4803362
:10386000136063682BB303F025FB0546684B1B68A8
:1038700013F4003FC9D103F01DFB401B6428F5D9A8
:103880000320D8E2B3F5A02F09D0614B1A6822F4C7
:1038900080321A601A6822F480221A60E1E75C4BD9
:1038A0001A6842F480221A601A6842F480321A6060
:1038B000D7E703F0FFFA0546554B1B6813F4003FAA
:1038C000A3D003F0F7FA401B6428F5D90320B2E235
:1038D00012F0030FA6D14E4B1B6813F0040F03D058
:1038E000E368002B00F0A282494A136823F0190311
:1038F000E1680B43136003F0DDFA0546444B1B6897
:1039000013F0040F06D103F0D5FA401B0228F5D9B5
:10391000032090E203F0E8FA41F20303984212D840
:103920002269402A07D03A494B6823F47C3343EAA2
:1039300002334B600FE0364A536823F47C3343F480
:103940000033536007E0324A536823F0FE43216995
:1039500043EA01635360236813F0100F00F088807E
:103960002B4A136903F03803926A082B56D0182BA0
:1039700050D0E369002B00F0B880254A136843F06B
:103980008003136003F096FA0546214B1B6813F47D
:10399000807F40F0888003F08DFA401B0228F4D924
:1039A000032048E203F0A0FA41F20303984212D840
:1039B0002269402A07D016494B6823F47C3343EA36
:1039C00002334B60C7E7124A536823F47C3343F455
:1039D00000335360BFE70E4A536823F0FE4321696A
:1039E00043EA01635360B6E7094A136823F0010311
:1039F000136003F05FFA0546054B1B6813F0040FD4
:103A0000A9D003F057FA401B0228F5D9032012E28F
:103A10000044025802F00302012AAAD1A14B1B68FC
:103A200013F4807F03D0E369802B40F0018203F020
:103A30005BFA41F20303984212D8226A202A07D087
:103A400098494B6823F0F84343EA82634B600FE0E8
:103A5000944A536823F0F84343F08043536007E0EF
:103A6000904AD36823F07C53216A43EA0163D36010
:103A7000236813F0080F60D06369002B49D0894A8E
:103A8000536F43F00103536703F014FA0546854B67
:103A90005B6F13F0020F50D103F00CFA401B0228A9
:103AA000F5D90320C7E103F01FFA41F2030398425E
:103AB00012D8226A202A07D07A494B6823F0F843AB
:103AC00043EA82634B60D3E7764A536823F0F843B6
:103AD00043F080435360CBE7724AD36823F07C53B2
:103AE000216A43EA0163D360C2E76E4A136823F098
:103AF0008003136003F0DEF905466A4B1B6813F47C
:103B0000807FB5D003F0D6F9401B0228F5D90320F9
:103B100091E1644A536F23F00103536703F0CAF93C
:103B20000546604B5B6F13F0020F06D003F0C2F93D
:103B3000401B0228F5D903207DE1236813F0200FF4
:103B400029D0A3699BB1574A136843F4805313608B
:103B500003F0B0F90546534B1B6813F4005F1AD10C
:103B600003F0A8F9401B0228F5D9032063E14D4A70
:103B7000136823F48053136003F09CF90546494B06
:103B80001B6813F4005F06D003F094F9401B022871
:103B9000F5D903204FE1236813F0040F21D1636AA4
:103BA000002B00F047813F4A126902F03802182AC0
:103BB00000F0EE80022B79D03A4A136823F080732C
:103BC000136003F077F90446364B1B6813F0007F4F
:103BD00000F0DC8003F06EF9001B0228F4D903200A
:103BE00029E1314A136843F48073136003F062F9EA
:103BF00005462D4B1B6813F4807F06D103F05AF95C
:103C0000401B6428F5D9032015E1A368012B0AD0D5
:103C10000BBB244B1A6F22F001021A671A6F22F0B5
:103C200004021A6704E01F4A136F43F0010313678D
:103C3000A36833B303F03EF905461A4B1B6F13F02C
:103C4000020FACD103F036F9401B41F288339842A1
:103C5000F3D90320EFE0052B09D0124B1A6F22F0A5
:103C600001021A671A6F22F004021A67E0E70D4B8F
:103C70001A6F42F004021A671A6F42F001021A67C3
:103C8000D6E703F017F90546064B1B6F13F0020F3A
:103C900085D003F00FF9401B41F288339842F3D9E5
:103CA0000320C8E00044025800480258694A1368DB
:103CB00023F08073136003F0FDF80546654B1B6825
:103CC00013F0007F06D003F0F5F8401B0228F5D969
:103CD0000320B0E05F4B996A5F4A0A40A16AE06A3C
:103CE00041EA00110A439A62226B013AC2F30802C8
:103CF000616B0139490289B20A43A16B0139090498
:103D000001F4FE010A43E16B0139090601F0FE41AD
:103D10000A431A63DA6A22F00102DA62596B4F4AE7
:103D20000A40A16C42EAC1025A63DA6A22F00C022C
:103D3000216C0A43DA62DA6A22F00202616C0A43F9
:103D4000DA62DA6A42F48032DA62DA6A42F4003223
:103D5000DA62DA6A42F48022DA62DA6A42F0010256
:103D6000DA621A6842F080721A6003F0A3F804461F
:103D7000384B1B6813F0007F06D103F09BF8001B43
:103D80000228F5D9032056E0002054E0002052E03C
:103D9000304A916A106B012B4ED001F00303A26AE6
:103DA00093424BD1C1F30511E36A994248D1C0F364
:103DB0000802236B013B9A4244D1C0F34622636B55
:103DC000013B9A4240D1C0F30642A36B013B9A42A9
:103DD0003CD1C0F30660E36B013B984238D11D4BE8
:103DE0005B6BC3F3CC03A26C9A4201D1002022E0AA
:103DF000184AD36A23F00103D36203F05BF8054647
:103E000003F058F8A842FBD0124A516B134B0B40F9
:103E1000A16C43EAC1035363D36A43F00103D36245
:103E2000002008E001207047012004E0012002E0AA
:103E3000012000E0002038BD0120FCE70120FAE766
:103E40000120F8E70120F6E70120F4E70120F2E77E
:103E50000120F0E7004402580CFCFFFF0700FFFFC1
:103E6000744B1B6903F03803102B00F0DE80182B15
:103E700010D00BB1704870476E4B1B6813F0200FC9
:103E800000F0D5806B4B1868C0F3C1006B4B23FA70
:103E900000F0704710B4674A916A01F00301946A18
:103EA000C4F30510D36A03F0010C536BC3F3CC03C6
:103EB0000CFB03F307EE903AF8EE677A14F47C7F7C
:103EC00000F09380012965D0022900F09180E1B1D2
:103ED00007EE100AF8EE476A9FED596A86EE267AD9
:103EE000544B1B6BC3F3080306EE903AF8EE666A78
:103EF0009FED546A67EE867A76EEA77AF7EE006A4F
:103F000077EEA67A27EE277A60E0136813F0200F89
:103F100023D011461268C2F3C102484BD34007EECA
:103F2000103AF8EE476A07EE100AB8EE476A86EED6
:103F3000867A0B6BC3F3080306EE903AF8EE666AD6
:103F40009FED406A67EE867A76EEA77AF7EE006A12
:103F500077EEA67A27EE277A38E007EE100AF8EE19
:103F6000476A9FED396A86EE267A324B1B6BC3F3A4
:103F7000080306EE903AF8EE666A9FED326A67EE45
:103F8000867A76EEA77AF7EE006A77EEA67A27EEC3
:103F9000277A1BE007EE100AF8EE476A9FED286AC1
:103FA00086EE267A234B1B6BC3F3080306EE903A8A
:103FB000F8EE666A9FED236A67EE867A76EEA77A58
:103FC000F7EE006A77EEA67A27EE277A194B1B6B7D
:103FD000C3F34623013307EE903AF8EE677AC7EE53
:103FE000276AFCEEE67A17EE900A5DF8044B7047FC
:103FF00007EE100AF8EE476A9FED146A86EE267AFD
:104000000C4B1B6BC3F3080306EE903AF8EE666A9E
:104010009FED0C6A67EE867A76EEA77AF7EE006A75
:1040200077EEA67A27EE277AD0E70948704703484B
:10403000704700BF0044025800093D000090D003C3
:104040000024744A000000390024744C20BCBE4B8C
:1040500040787D01002800F0328170B50D4604469D
:104060009B4B1B6803F00F038B420BD2984A1368DB
:1040700023F00F030B431360136803F00F038B420D
:1040800040F01F81236813F0040F0CD02269914B7C
:104090009B6903F070039A4205D98E498B6923F01E
:1040A00070031A438A61236813F0080F0CD0626909
:1040B000884BDB6903F070039A4205D98549CB69C7
:1040C00023F070031A43CA61236813F0100F0CD059
:1040D000A269804BDB6903F4E0639A4205D97D490C
:1040E000CB6923F4E0631A43CA61236813F0200FFD
:1040F0000CD0E269774B1B6A03F070039A4205D932
:1041000074490B6A23F070031A430A62236813F0A0
:10411000020F0CD0E2686F4B9B6903F00F039A42C9
:1041200005D96C498B6923F00F031A438A61236810
:1041300013F0010F41D0674A936923F47063A168BB
:104140000B4393616368022B0AD0032B27D0012B0A
:104150002CD0604A126812F0040F06D10120ADE0A5
:10416000126812F4003F00F0AE805A490A6922F04A
:10417000070213430B6102F09DFE0646554B1B6977
:1041800003F038036268B3EBC20F16D002F092FE60
:10419000801B41F288339842F0D903208EE04D4ACB
:1041A000126812F0007FE0D1012087E0494A1268CE
:1041B00012F4807FD9D1012080E0236813F0020F30
:1041C0000CD0E268434B9B6903F00F039A4205D27F
:1041D00040498B6923F00F031A438A613C4B1B68EB
:1041E00003F00F03AB420AD9394A136823F00F03D7
:1041F0002B431360136803F00F03AB4265D12368B0
:1042000013F0040F0CD02269324B9B6903F070034A
:104210009A4205D22F498B6923F070031A438A61B1
:10422000236813F0080F0CD062692A4BDB6903F096
:1042300070039A4205D22749CB6923F070031A43D1
:10424000CA61236813F0100F0CD0A269214BDB69FF
:1042500003F4E0639A4205D21E49CB6923F4E0637C
:104260001A43CA61236813F0200F0CD0E269194B7E
:104270001B6A03F070039A4205D216490B6A23F0B9
:1042800070031A430A62FFF7EBFD12498B69C3F30F
:104290000323114AD35C03F01F03D8408B6903F05A
:1042A0000F03D35C03F01F0320FA03F30B4A1360E0
:1042B0000B4B18600B4B1868FEF72EFB70BD0120EE
:1042C00070470120FAE70120F8E70120F6E700BF78
:1042D000002000520044025870F300081000002033
:1042E0000C0000200800002008B5FFF7B9FD0B4ABC
:1042F0009369C3F303230A49CB5C03F01F0320FA3D
:1043000003F3926902F00F02885C00F01F0023FAA9
:1043100000F0044A1060044A136008BD00440258CB
:1043200070F30008100000200C00002008B5FFF713
:10433000DBFF054BDB69C3F30213044AD35C03F0D4
:104340001F03D84008BD00BF0044025870F30008A6
:1043500008B5FFF7C9FF054BDB69C3F30223044A25
:10436000D35C03F01F03D84008BD00BF00440258CF
:1043700070F300083F230360114B1A6902F0070233
:1043800042609A6902F4706282609A6902F00F02D8
:10439000C2609A6902F070020261DA6902F070028A
:1043A0004261DA6902F4E06282611B6A03F0700321
:1043B000C361044B1B6803F00F030B60704700BF21
:1043C0000044025800200052404B9B6A03F0030354
:1043D000032B79D070B505460E463C4A136823F08E
:1043E0008063136002F066FD0446384B1B6813F0CF
:1043F000006F06D002F05EFD031B022BF5D90320EF
:1044000070BD324B9A6A22F47C32296842EA01324A
:104410009A626A68013AC2F30802A968013949023E
:1044200089B20A43E9680139090401F4FE010A432B
:1044300029690139090601F0FE410A439A63DA6AE3
:1044400022F0C00269690A43DA62DA6A22F02002C5
:10445000A9690A43DA62DA6A22F01002DA62D96BD9
:104460001B4A0A40E96942EAC102DA63DA6A42F0A9
:104470001002DA62C6B91A46DB6A43F40023D3623B
:10448000124A136843F08063136002F013FD044680
:104490000E4B1B6813F0006F14D102F00BFD001BD4
:1044A0000228F5D90320ABE7012E05D0074AD36ACD
:1044B00043F40013D362E3E7044AD36A43F480135E
:1044C000D362DDE700209BE70120704700440258DB
:1044D0000700FFFF404B9B6A03F00303032B79D0D7
:1044E00070B505460E463C4A136823F080531360AE
:1044F00002F0E0FC0446384B1B6813F0005F06D066
:1045000002F0D8FC031B022BF5D9032070BD324BFF
:104510009A6A22F07C72296842EA01529A626A68B9
:10452000013AC2F30802A9680139490289B20A4373
:10453000E9680139090401F4FE010A4329690139D6
:10454000090601F0FE410A431A64DA6A22F4406265
:1045500069690A43DA62DA6A22F40072A9690A43D5
:10456000DA62DA6A22F48072DA62596C1B4A0A4013
:10457000E96942EAC1025A64DA6A42F48072DA6294
:10458000C6B91A46DB6A43F48003D362124A136841
:1045900043F08053136002F08DFC04460E4B1B6801
:1045A00013F0005F14D102F085FC001B0228F5D93E
:1045B0000320ABE7012E05D0074AD36A43F080738E
:1045C000D362E3E7044AD36A43F40003D362DDE72E
:1045D00000209BE701207047004402580700FFFFBE
:1045E000F8B50446036813F0006F30D0836EB3F55E
:1045F000001F26D00ED8EBB1B3F5801F07D10221E2
:104600000830FFF7E1FE054645B12E4621E00126C0
:1046100035461EE0B3F5401F09D10025984A136DB9
:1046200023F44013A16E0B431365002611E001260D
:1046300035460EE0924AD36A43F40033D362002534
:10464000ECE702212830FFF745FF0546DCE70026AE
:104650003546236813F4807F14D0A36D042B32D821
:10466000DFE803F003232A080800854AD36A43F4ED
:104670000033D36255BB824A136D23F00703A16D4B
:104680000B431365236813F4007F31D0E36D802B57
:104690004CD020D8002B43D0402B19D1002104F15D
:1046A0000800FFF791FE05461AE0002104F108001A
:1046B000FFF78AFE0546DDE7002104F12800FFF739
:1046C00009FF0546D6E701263546DBE72E46D9E742
:1046D000012635460CE0C02B02D0B3F5807F1CD1FB
:1046E0005DBB674A136D23F4E073E16D0B43136503
:1046F000236813F4806F46D0D4F8A830B3F5800F48
:1047000039D01FD88BB3B3F5001F18D1002104F1A5
:104710000800FFF759FE05461AE001263546E7E78F
:10472000574AD36A43F40033D362D9E7002104F136
:104730002800FFF7CFFE0546D2E72E46D8E7012630
:10474000354620E0B3F5C00F02D0B3F5000F09D114
:10475000C5B94B4A936D23F46003D4F8A8100B43FA
:10476000936510E0012635460DE0454AD36A43F4CF
:104770000033D362ECE7002104F12800FFF7AAFE22
:104780000546E5E72E46236813F4006F24D0D4F8DD
:10479000AC30B3F1007F42D00ED8002B39D0B3F14A
:1047A000807F06D1002104F10800FFF70DFE0546C9
:1047B00008E0012635460FE0B3F1407F02D0B3F1A7
:1047C000806F23D1002D31D12D4A936D23F0E0630A
:1047D000D4F8AC100B439365236813F0007F2ED000
:1047E000E36C202B40D026D833B1102B20D1244AA3
:1047F000D36A43F40033D362002D3CD1204AD36CFA
:1048000023F03003E16C0B43D36418E001263546F6
:10481000E2E71B4AD36A43F40033D362D2E70021B4
:1048200004F12800FFF756FE0546CBE72E46D3E7F6
:104830000126354603E0302BDED0012635462368BD
:1048400013F4805F2DD0236EB3F5005F4FD019D8DD
:10485000002B46D0B3F5805F0FD1002104F1080092
:10486000FFF7B2FD054613E0022104F10800FFF74F
:10487000ABFD0546C0E72E46E1E70126354610E0D0
:1048800000440258B3F5405F02D0B3F5804F25D104
:10489000002D33D1774A136D23F4E043216E0B438F
:1048A0001365236813F4005F38D0636EB3F5003FDF
:1048B00053D028D843B1B3F5803F21D1012104F171
:1048C0000800FFF781FD0546002D4DD1694A136DA3
:1048D00023F4E023616E0B4313651FE00126354688
:1048E000DFE7644AD36A43F40033D362D0E70021A0
:1048F00004F12800FFF7EEFD0546C9E72E46D0E794
:10490000012635460AE0B3F5802FDDD0B3F5A02FA0
:10491000DAD0B3F5403FD7D001263546236813F4EB
:10492000804F31D0D4F8B030B3F1005F45D020D8FB
:1049300043B1B3F1805F19D1012104F10800FFF701
:1049400043FD0546002D3FD14A4A936D23F0E043D5
:10495000D4F8B0100B43936516E0012104F1280050
:10496000FFF7B8FD0546AFE72E46D7E701263546E7
:104970000AE0B3F1804FE5D0B3F1A04FE2D0B3F13C
:10498000405FDFD001263546236813F4004F09D07D
:10499000236FB3F1805F19D0B3F1005F24D0D3B19E
:1049A00001263546236813F0807F33D0A36C032B98
:1049B0005BD8DFE803F027225327012104F1280008
:1049C000FFF788FD0546BDE72E46DDE7294AD36A95
:1049D00043F40033D36275B9264A136D23F0405374
:1049E000216F0B431365DDE7012104F10800FFF798
:1049F000EBFC0546EFE72E46D4E71E4AD36A43F4A4
:104A00000033D362A5BB1B4AD36C23F00303A16C14
:104A10000B43D364236813F4800F2DD1236813F064
:104A2000010F00F0A580E36F282B00F29F80DFE8E4
:104A300003F08D9D9D9D9D9D9D9D879D9D9D9D9D13
:104A40009D9D969D9D9D9D9D9D9D8D9D9D9D9D9DAD
:104A50009D9D8D9D9D9D9D9D9D9D8D00022104F19F
:104A60000800FFF7B1FC0546CCE701263546D1E743
:104A70002E46CFE700440258914A136843F48073EE
:104A8000136002F017FA07468D4B1B6813F4807F02
:104A900005D102F00FFAC01B6428F5D90325002DBB
:104AA0004AD1884B1B6FD4F8B420534013F4407F95
:104AB0000CD0844B1A6F22F44072196F41F480318C
:104AC0001967196F21F4803119671A67D4F8B43067
:104AD000B3F5807F15D08DBBD4F8B43003F44072A9
:104AE000B2F5407F1ED0774A136923F47C531361DB
:104AF00074490B6FD4F8B420C2F30B0213430B6755
:104B00008CE702F0D7F907466E4B1B6F13F0020FCC
:104B1000E1D102F0CFF9C01B41F288339842F3D9BA
:104B20000325D8E76748026922F47C52664901EA06
:104B3000131313430361DBE72E466FE72E466DE741
:104B4000012104F10800FFF73FFC0546E5B95D4A85
:104B5000536D23F03803E16F0B43536508E00121E7
:104B600004F12800FFF7B6FC0546EFE701263546BD
:104B7000236813F0020F17D0A36F052B28D8DFE8A6
:104B800003F00B05200B0B0B2E46F1E7012104F17E
:104B90000800FFF719FC0546EDB94A4A536D23F0AA
:104BA0000703A16F0B435365236813F0040F23D051
:104BB000D4F89430052B45D8DFE803F0150F3D15E8
:104BC0001515012104F12800FFF784FC0546E3E7F1
:104BD00001263546E8E72E46E6E7012104F1080004
:104BE000FFF7F2FB054685BB364A936D23F00703BA
:104BF000D4F894100B439365236813F0200F34D03E
:104C0000D4F89030B3F1005F4ED023D843B1B3F164
:104C1000805F1CD1002104F10800FFF7D5FB054699
:104C2000002D48D1274A536D23F0E043D4F890106B
:104C30000B43536519E0012104F12800FFF74AFCFA
:104C40000546D0E701263546D6E72E46D4E70126AD
:104C500035460AE0B3F1804FE2D0B3F1A04FDFD088
:104C6000B3F1405FDCD001263546236813F0400FD6
:104C700037D0D4F89C30B3F5006F53D026D843B169
:104C8000B3F5806F19D1002104F10800FFF79CFBF8
:104C90000546002D4DD10B4A936D23F4E053D4F813
:104CA0009C100B4393651CE0022104F12800FFF7E0
:104CB00011FC0546B4E72E46D7E70126354610E03D
:104CC0000048025800440258CFFFFF00B3F5805F50
:104CD000DFD0B3F5A05FDCD0B3F5406FD9D00126AB
:104CE0003546236813F0800F33D0D4F8A030B3F5E5
:104CF000804F00F0A38021D843B1B3F5005F1AD1F3
:104D0000002104F10800FFF75FFB0546002D40F08D
:104D10009C80814A936D23F46043D4F8A0100B4328
:104D2000936516E0022104F12800FFF7D3FB054646
:104D3000AFE72E46D5E7012635460AE0B3F5004F2A
:104D4000E4D0B3F5204FE1D0B3F5C04FDED001265B
:104D50003546236813F0080F0CD0D4F88430B3F52F
:104D6000805F74D06C4A536D23F44053D4F88410A0
:104D70000B435365236813F0100F0CD0D4F8983010
:104D8000B3F5807F6CD0644A936D23F44073D4F8FC
:104D900098100B439365236813F4002F0BD0D4F8BD
:104DA000A430B3F5803F74D0B3F5003F67D0002B3B
:104DB0005FD001263546236813F4802F0CD0D4F839
:104DC0008830B3F5001F7CD0B3F5401F6FD0B3F52A
:104DD000801F67D001263546236813F4803F08D032
:104DE000236D002B76D0B3F5803F00F08180012643
:104DF0003546236813F0005F40F08380236813F486
:104E0000003F00F08E80D4F88030B3F5807F00F052
:104E1000EC8040F28380B3F5007F03D0B3F5407F90
:104E200040F0E180002D40F0E6803B4A536D23F4D2
:104E30004073D4F880100B43536572E0022104F1F3
:104E40002800FFF747FB054660E72E4681E7022171
:104E500004F12800FFF73EFB002883D0012681E7FC
:104E6000022104F12800FFF735FB00288BD0012632
:104E700089E7002104F10800FFF7A6FA05467DB98D
:104E8000254A936D23F44033D4F8A4100B43936563
:104E900091E7022104F12800FFF71CFB0546EEE72D
:104EA0002E4688E71C4AD36A43F40033D3627DB9A7
:104EB000194A536D23F44013D4F888100B435365FB
:104EC0008AE7012104F12800FFF704FB0546EEE71D
:104ED0002E4681E7104AD36A43F40033D36275B992
:104EE0000D4AD36C23F48033216D0B43D36480E7E8
:104EF000022104F10800FFF767FA0546EFE72E46A6
:104F000077E7022104F12800FFF7E4FA00283FF4D4
:104F100075AF012672E700BF00440258002B81D014
:104F20000126236813F4801F06D04F4A136D23F027
:104F30000043616F0B431365236813F0805F07D054
:104F4000494A136923F48043D4F8B8100B43136122
:104F5000236813F4001F06D0434A136D23F08073B7
:104F6000E16E0B431365236813F0804F09D03E4B6D
:104F70001A6922F400421A611A69D4F8BC100A4373
:104F80001A612368002B06DA374AD36C23F04053AA
:104F9000616D0B43D364236813F4000F07D0324ACA
:104FA000536D23F44003D4F88C100B4353656368AE
:104FB00013F0010F21D1636813F0020F26D163684B
:104FC00013F0040F2BD1636813F0080F30D163681E
:104FD00013F0100F35D1636813F0200F3AD106B1EA
:104FE00001263046F8BD01269BE71F4AD36A43F4E9
:104FF0000033D36216E72E4693E7002104F1080040
:10500000FFF7E2F90028D6D00646D4E7012104F1E3
:105010000800FFF7D9F90028D1D00646CFE70221D2
:1050200004F10800FFF7D0F90028CCD00646CAE703
:10503000002104F12800FFF74DFA0028C7D00646EA
:10504000C5E7012104F12800FFF744FA0028C2D087
:105050000646C0E7022104F12800FFF73BFA0028CA
:10506000BDD00646BBE700BF0044025808B5FFF7B5
:105070003BF9054B1B6AC3F30213044AD35C03F0EC
:105080001F03D84008BD00BF0044025870F3000859
:1050900010B5774A916A946AC4F3053ED36AC3F3A4
:1050A000001CD36BC3F3CC030CFB03F314F47C3F61
:1050B00000F0D88001F0030107EE903AF8EE677A2D
:1050C000012965D0022900F0B080E1B107EE10EAB5
:1050D000B8EE477A9FED676AC6EE076A644B9B6B32
:1050E000C3F3080307EE103AB8EE477A9FED626A01
:1050F00067EE867A77EE277AB7EE007A77EE877AD0
:1051000066EEA76A60E0136813F0200F23D0114603
:105110001268C2F3C102594BD34007EE103AB8EE01
:10512000477A06EE90EAB8EE666AC7EE066A8B6BBF
:10513000C3F3080307EE103AB8EE477A9FED4E6AC4
:1051400067EE867A77EE277AB7EE007A77EE877A7F
:1051500066EEA76A38E007EE10EAB8EE477A9FEDF0
:10516000486AC6EE076A424B9B6BC3F3080307EE1F
:10517000103AB8EE477A9FED406A67EE867A77EE8E
:10518000277AB7EE007A77EE877A66EEA76A1BE099
:1051900007EE10EAB8EE477A9FED366AC6EE076A68
:1051A000334B9B6BC3F3080307EE103AB8EE477A14
:1051B0009FED316A67EE867A77EE277AB7EE007A4E
:1051C00077EE877A66EEA76A294A936BC3F3462384
:1051D00007EE103AB8EE477AB7EE006A37EE067A75
:1051E000C6EE877AFCEEE77AC0ED007A936BC3F3E4
:1051F000064307EE103AB8EE477A37EE067AC6EE67
:10520000877AFCEEE77AC0ED017A936BC3F306630D
:1052100007EE903AF8EE677A77EE867A86EEA77A0E
:10522000BCEEC77A80ED027A10BD07EE10EAB8EE48
:10523000477A9FED146AC6EE076A0D4B9B6BC3F36A
:10524000080307EE103AB8EE477A9FED0B6A67EE57
:10525000867A77EE277AB7EE007A77EE877A66EE6F
:10526000A76AB1E70023036043608360DCE700BF07
:10527000004402580024744A000000390090D00312
:105280000024744C20BCBE4B10B5774A916A946AD6
:10529000C4F3055ED36AC3F3002C536CC3F3CC0391
:1052A0000CFB03F314F07C7F00F0D88001F00301C5
:1052B00007EE903AF8EE677A012965D0022900F0EE
:1052C000B080E1B107EE10EAB8EE477A9FED676A69
:1052D000C6EE076A644B1B6CC3F3080307EE103A73
:1052E000B8EE477A9FED626A67EE867A77EE277AA4
:1052F000B7EE007A77EE877A66EEA76A60E0136809
:1053000013F0200F23D011461268C2F3C102594B8B
:10531000D34007EE103AB8EE477A06EE90EAB8EEC0
:10532000666AC7EE066A0B6CC3F3080307EE103A11
:10533000B8EE477A9FED4E6A67EE867A77EE277A67
:10534000B7EE007A77EE877A66EEA76A38E007EE66
:1053500010EAB8EE477A9FED486AC6EE076A424BFC
:105360001B6CC3F3080307EE103AB8EE477A9FEDC3
:10537000406A67EE867A77EE277AB7EE007A77EEA4
:10538000877A66EEA76A1BE007EE10EAB8EE477A66
:105390009FED366AC6EE076A334B1B6CC3F30803F6
:1053A00007EE103AB8EE477A9FED316A67EE867ADB
:1053B00077EE277AB7EE007A77EE877A66EEA76AFD
:1053C000294A136CC3F3462307EE103AB8EE477A26
:1053D000B7EE006A37EE067AC6EE877AFCEEE77A19
:1053E000C0ED007A136CC3F3064307EE103AB8EE33
:1053F000477A37EE067AC6EE877AFCEEE77AC0ED9A
:10540000017A136CC3F3066307EE903AF8EE677AFD
:1054100077EE867A86EEA77ABCEEC77A80ED027ABE
:1054200010BD07EE10EAB8EE477A9FED146AC6EE9B
:10543000076A0D4B1B6CC3F3080307EE103AB8EE76
:10544000477A9FED0B6A67EE867A77EE277AB7EE9A
:10545000007A77EE877A66EEA76AB1E700230360E9
:1054600043608360DCE700BF004402580024744AB4
:10547000000000390090D0030024744C20BCBE4BC7
:10548000F0B583B000236BE085685E000324B44070
:1054900025EA0405CC68B4402C438460446824EABF
:1054A0000C0C4C68C4F300149C4044EA0C044460A7
:1054B00068E0DD08083550F8256003F007044FEA7E
:1054C000840C0F2404FA0CF426EA040E0C6904FA86
:1054D0000CF444EA0E0440F825406BE0092400E097
:1054E000002404FA0EF42C430CF1020C694D45F82B
:1054F0002C404FF0B0442568D44325EA02064F689B
:1055000017F4801F01D042EA05064FF0B0452E6027
:105510006D6804EA05064F6817F4001F01D042EADF
:1055200005064FF0B0456E60D5F8845004EA0506D4
:105530004F6817F4003F01D042EA05064FF0B0452E
:10554000C5F88460D5F880502C404E6816F4803F32
:1055500001D042EA05044FF0B042C2F88040013366
:105560000A6832FA03F400F092804FF0010C0CFA52
:1055700003FC1CEA0202F2D04C6804F00304013C74
:10558000012C81D94C6804F00304032C0CD0C468AE
:105590005D004FF0030C0CFA05FC24EA0C0C8C683F
:1055A000AC4044EA0C04C4604C6804F00304022CD0
:1055B0003FF47FAF04684FEA430E4FF0030C0CFA40
:1055C0000EFC24EA0C0C4C6804F0030404FA0EF4FC
:1055D00044EA0C0404604C6814F4403FBFD02E4CE5
:1055E000D4F8F45045F00205C4F8F450D4F8F4406F
:1055F00004F002040194019C4FEA930C0CF10205A3
:10560000244C54F8255003F003044FEA840E0F2471
:1056100004FA0EF425EA0405204CA0423FF460AFE2
:1056200004F58064A04222D004F58064A04220D01A
:1056300004F58064A0421ED004F58064A0421CD012
:1056400004F58064A0421AD004F58064A04218D00A
:1056500004F58064A04216D004F58064A04214D002
:1056600004F58064A0423FF439AF0A2439E70124ED
:1056700037E7022435E7032433E7042431E7052420
:105680002FE706242DE707242BE7082429E703B09A
:10569000F0BD00BF0004005800440258000002584A
:1056A000F0B4876D0468664E664DAC4218BFB442D4
:1056B00042D01835AC423FD01835AC423CD01835FA
:1056C000AC4239D01835AC4236D01835AC4233D064
:1056D0001835AC4230D005F55675AC422CD0183593
:1056E000AC4229D01835AC4226D01835AC4223D074
:1056F0001835AC4220D01835AC421DD01835AC421C
:105700001AD01835AC4217D04F4DAC4214D01435D6
:10571000AC4211D01435AC420ED01435AC420BD093
:105720001435AC4208D01435AC4205D01435AC4227
:1057300002D01435AC4207D1446E856E6560C46EEC
:1057400014B1046F456F656004683D4E3D4DAC4239
:1057500018BFB44252D01835AC424FD01835AC42C5
:105760004CD01835AC4249D01835AC4246D018352B
:10577000AC4243D01835AC4240D005F55675AC422A
:105780003CD01835AC4239D01835AC4236D018353B
:10579000AC4233D01835AC4230D01835AC422DD0A5
:1057A0001835AC422AD01835AC4227D0264E274DAA
:1057B000AC4218BFB44211D0254DAC420ED01435C6
:1057C000AC420BD01435AC4208D01435AC4205D0F5
:1057D0001435AC4202D01435AC4224D1C46D04F06F
:1057E0001F050124AC407C60046863608368402B23
:1057F00020D0036899600368DA6014E0C46D04F097
:105800001F0C3F2404FA0CF4BC6005682C6824F4D7
:1058100080242C60046863608368402B05D0036893
:1058200099600368DA60F0BC704703689A600368A7
:10583000D960F8E703689A600368D960F3E700BFAE
:105840001000024028000240085402581C5402581C
:105850003054025803682749274A934218BF8B42A5
:105860002FD0183293422CD01832934229D01832BC
:10587000934226D01832934223D01832934220D03C
:10588000183293421DD002F55672934219D0183245
:10589000934216D01832934213D01832934210D04C
:1058A000183293420DD0183293420AD018329342E4
:1058B00007D01832934204D023F0FF038365806D34
:1058C000704710B4D9B210390C4AA2FB0142C2F39E
:1058D00002120B4CA25CC2655F2907D9094A1A4023
:1058E00004328265806D5DF8044B7047054A1A40AA
:1058F0008265F7E71000024028000240ABAAAAAA7E
:1059000068F3000800FCFFFF83699BB9836A012BE1
:105910000AD0022B02D00BB100207047C36A13F0EB
:10592000807F2AD100207047C36AB3F1C07F26D0A0
:1059300000207047B3F5005F0AD0836A022B26D996
:10594000032B26D1C36A13F0807F24D10020704737
:10595000836A032B03D8DFE803F01404140A002041
:105960007047C36A13F0807F0DD100207047C36A6F
:10597000B3F1C07F09D0002070470120704701209B
:1059800070470120704701207047012070470120B7
:1059900070470020704701207047000003682249CB
:1059A000224A934218BF8B4228D01432934225D00A
:1059B0001432934222D0143293421FD014329342B5
:1059C0001CD01432934219D01432934216D0DAB25A
:1059D000103A1749A1FB0212120916491944A829C5
:1059E0001FD9154B13449B000366144B436602F00A
:1059F0001F02012303FA02F282667047DBB2083B02
:105A00000F4AA2FB03230F4A02EB13129200026615
:105A10000D4A4266C3F30413012202FA03F38366BC
:105A200070470832DDE700BF085402581C54025882
:105A3000ABAAAAAAF0FBFDBF0082001080080240BA
:105A4000CDCCCCCC009600168058025801794A1E65
:105A5000072A2CD830B40368154D164CA34218BF42
:105A6000AB4218D01434A34215D01434A34212D040
:105A70001434A3420FD01434A3420CD01434A342E4
:105A800009D01434A34206D00B4B0B449B00C366D1
:105A90000A4B036705E00A4B0B449B00C366094BA6
:105AA0000367012303FA02F2426730BC7047704774
:105AB000085402581C5402583F820010400902400A
:105AC0003F9600164059025870B5044601F0F2F9AD
:105AD000002C00F0B681054623685349534A93428F
