:020000040800F2
:10000000000002201D030108E17B0008E37B0008DB
:10001000E57B0008E77B0008E97B000800000000A2
:100020000000000000000000000000005100010876
:10003000EB7B000800000000F1000108E3FB000872
:100040006D0301086D0301086D0301086D030108CC
:100050006D0301086D0301086D0301086D030108BC
:100060006D0301086D0301086D030108ED7B0008B5
:10007000FD7B00086D0301086D0301086D03010895
:100080006D0301086D0301086D0301086D0301088C
:100090006D0301086D0301086D0301086D0301087C
:1000A0006D0301080D7C00086D0301086D03010854
:1000B0006D0301086D0301086D0301086D0301085C
:1000C0006D0301086D0301086D0301086D0301084C
:1000D0006D0301081D7C00086D0301086D03010814
:1000E0006D0301086D030108000000006D030108A5
:1000F0006D0301086D0301086D0301086D0301081C
:100100006D0301086D0301086D0301086D0301080B
:100110006D0301086D0301086D0301086D030108FB
:100120006D0301086D0301086D0301086D030108EB
:100130006D0301086D0301086D0301086D030108DB
:1001400000000000000000000000000000000000AF
:100150006D0301086D0301086D0301086D030108BB
:100160006D0301086D0301086D0301086D030108AB
:100170006D0301086D0301086D0301080000000014
:100180006D0301086D0301086D0301086D0301088B
:100190006D0301086D0301086D0301086D0301087B
:1001A0006D0301086D0301086D0301086D0301086B
:1001B0006D0301086D0301086D0301086D0301085B
:1001C0006D0301086D0301086D0301086D0301084B
:1001D0006D0301086D0301086D0301086D0301083B
:1001E0006D0301086D0301086D0301086D0301082B
:1001F0006D0301086D0301086D0301086D0301081B
:100200006D0301086D0301086D0301086D0301080A
:100210006D0301086D0301086D0301086D030108FA
:100220006D0301086D0301086D0301080000000063
:100230006D0301086D030108000000006D03010853
:100240006D0301086D0301086D0301086D030108CA
:100250006D0301086D0301086D0301086D030108BA
:100260006D0301086D0301086D0301086D030108AA
:100270006D0301086D0301086D0301080000000013
:100280006D0301086D0301086D0301080000000003
:08029000000000006D030108ED
:1002C0000348044B834202D0034B03B118477047E5
:1002D000EC010020EC010020000000000548064968
:1002E0000B1AD90F01EBA301491002D0034B03B144
:1002F00018477047EC010020EC01002000000000CE
:1003000010B5064C237843B9FFF7DAFF044B13B15D
:100310000448AFF300800123237010BDEC010020DE
:10032000000000007003010808B5044B1BB104492C
:100330000448AFF30080BDE80840CFE700000000AC
:10034000F001002070030108014B1868704700BFDE
:100350000000002070B50D4E0D4D761BB61006D076
:10036000002455F8043B01349847A642F9D1094EC0
:10037000094D761B0FF0FCFFB61006D0002455F88F
:10038000043B01349847A642F9D170BD4C0B0108DB
:100390004C0B0108500B01084C0B0108844641EA44
:1003A000000313F003036DD1403A41D351F8043BED
:1003B00040F8043B51F8043B40F8043B51F8043B3F
:1003C00040F8043B51F8043B40F8043B51F8043B2F
:1003D00040F8043B51F8043B40F8043B51F8043B1F
:1003E00040F8043B51F8043B40F8043B51F8043B0F
:1003F00040F8043B51F8043B40F8043B51F8043BFF
:1004000040F8043B51F8043B40F8043B51F8043BEE
:1004100040F8043B51F8043B40F8043B51F8043BDE
:1004200040F8043B51F8043B40F8043B403ABDD24D
:10043000303211D351F8043B40F8043B51F8043BEF
:1004400040F8043B51F8043B40F8043B51F8043BAE
:1004500040F8043B103AEDD20C3205D351F8043B7E
:1004600040F8043B043AF9D2043208D0D2071CBF4A
:1004700011F8013B00F8013B01D30B880380604673
:10048000704700BF082A13D38B078DD010F00303E9
:100490008AD0C3F10403D21ADB071CBF11F8013B59
:1004A00000F8013B80D331F8023B20F8023B7BE7A8
:1004B000043AD9D3013A11F8013B00F8013BF9D2D3
:1004C0000B7803704B7843708B788370604670476D
:1004D000830730B548D0541E002A3FD0CAB2034625
:1004E00001E0013C3AD303F8012B9D07F9D1032C1D
:1004F0002DD9CDB245EA05250F2C45EA054536D95B
:10050000A4F1100222F00F0C03F1200EE6444FEA92
:10051000121C03F1100242E9045542E9025510325F
:100520007245F8D10CF1010214F00C0F03EB02122A
:1005300004F00F0C13D0ACF1040323F003030433D5
:10054000134442F8045B9342FBD10CF003042CB13A
:10055000CAB21C4403F8012B9C42FBD130BD644657
:100560001346002CF4D1F9E703461446BFE71A46B8
:10057000A446E0E700000000F0B52DED028BB0EEE0
:10058000408B85B0154618EE902A0D9E0C9F002AD0
:10059000B6BF2D220022B1EE408B662E0C461A709B
:1005A00016D0462E14D026F02003452B2FD0B0EEC7
:1005B000480B03AA019202AA00923B460A46022176
:1005C00001F0C2F9672E2ED1EB072ED4039B17E062
:1005D00003AB019302AB009322463B460321B0EEEE
:1005E000480B01F0B1F90378302B00EB040C30D04C
:1005F0003968B5EE408BF1EE10FA61441CD10B4620
:100600000E9A1B1A136005B0BDEC028BF0BD03AA55
:100610000134019202AA00923B4622460221B0EE2A
:10062000480B01F091F9472ECED0B5EE408BF1EE9C
:1006300010FA00EB0401E2D0039B9942E0D94FF09D
:10064000300C5A1C039283F800C0039B8B42F8D3F2
:10065000D6E7B5EE408BF1EE10FAC9D0C4F1010136
:100660003960C6E7F0B5002983B002703FDB841C17
:100670002B230929437030DD0DF107051F4FAC46D0
:1006800087FB0132CB17C3EBA20303EB8302A1EB81
:1006900042020E463032632EE6460CF8012C194613
:1006A0000CF1FF3CECDC3031AEF10203C9B29D42EB
:1006B0000CF8011C1FD96346224601E013F8011B08
:1006C00002F8011BAB42F9D10DF10903A3EB0E0EA9
:1006D000A644AEEB000003B0F0BD3023A64619449B
:1006E0000EF8023B6170AEEB000003B0F0BD494272
:1006F000841C2D23BDE7A646F5E700BF6766666646
:100700002DE9F04F8BB00C46DDF850A016461F4681
:10071000054601F0ABFFD0F80080404601F010F82C
:1007200000230893DAF800300490073323F007031E
:1007300093ED000B9FEDAA7BB0EEC06B0833B4EED7
:10074000476BF1EE10FA226894F81890CAF800305E
:1007500084ED120B00F38980B4EE400BF1EE10FA39
:1007600080F12F8261684B1C2BD0B9F1670F64D0E8
:10077000B9F1470F61D042F48062002322600393F5
:1007800008AB029307AB0093CDF804900DF11B0367
:100790002846FFF7F1FE8346B9F1650F079932D875
:1007A00001394A4604F150000791FFF75BFF089AB0
:1007B0001318012A8246236140F37A8101332361B1
:1007C00033E00621616042F48062002322600393DB
:1007D00008AB029307AB0093CDF804900DF11B0317
:1007E0002846FFF7C9FE09F0DF03472B8346D3D124
:1007F0000799C81C80F2EC80A9F102095FFA89F917
:10080000B9F1650FCCD9B9F1660F00F0F380089B00
:100810008B4240F3FA800029D4BFC1F102020122C9
:1008200013442361A1654FF0000A9DF81B30002B93
:1008300031D02D2384F843302DE0002900F02181B0
:1008400042F4806200232260039308AB029307AB5B
:100850000093CDF804900DF11B032846FFF78CFEA2
:1008600007998346C81CC7DBB2E0B5EEC00BF1EEBA
:1008700010FA02D52D2384F843305B4B5B4822F0FD
:100880000402B9F1470F94BF9B46834603232260BD
:1008900023614FF0000A0097334609AA21462846F3
:1008A00000F0B0F9013025D0236858052DD4236914
:1008B0005A4631462846B84701301BD02368E068C5
:1008C00013F0020F099B1AD0C21A002A17DD04F197
:1008D00019094FF0000804E0E068099BC21A42457C
:1008E0000DDD01234A4631462846B847013008F15C
:1008F0000108F1D14FF0FF300BB0BDE8F08F984206
:10090000B8BF18460BB0BDE8F08FB9F1650F30D90C
:1009100094ED127BB5EE407BF1EE10FA7DD1344AB6
:10092000012331462846B8470130E3D0DDE90723EB
:100930009A4202DB2368D907C1D5049B424631465F
:100940002846B8470130D5D0089B012BB6DD04F10D
:100950001A094FF0000803E0089B013B4345ADDD59
:1009600001234A46314628469844B8470130F3D11E
:10097000C0E7089A012A40F3878001235A4631468E
:100980002846B8470130B5D0049B42463146284638
:10099000B8470130AED094ED127BB5EE407BF1EE5E
:1009A00010FA40F08080089B012B78DD04F11A09D1
:1009B0004FF0000803E0089B013B43456FDD012336
:1009C0004A46314628469844B8470130F3D191E76A
:1009D000636899423FF710AF4FF0670917E700BF10
:1009E000FFFFFFFFFFFFEF7F000A0108040A010875
:1009F000100A0108002960DD63682161002B00F006
:100A00008D8001330B4423610CE723682161DB07F0
:100A10007FF508AF4B1C236104E7079B002B54DDD7
:100A2000089BD4F858A05345A8BF5346002B9946BD
:100A300008DD5A4631462846B84701303FF45AAFE0
:100A4000D4F858A029EAE9731946AAEB0303002B4E
:100A500074DD04F11A02CDF814B04FF00009A3467A
:100A600092460C4604E0DBF858301A1B4A4561DD1B
:100A700001235246314628469944B8470130F2D105
:100A800038E7012161609EE6DB073FF576AF5A4605
:100A9000012331462846B84701303FF42BAF534677
:100AA00004F1500205E7089B0BF10102013BF0E75E
:100AB0002268D2077FF5B9AE80E66368002B32D199
:100AC0002268D2072FD40123ABE64B4A01233146DB
:100AD0002846B84701303FF40DAFDDE90723134343
:100AE00023D0049B424631462846B84701303FF4A4
:100AF00001AF079B002B7BDA04F11A094FF00008C5
:100B000003E0079B5B42434572DD01234A463146C1
:100B100028469844B8470130F3D1EBE62268D00765
:100B20007FF580AE6DE702337BE62368DA077FF559
:100B3000C6AED6E75C46DDF814B09A46DDE907217B
:100B40008A4202DB2368D80709D5049B4246314616
:100B50002846B84701303FF4CDAEDDE90721A1EBCF
:100B60000A098A1A9145A8BF9146B9F1000F0BDD19
:100B70000BEB0A024B4631462846B84701303FF49A
:100B8000B9AEDDE90732D21A29EAE979A2EB090305
:100B9000002B7FF793AE04F11A0A4FF0000807E02C
:100BA000DDE907239B1AA3EB090343457FF786AED4
:100BB00001235246314628469844B8470130EFD1C8
:100BC00098E610EE903A002BB8BF2D2322F00402D5
:100BD000B8BF84F843302260084B094AB9F1470F87
:100BE00094BF93469B46032323614FF0000A52E6CD
:100BF000089B5A465DE600BF100A01080C0A01086E
:100C0000080A01082DE9F84F92461F460A698B68C9
:100C1000DDF828909A42B8BF1A46CAF8002091F829
:100C200043300C46064613B10132CAF80020226850
:100C300091065DD5DAF800300233CAF80030226838
:100C400012F0060F11461ED1E168CB1A002BD8BF57
:100C5000114618DD04F1190B4FF0000805E0E568B6
:100C6000DAF80030ED1A45450CDD01235A463946C5
:100C70003046C847013008F10108F0D14FF0FF308D
:100C8000BDE8F88F216894F84330003B18BF01237A
:100C90008A060AD5E1185A1C302081F84300224404
:100CA00094F8451082F84310023304F143023946A8
:100CB0003046C8470130E1D0236803F00603042B17
:100CC0001DD0A3682269934225DD4FF000089B1ACE
:100CD00098441A34002501E045451CDA01232246D8
:100CE00039463046C847013005F10105F4D1C5E762
:100CF00012F0060F12D0003B18BF0123D5E7DAF837
:100D00000030E1682269C91AA368934221EAE178B8
:100D1000DDDC0029DDDC0020BDE8F88FE168DAF8D1
:100D20000030CB1A002BD8BF114693DCABE700BFD5
:100D30002DE9F0470C4684B09046227E0C99074678
:100D4000994604F14300002A33D0A2F15803DDB2E2
:100D5000202D67D8202B65D8DFE813F0DE00640073
:100D60006400640064006400640064006400640063
:100D70006400A3006E0064006400640064006E0000
:100D8000640064006400640021007F00C00064000F
:100D90006400AE0064007F0064006400E500236826
:100DA0001A0640F104810B6862691D1D0D601B6805
:100DB0001A60002382462361CDF80090434603AABF
:100DC00021463846FFF71EFF013020D023695246E6
:100DD00041463846C847013019D02368E068039E71
:100DE0009B0719D5831B002B16DD04F1190A00257A
:100DF00004E0E068039E831BAB420DDD01235246F5
:100E000041463846C847013005F10105F1D14FF0A0
:100E1000FF3004B0BDE8F087B042B8BF304604B040
:100E2000BDE8F087012384F84220236104F1420ADF
:100E3000002384F84330BFE723681A0602D45E0615
:100E400000F1C1800D682A6804350D601546002A3E
:100E50006BDBDFF884C10A2610E023681D0640F131
:100E60009C800B681D1D0D601D68DFF86CC16F2A2A
:100E70000CBF08260A26002384F843306268A2606B
:100E8000002A7FDB236823F004032360002D5BD15D
:100E9000002A79D18246082E65D0A0EB0A00206195
:100EA0008AE70B680122186804330B6004F1420AD8
:100EB00084F842002261BBE70B686268181D086075
:100EC000D3F800A00021504601F0EAFB002800F012
:100ED0008180A0EB0A0060602061A9E7236843F0ED
:100EE000200323607822DFF8F4C084F845200A68E4
:100EF000151D0D601D0643D4590641D51588DE0722
:100F000044BF43F020032360002D44D1236823F025
:100F1000200323601026AEE7582384F84530DFF81D
:100F2000B8C02368E3E72368DCE76268A2602D218C
:100F3000002AC5F1000584F8431002DB23F0040306
:100F40002360DFF894C00A268246B5FBF6F306FB61
:100F500013512A461CF801100AF8011DB2421D4621
:100F6000F3D2082E99D12368D90796D562682369F0
:100F70009A4292DC30230AF8013C0AF1FF3A8CE7EE
:100F80001568BCE7002DDFD19CF8003084F84230B2
:100F900004F1420A7FE710266DE713F0400F0B685B
:100FA00003F104050D600CBF1D681D885DE713F09B
:100FB000400F0B68626903F104050D601B6814BFE4
:100FC0001A801A60F5E60A68B2F9005004320A6025
:100FD0002A463CE760687FE7140A0108280A0108EE
:100FE0002DE9F04F9BB08346019210464BEA020276
:100FF0009A469307049140F0B182B0F1040918BFFA
:101000004FF00109019B9A0802925B0000220592B1
:1010100007934F465646049B062B40F2DB80049B09
:10102000019A4FEA5308072B02FB08B800F0DB8156
:10103000049A0199531E282A01FB03BA00F20E827A
:1010400054465D4641462846B04700282146404662
:10105000C0F2F881B047002854DD002F5BD1019B1E
:10106000DBF80020D8F80010CBF800105B44C8F87B
:1010700000200893089B0993534562D8019A069370
:101080001C46002355465946C2F10009D3469A46EC
:1010900020460391B04700280399A04640F34E81B3
:1010A000A345C0F0EE80A846039455468A460DE05D
:1010B000DBF80010D8F80030CBF80030C8F800108A
:1010C000C8440125CB44A345C0F09B8251465846F5
:1010D000B0470028C0F2C080F4D1002FE8D0012F23
:1010E00000F00E81019A41465B460BEB020C08783A
:1010F0001A7803F8010B01F8012BACEB0302002A6C
:10110000F5DCDDE721462846B04715EA200838BF60
:10111000A046002FA3D0012F00F01082019B0BEB03
:1011200003005A46089098F80010137802F8011B43
:1011300008F8013B831A002BF5DC089B0993534503
:101140009CD9049A019B03FB02B4089A944231D9BA
:10115000DDF824805D42C34528D2C24609E0D9F8B3
:101160000030DAF80020C9F80020CAF80030DA456B
:101170001CD9D146AA4449465046B047002815DD3F
:10118000002FECD0012F00F0FA80079A53460AEBAB
:101190000200197899F8002009F8011B03F8012BC7
:1011A000A0EB0902002AF4DCDA45E2D8019B98445E
:1011B0004445D0D8059B002B4BD0059B1AAA013B78
:1011C000059302EBC30353E910B30493049B062B6E
:1011D0003FF625AF019B049A0BEB030503FB02B816
:1011E000A845E7D9DDF81C90CDF80C805C42AB45F2
:1011F00027D2AA4609E0D8F80030DAF80020C8F86B
:101200000020CAF80030DA451BD9D046A244414636
:101210005046B047002814DD002FECD0012F00F01D
:10122000BB8053460AEB0900197898F8002008F8AB
:10123000011B03F8012BA0EB0802002AF4DCDA45BD
:10124000E3D8019B1D44039BAB42D0D8059B002BE8
:10125000B3D11BB0BDE8F08F45465146DDF80C8098
:10126000002F5AD1019B2268DBF800002060CBF8E8
:1012700000201C44CB44A0464FF0010AA345BFF414
:1012800007AF5246DA468B46002A3FF45AAF049B1A
:10129000019A02FB03B4069BA8EB0309A3EB0B0224
:1012A0004A45A8BF4A46002A40F0A2800199621B25
:1012B000A5EB0A03521A9A4228BF1A46002A40F0A8
:1012C0001B8199454D46A4EB030004D25A461D46A6
:1012D00083464B461046019A93426AD905990729DD
:1012E00000F2FB80B3FBF2F3B5FBF2F504931AAB0B
:1012F00003EBC10343E910B54B1C059383468AE613
:10130000029945465846013903682A6840F8042B7B
:10131000002945F8043BF6DCD2E6012F1FD0019BE3
:101320005A461C44107898F8003008F8010B02F86F
:10133000013BA4EB0803002BF4DC9BE70BD1002F4F
:1013400040D1069B20681A6818602260019A98189C
:1013500006904FF0010A019B1C44A0468EE7029ABA
:10136000DC46013AD8F80030DCF8000048F8040BFD
:10137000002A4CF8043BF4DC019B1C447AE7029BF6
:101380005146013BD9F80020086849F8040B002BAE
:1013900041F8042BF5DCEAE6029B5146013BD8F804
:1013A0000020086848F8040B002B41F8042BF5DCFA
:1013B00029E7019B9D427FF6FDAE019BB5FBF3F350
:1013C000049328E6012F00F0A780069A019BD0180D
:1013D00098F800C0137802F801CB08F8013B831A93
:1013E000002BF5DCB4E7079B13440BEB430A34E610
:1013F000022FA8EB020140F0C5805A44584691F8EC
:1014000000C0037800F801CB01F8013B131A002B50
:10141000F5DC0199621BA5EB0A03521A9A4228BF18
:101420001A46002A3FF44DAFA01A4244057898F8B6
:10143000001008F8015B00F8011BA2EB080100296D
:10144000F4DC3EE7B0470028FFF607AE2146284609
:10145000B04714EA200838BFA846FEE5D40801FBCF
:1014600004F30BEB0305294658461C460393B0478B
:101470004FEA440900280BEB440421462846C0F2F9
:101480009B80B047002875DD039BA8EB0304414611
:101490002046B047039B002808EB03010691404615
:1014A000C0F2A280B04700285BDD039CAAEB0909CB
:1014B0004C4421464846B047002851462046C0F2D9
:1014C0008780B04700283FF7BDAD51464846B0473A
:1014D00019EA200438BF5446B4E5019CB3FBF4F18B
:1014E00022463346FFF77CFDA5427FF666AE019BA0
:1014F000B5FBF3F304938EE5022FA4EB020094D026
:101500009208013AD8F80010056848F8045B002AF0
:1015100040F8041BF5DCD4E6DDF818C0029ADCF8CC
:101520000030D8F800004CF8040B013A002A48F8C3
:10153000043BF4DC0698019B184409E7029A5846DC
:10154000013A0368D8F8001040F8041B002A48F854
:10155000043BF5DC019B5B4408938BE54FF00209EB
:1015600050E506992046B047069914EA200838BF8E
:1015700088469AE721465846B0471BEA200538BFFF
:10158000254681E792085846A446013A03680C684C
:1015900040F8044B002A41F8043BF6DC019964460C
:1015A000621BA5EB0A03521A9A4228BF1A46002A68
:1015B0003FF487AEA01AA3E7B0470028FFF664AF58
:1015C00021465846B04714EA200538BF5D465BE720
:1015D000B0470028FFF636AD51464846B0471AEAF4
:1015E000200438BF4C462DE5B0470028FFF65DAF1C
:1015F00006992046B047069911EA200838BFA04650
:1016000053E753462A46DA4645469B46DDF80C80AA
:101610003AE600BF08B410B5002A9DB0044633DB9B
:101620004FF40273ADF814300291069120AB17D03D
:10163000013A4FF6FF7104920792ADF816101F9A07
:10164000019302A901F092FF421C01DA8B2323606F
:10165000029B00221A701DB0BDE8104001B0704717
:101660004FF6FF7104920792ADF816101F9A01937E
:1016700002A901F07BFF431C01DA8B2323601DB01C
:10168000BDE8104001B070478B2303604FF0FF307E
:10169000F5E700BF0CB410B51F4B00291C689CB0C7
:1016A00035DB4FF40273ADF81430029006901FAB97
:1016B00018D001394FF6FF7204910791ADF816204A
:1016C00002A91E9A0193204601F050FF421C01DA44
:1016D0008B232360029B00221A701CB0BDE81040CF
:1016E00002B070474FF6FF7204910791ADF81620D3
:1016F00002A91E9A0193204601F038FF431C01DA2B
:101700008B2323601CB0BDE8104002B070478B23D0
:1017100023604FF0FF30F5E70000002000000000DC
:1017200000000000000000000000000000000000B9
:1017300000000000000000000000000000000000A9
:1017400090F800F06DE9024520F007016FF0000C01
:1017500010F0070491F820F040F049804FF00004A9
:101760006FF00700D1E9002391F840F000F1080084
:1017700082FA4CF2A4FA8CF283FA4CF3A2FA8CF3BC
:101780004BBBD1E9022382FA4CF200F10800A4FA23
:101790008CF283FA4CF3A2FA8CF3E3B9D1E9042377
:1017A00082FA4CF200F10800A4FA8CF283FA4CF3AE
:1017B000A2FA8CF37BB9D1E9062301F1200182FA68
:1017C0004CF200F10800A4FA8CF283FA4CF3A2FA6E
:1017D0008CF3002BC6D0002A04BF04301A4612BA7C
:1017E000B2FA82F2FDE8024500EBD2007047D1E97F
:1017F000002304F00305C4F100004FEAC50514F00E
:10180000040F91F840F00CFA05F562EA05021CBFDE
:1018100063EA050362464FF00004A9E700000000F8
:101820002DE9F04F03690C69A34283B0C0F28780B1
:10183000013C01F11405A30000F11408009355F8D0
:10184000243058F82420013381469A4208EB840062
:1018500005EB84070190B2FBF3F63BD30023AE46C1
:1018600040469B465EF804AB02681FFA8AFC06FB02
:101870000C334FEA134C4FEA1A4A06FB0ACA1FFA06
:1018800083FCABEB0C0C1FFA8AF31CFA82FCC3EB53
:10189000124202EB2C421FFA8CFC4CEA02437745C1
:1018A00040F8043B4FEA224B4FEA1A43DAD2009B3E
:1018B00058F8033073B9019B043B984504D307E003
:1018C000984504F1FF3403D253F80429002AF7D0D5
:1018D000C9F81040484601F03BFA00282BDB0136DE
:1018E0004046002355F8041BD0F800C08AB29A1A6B
:1018F0000B0C12FA8CF2C3EB1C4303EB224392B2A3
:1019000042EA0342AF4240F8042B4FEA2343E9D2B4
:1019100058F8242008EB84036AB9043B984504D3A3
:1019200007E0984504F1FF3403D253F80429002A54
:10193000F7D0C9F81040304603B0BDE8F08F002062
:1019400003B0BDE8F08F00BF2DE9F04F2DED028B05
:10195000446A8FB08DED020B57EC106B0546019178
:1019600007920593002C00F07182216849B16268EA
:101970004A60012393408B6000F022FF6B6A0022D3
:101980001A60B7F100081A9AB4BF0123002313604C
:10199000C14BBCBF28F00048CDF80C8033EA0803E7
:1019A00000F0A2809DED028BB5EE408BF1EE10FAB7
:1019B00010D1059A012313601B9B002B00F053826A
:1019C000B6481860431E009300980FB0BDEC028B20
:1019D000BDE8F08F0CAA0DA92846B0EE480B01F027
:1019E0000FFB5FEA1853044640F09680DDE90C13C4
:1019F0000B4403F23242202A40F31C83C2F140021E
:101A000008FA02F803F21242D64048EA060207EE4C
:101A1000102AB8EE477B581E17EE906A01230A93EE
:101A200053EC172BA6F1F8739FED953B9FED967B3A
:101A30009FED975B06EE900A43EC122BB8EEE64B57
:101A4000B7EE086B32EE466BA6EE037BA4EE057B89
:101A5000FDEEC76BB5EEC07BF1EE10FA16EE908A84
:101A600008D5B8EEE66BB4EE476BF1EE10FA18BF8E
:101A700008F1FF38B8F1160F00F2DB81884B03EB59
:101A8000C80393ED007BB4EEC78BF1EE10FA5AD584
:101A9000091A0023B1F1010908F1FF38099300F197
:101AA000CF8100230693B8F1000F54DA069BCDF8DE
:101AB0001080A3EB08030693019B092BC8F1000AD1
:101AC0004FF000084FD8052B40F3B282043B01933E
:101AD0000026019B9A1E032A00F21B81DFE812F008
:101AE000C603C303BA039903059A42F20F73C8F3FE
:101AF0001308136058EA06031ED11B9B002B00F04D
:101B00009085684B009308331B9A009813600FB0C0
:101B1000BDEC028BBDE8F08F18EE906AA3F2FF30A7
:101B2000C6F3130600230A9353EC182B46F07F5399
:101B30000C9943F4401377E71B9B002B40F058832C
:101B4000594B009340E7091A0023B1F101090993A9
:101B500000F176810693019BCDF81080092BC144DA
:101B60004FF0000AAFD900230126019308964FF0E9
:101B7000FF3B07936A6ACDF82CB0002151602846DC
:101B800000F0DEFD0090002800F044856A6A009BAA
:101B90001360BBF10E0F00F2D180002E00F0CE805A
:101BA000049B002B40F3E8833D4A03F00F0102EB56
:101BB000C102D90592ED007B4FEA231240F18883E0
:101BC0003A4991ED086B02F00F02032088EE065BA4
:101BD0005AB13649D30704D591ED006B013027EE99
:101BE000067B521001F10801F4D185EE076B099BC9
:101BF0003BB1B7EE007BB4EEC76BF1EE10FA00F12B
:101C0000AE8407EE900AB8EEE75BB1EE0C7BA5EE72
:101C1000067B17EE902A51EC170BA2F15071BBF125
:101C2000000F00F08A83049E5A46089B002B00F0A8
:101C30004784B6EE003B1A4FFDEEC64B07EBC207DA
:101C4000B8EEE47B36EE477B17ED026B83EE065B66
:101C500041EC160B14EE900A35EE465B0099B4EE9B
:101C6000C57B3030F1EE10FA01F8010B00F1AC84C5
:101C7000B7EE002BB2EE044B002731E0AFF300804B
:101C800061436F63A787D23FB3C8608B288AC63F82
:101C9000FB799F501344D33F0000F07F110A0108E5
:101CA000A00301083C0A0108480A01089004010841
:101CB0000137974242DA27EE047B25EE045BFDEE06
:101CC000C76B16EE903AB8EEE63B303337EE437B07
:101CD000B4EEC57BF1EE10FA01F8013B00F174841B
:101CE00032EE476BB4EEC56BF1EE10FAE0D5009A18
:101CF000049602E08A4200F05184894611F8013DC1
:101D0000392BF7D00133DBB20B70049B0133049302
:101D100076E16A6A002656603146284600F010FDDA
:101D20000090002800F076846A6A009B13604FF0F0
:101D3000FF33012207960B9308929B460D9A002AC7
:101D400055DB04990E2952DCBE4B03EBC10393ED26
:101D5000006B079B002B15DABBF1000F12DC40F083
:101D60000083B1EE047B26EE076BB4EEC68BF1EE7A
:101D700010FADA465E4600F29282079BDDF8008098
:101D8000DF4394E288EE067BBDEEC77B009917EE39
:101D9000103ABBF1010F03F13003B8EEC75B01F855
:101DA000013BA5EE468B00F04283B2EE044B0123CB
:101DB00011E088EE067BBDEEC77B013317EE102ADB
:101DC0005B4502F13002B8EEC75B01F8012BA5EECE
:101DD000468B00F02C8328EE048BB5EE408BF1EEA1
:101DE00010FAE6D1049B01330493894608E1089B6D
:101DF000002B40D0019B012B40F384820BF1FF3379
:101E00009A4580F26282A3EB0A0AD0449A460023E4
:101E1000BBF1000FC0F23C83069A17465A44D944DE
:101E20000692012128460A9300F0EAFD0A9B064625
:101E300024E0091A0123B1F1010909937FF531AEBC
:101E4000C1F1010306934FF000092CE6102000F0C9
:101E500015FC02466862002800F0EA83C0E90144EC
:101E60000460C4608DE5784B009300980FB0BDEC22
:101E7000028BBDE8F08F069F089E5346002F0CDDB5
:101E8000B9F1000F09DD4F4506993A46A8BF4A4609
:101E9000891A0691BF1AA9EB0209BAF1000F1BD0EB
:101EA000089A002A00F06182002B11DD1A463146A3
:101EB00028460A9300F068FE224601460646284658
:101EC00000F0B4FD21460446284600F079FC0A9B48
:101ED000BAEB030240F0D6820121284600F090FDC3
:101EE000B8F1000F824600F3B180019B012B40F353
:101EF000838100230A930120B8F1000F40F0B280E3
:101F0000484410F01F0000F09180C0F12002042A24
:101F100040F39383C0F11C00069B034406930744DF
:101F20008144069B002B05DD21461A46284600F019
:101F30009BFE0446B9F1000F05DD51464A4628468E
:101F400000F092FE8246099B002B40F03681BBF1E7
:101F5000000F40F31C81089B002B40F09B80049BEA
:101F600001330493DDF80080012707E021460023B8
:101F70000A22284600F048FC013704465146204614
:101F8000FFF74EFC5F4500F1300008F8010BEDDB78
:101F9000BBF1000F009AD8BF4FF0010B03469344EA
:101FA0000027214601222846019300F05DFE51469C
:101FB000044600F0CDFE002840F392811BF8013C5E
:101FC000009A0BF1FF3B04E05A4500F094811BF8A6
:101FD000013D392B0BF10109F6D001338BF80030AC
:101FE0005146284600F0ECFB56B12FB1B74203D062
:101FF0003946284600F0E4FB3146284600F0E0FB75
:102000002146284600F0DCFB002389F80030DDE99A
:1020100004231A601B9B002B3FF4D6AC0098C3F836
:1020200000900FB0BDEC028BBDE8F08F1C2073E771
:1020300001264EE5C2F1200206FA02F207EE102A4E
:10204000E7E400BFA0030108100A01080146424668
:10205000284600F099FD019B012B824640F3B18197
:1020600000230A93DAF810200AEB8202106900F0CC
:1020700077FCC0F1200043E7314600230A222846BE
:1020800000F0C2FB0B9B002B064640F3B782CDF855
:1020900010809B46002F05DD31463A46284600F069
:1020A000E3FD06460A9B002B40F0D581B046029B1B
:1020B000009F03F001027B1E5B440893019B0A9280
:1020C0001343099351462046FFF7AAFB3146834646
:1020D000204600F03DFE424651468146284600F02B
:1020E00059FEC26801460BF13003002A42D1CDE906
:1020F0000603204600F02CFE06990290284600F0C8
:102100005FFB029A079B1AB90999002900F06682C1
:10211000B9F1000FC0F26D81019949EA01090A99EC
:1021200051EA090100F06581002A00F3B581089A9F
:102130003B7007F101099742CB4600F0B38121467D
:1021400000230A22284600F05FFB4645044631463C
:102150004FF000034FF00A02284612D000F054FB63
:102160004146064600230A22284600F04DFB4F4612
:102170008046A7E72846029300F022FB029B01223B
:10218000C6E700F041FB4F46064680469AE7019BB2
:10219000022B72DC089B002B7FF47CAF049B514622
:1021A000013320460493FFF73BFBDDF800B000F15C
:1021B00030030BF8013B0027F3E65146204600F0C0
:1021C000C7FD0028BFF6C3AE214600230A222846D9
:1021D00000F01AFB049B03F1FF38089B0446002B18
:1021E0007FF44AAF0B9B002B40F3FF819B46B9E67F
:1021F000AF4B0093033387E4DDE9020100287FF44D
:1022000078AEC1F31302002A00F0E680029B0A9325
:1022100071E601230893079B049A134403F1010B11
:10222000BBF1010FDC460B93B8BF4FF0010C6B6A9A
:102230000021BCF1170F59607FF7A1AC01200422E7
:10224000520002F114076745014600F10100F7D979
:10225000596094E401230893079B002B3CDD0B930A
:102260009B469C46E3E700230893D4E700230893AA
:10227000F2E7DDF82CB0CDF81080BBF1000F7FF451
:102280007CAD51465B460522284600F0BDFA01466A
:102290008246204600F05CFD00287FF76EAD009876
:1022A000049F3123804600F8013B013700905146DE
:1022B000284600F085FA7B1CDDF800900493CDF8E9
:1022C0000080002E7FF498AE9AE6AAEB03039FE508
:1022D0000220B0EE485B7BE4012307939B4649E470
:1022E00003D1019BDB073FF569AED9461BF8013DE1
:1022F000302BFAD074E6049B009A01330493312307
:1023000013706DE60A9B002B00F0208102F233422D
:10231000069B1F46134406939144534681E507EEFE
:10232000900AB1EE0C5BB8EEE77BA6EE075B15EE0C
:10233000902A51EC150BA2F1507141EC150BB1EE46
:10234000047B36EE477BB4EEC57BF1EE10FA00F36A
:102350003581B1EE455BB4EEC57BF1EE10FA7FF549
:10236000EDAC4FF0000A564607E521465246284696
:1023700000F00AFC0446AFE500F0EC80049B4D49F8
:102380005A4202F00F0001EBC00191ED006B1211F7
:1023900028EE066B00F03B81B0EE467B46490026F6
:1023A0000220D70705D591ED005B0130012627EE0D
:1023B000057B521001F10801F3D1002E06FE076BD8
:1023C00015E4029B002B7FF44BAEDDE90201C1F363
:1023D0001302002A40F02981384A0A40002A00F0FE
:1023E000F180069B01330693012309F101090A9349
:1023F00081E5002A12DD214601222846019300F0E2
:1024000033FC5146044600F0A3FC0028019B40F336
:10241000DF80392B00F0C8800BF13103B94609F891
:10242000013B049B0133374604934646D8E538EE1A
:10243000088BB4EEC68BF1EE10FA0ADCB4EE468BD4
:10244000F1EE10FA7FF4CEAC17EE103AD8077FF514
:10245000C9AC009A51E47168284600F071F907464A
:10246000002800F0EF80336902339A0006F10C0176
:102470000C30FDF793FF39460122284600F0F4FBAB
:10248000804614E62146284600F07EFB044623E5FC
:10249000069AA2EB0B07C4E4392B00F08580B946FD
:1024A0000133BCE7049A013237460492464678E588
:1024B000480A0108A0030108900401080000F07F09
:1024C000644FFDEEC65B07EBC20717ED023BB8EEAB
:1024D000E57B36EE477B41EC160B15EE901A23EEAA
:1024E000063B00983031012A00F8011B00F084807F
:1024F000B2EE044B009B991827EE047BFDEEC76BF0
:1025000016EE903A303300F8013B8842B8EEE65BB5
:1025100037EE457BF0D1B6EE006B33EE065BB4EEE2
:10252000C75BF1EE10FA3FF5E2AB36EE436BB4EE6B
:10253000C76BF1EE10FA7FF701AC8946013919F843
:10254000013C302BF9D0731C049359E50C9AC2F16D
:102550003602DDE60220B0EE486BFFF748BBBBF168
:10256000000F3FF4DCAE0B9A002A7FF7E7ABB2EE28
:10257000044B26EE046B013007EE900A049BB8EE84
:10258000E75BB1EE0C7BA6EE057B17EE907A51EC83
:10259000170B5E1EA7F15071FFF747BB049B013379
:1025A00004933123FFF7B0BB049BBB460133049374
:1025B000392337460BF8013B464601E54FF0000A48
:1025C00056466CE60A9296E4731C0493894617E516
:1025D0007FF424AFDA077FF521AF1AE7392BE3D078
:1025E000B9F1000F3FF718AF18E7019B022B3FF737
:1025F00040AECDF81080D1E501468CE7019B022B5F
:102600003FF737AEDDF82CB0CDF8108042E5022060
:10261000FFF7EDBA104B114800224FF4D57101F0CD
:10262000D1F80F4B0093FFF7CFB9029B0A9319E53E
:102630000C4B0A48EA2101F0C5F83FF472ACC0F136
:102640003C0069E4044B05483A4640F2EA2101F0B7
:10265000B9F800BFA0030108980A0108640A01083C
:102660003C0A01084C0A0108F030704700487047E6
:10267000540100200048704754010020024B0146DD
:10268000186800F03BBE00BF00000020024B01466E
:10269000186800F0D1BD00BF00000020000000005D
:1026A00001F0FF01102A2BDB10F0070F08D010F803
:1026B000013B013A8B422DD010F0070F42B3F6D107
:1026C000F0B441EA012141EA014122F007047FF020
:1026D00000070023F0E80256083C85EA010586EA77
:1026E000010685FA47F5A3FA87F586FA47F6A5FAB3
:1026F00087F68EB9EED1F0BC01F0FF0102F00702BF
:1027000032B110F8013B013A83EA010313B1F8D169
:102710000020704701387047002D06BF354603384A
:10272000073815F0010F07D1013015F4807F02BF83
:10273000013015F4C03F0130F0BC0138704700BFD4
:1027400070B5466A05460C465EB1F368A3B153F80E
:102750002400E8B1026843F824200023C0E90333D1
:1027600070BD1020FFF78AFF06466862E8B10023BB
:10277000C0E901330360C36021220421284600F030
:102780004DFD6B6AF060DB68002BE0D1002070BD6E
:10279000012101FA04F6721D9200284600F03EFD68
:1027A0000028F3D0C0E90146D7E7034B034832467F
:1027B000662101F007F800BF4C0A0108AC0A0108C5
:1027C00070B5456A04460E464DB13EB1636A726803
:1027D000DB6853F82200306043F8226070BD10209F
:1027E000FFF74CFF0246606220B1C0E90155056069
:1027F000C560EAE7024B03488A2100F0E3FF00BF0F
:102800004C0A0108AC0A0108F0B50C69064683B011
:102810000D4601F1140E0020DEF800101FFA81FCB5
:1028200002FB0C334FEA134C090C02FB01CC0130C4
:102830009BB203EB0C4384424EF8043B4FEA1C432B
:10284000EADC3BB1AA68A24207DD05EB8402013451
:1028500053612C61284603B0F0BD696801930131D2
:102860003046FFF76DFF019B0746A0B12A6901932F
:102870000232920005F10C010C30FDF78FFD294664
:1028800030463D46FFF79CFF05EB8402019B5361F8
:1028900001342C61DEE7034B03483A46B52100F0D2
:1028A00091FF00BF980A0108AC0A01082DE9F8431E
:1028B0000C4628491F46164603F1080281FB0231E7
:1028C000092F4FEAE2730546C3EB610339DD4FF090
:1028D000010C00214FEA4C0C634501F10101F9DCC8
:1028E0002846FFF72DFF014668B3089B4361092E78
:1028F0004FF00103036112DC0A340926B7420BDDF5
:10290000BE1B264414F8013B0A22303B2846FFF741
:102910007BFFA6420146F5D10846BDE8F88304F1E5
:102920000909C846344418F8013B0A22303B2846BE
:10293000FFF76AFFA0450146F5D1A6F108044C4413
:10294000DCE70021CCE70A46034B0448CE2100F027
:1029500039FF00BF398EE338980A0108AC0A010834
:10296000030C1B04D3B90004102310F07F4F04BFE5
:102970000002083310F0704F04BF0001043310F060
:10298000404F04BF80000233002805DB10F0804F69
:1029900003F1010308BF2023184670470023E4E732
:1029A000036813F00702014607D0DA071FD498071F
:1029B00021D55B080B600120704798B2A0B110468A
:1029C000DAB20AB908301B0A1A0704BF1B0904301F
:1029D0009A0704BF9B080230DA0703D45B0800F1B2
:1029E000010006D00B6070471B0C1020E8E70020A8
:1029F0007047202070479B080B600220704700BF83
:102A000010B50C460121FFF79BFE024618B10123C9
:102A1000C0E9043410BD034B03484FF4A07100F02B
:102A2000D1FE00BF980A0108AC0A01082DE9F04F59
:102A30000E691569AE4285B08846144605DB2A4604
:102A4000234635460C4616469846A3686168AF197A
:102A5000BB42B8BF0131FFF773FE0190002800F0C0
:102A60008780019B03F1140909EB870AD14505D240
:102A70004B46002243F8042B9A45FBD808F1140872
:102A800008EB860B04F11403D8451A4603EB8505C1
:102A90005FD22B1B153B23F0030304331534A542EF
:102AA00038BF0423CDE902A7AC461F46924605E095
:102AB000000C29D1C34509F1040948D958F8040B81
:102AC00085B2002DF4D056464C46002356F8040B30
:102AD000216882B21FFA81FE05FB02EE000C0A0C8F
:102AE000734405FB002202EB13429BB243EA02430C
:102AF000B44544F8043B4FEA1243E7D849F807309D
:102B000058F8040C000CD5D0D9F8003054461946BA
:102B10004D4600222688090C00FB06110A449BB290
:102B200043EA024345F8043B54F8046B2968360C29
:102B30008BB200FB063303EB1243A4454FEA13426A
:102B4000E8D8C34549F8073009F10409B6D8DDE9EA
:102B500002A7002F02DC05E0013F03D05AF8043D34
:102B6000002BF9D0019B18461F6105B0BDE8F08F1E
:102B7000034B0448019A40F25D1100F023FE00BFB0
:102B8000980A0108AC0A01082DE9F04112F003038C
:102B900082B0144607462DD10E46A4101CD07A6A86
:102BA0008AB39568002D39D0E3074FF0000806D4AA
:102BB000641011D0286898B10546E307F8D531466E
:102BC0002A463846FFF732FF3146034638461E464E
:102BD000FFF7F6FD6410EDD1304602B0BDE8F0819C
:102BE0002A4629463846FFF721FF2860C0F80080B2
:102BF0000546E2E7013B184A52F823200023FFF77D
:102C000003FE0646C9E71020FFF738FD024678624A
:102C1000E0B10023C0E901330360C36001213846FD
:102C20000192FFF78DFD019A054640B1012340F264
:102C30007121C0E90431002390600360B4E7074BC1
:102C400007482A464FF4A07100F0BCFD054B04482C
:102C50004FF4D77100F0B6FD90030108980A0108FF
:102C6000AC0A01084C0A01082DE9F0470D469146CF
:102C70002F69AB68496807EB62177C1C9C42804651
:102C80004FEA621A04DD5B009C4201F10101FADCAB
:102C90004046FFF755FD064600284DD0BAF1000F1B
:102CA00000F114000EDD0AF105024FEA820C034622
:102CB00006EB8202002143F8041B9342FBD1ACF1E6
:102CC00014031844296905F1140319F01F0903EBD3
:102CD000810129D0C9F1200E84464FF0000A1A68FC
:102CE00002FA09F242EA0A024CF8042B53F8042BC8
:102CF000994222FA0EFAF2D84B1B153B23F003033C
:102D0000043305F11502914238BF0423BAF1000FD4
:102D100018BF274640F803A0404637612946FFF711
:102D20004FFD3046BDE8F087043853F8042B40F8D7
:102D3000042F9942F9D8EFE7034B0448324640F29A
:102D4000D91100F03FFD00BF980A0108AC0A010844
:102D50000B6984460069C01A16D10CF1140C1431A9
:102D60000CEB830210B401EB830301E0944508D21D
:102D700052F8044D53F8041D8C42F7D005D24FF0A1
:102D8000FF305DF8044B7047704701205DF8044B3D
:102D9000704700BF2DE9F84F0F691369FF1A002F24
:102DA0000E4690467AD101F11405143202EB8302EB
:102DB00005EB830301E09D4273D253F8041D52F8E2
:102DC000044DA142F7D064D37168FFF7B9FC814686
:102DD000002872D03569D8F81020C76008F1140EA9
:102DE00006F1140009F1140A06F1100C0EEB820230
:102DF00000EB8507564600215EF8044B5CF804BFE3
:102E0000A3B211FA8BF1CB1A210CC1EB1B4101EBE0
:102E100023419BB243EA0143724546F8043B4FEA23
:102E20002141E9D8A2EB0804153C08F115084245F8
:102E300024F0030606F1040638BF0426304424F0CB
:102E4000030238BF002287425244B24416D9564684
:102E5000044654F8043B11FA83F10A1402EB1342BE
:102E600089B241EA0243A74246F8043B4FEA2241B5
:102E7000EFD87A1E101A20F00302524423B952F8F8
:102E8000043D013D002BFAD0C9F810504846BDE87A
:102E9000F88F334601274646984695E7F9DB002729
:102EA00092E70021FFF74CFC814668B10122002324
:102EB000C9E904234846BDE8F88F074B07484A464E
:102EC0004FF4107100F07EFC034B04484A4640F278
:102ED000322100F077FC00BF980A0108AC0A010813
:102EE00082B08DED000B154B019A1340A3F1507386
:102EF000002B05DD0020194641EC100B02B0704795
:102F00005B42B3F1A07F4FEA235208DA4FF400236B
:102F1000002043FA02F141EC100B02B07047143A62
:102F20001E2ADABF4FF0004323FA02F201220021E9
:102F3000104641EC100B02B0704700BF0000F07F5C
:102F4000F8B5046900F1140606EB8404271F54F851
:102F5000045C2846FFF704FDC0F120030A280B603B
:102F600031DDBE421BD20B3854F8081C23D0C0F10F
:102F7000200C854021FA0CF72F43A4F1080547F0F7
:102F80007F53AE4243F4401336D2814054F80C0CC8
:102F900020FA0CF00843024643EC102BF8BD0B3826
:102FA00008D005FA00F040F07F53002043F44013AE
:102FB0000246F1E7014645F07F5343F440130A46C9
:102FC00043EC102BF8BDC0F10B0C25FA0CF1BE42FE
:102FD00041F07F5338BF54F8081C00F1150034BF8E
:102FE00021FA0CF1002105FA00F043F4401340EA05
:102FF000010243EC102BF8BD01FA00F00246CBE7CA
:103000002DE9F043884683B0012157EC106B15463B
:10301000FFF796FB044600284FD0C7F30A59C7F3C1
:103020001303B9F1000F01D043F48013002E019374
:1030300024D068460096FFF7B3FC002839D0DDE9BC
:103040000013C0F1200203FA02F20A43C340626196
:103050000193002B14BF02220122A3612261B9F166
:10306000000F16D0A9F233430344C0F13500C8F86D
:1030700000302860204603B0BDE8F08301A8FFF7C8
:103080008FFC019B6361012220302261B9F1000FA6
:10309000E8D104EB8203A0F23240C8F800001869BE
:1030A000FFF75EFCC0EB42102860204603B0BDE88D
:1030B000F083009B6361019BCBE7034B03482246EF
:1030C00040F20A3100F07EFB980A0108AC0A0108C0
:1030D000F0B583B00E4669460746FFF731FF01A9F8
:1030E000304655EC104BB0EE407BFFF729FF3B69B3
:1030F0003169591ADDE90023D31A03EB4113002B80
:1031000009DD17EE902A02EB035545EC174B87EECD
:10311000000B03B0F0BD10EE902A51EC100BC3EB86
:10312000033302EB035141EC100B87EE000B03B0AD
:10313000F0BD00BF172808DDB7EE000BB2EE047B30
:10314000013820EE070BFBD17047034B03EBC000A7
:1031500090ED040B704700BF90030108013949113D
:1031600001F1010C116902F1140303EB81018B429F
:1031700000EB8C0C16D210B5A0F1040E53F8044BE2
:103180004EF8044F9942F9D88B1A153B23F00303EC
:1031900004331844844504D9002340F8043B844593
:1031A000FBD810BD844505D9002340F8043B844575
:1031B000FBD87047704700BF03694A11934200F182
:1031C000140009DA00EB830302E053F8042DCAB9B6
:1031D0008342FAD80020704711DD11F01F010ED094
:1031E00010B450F8224000EB820324FA01F202FAF4
:1031F00001F18C420CD001205DF8044B704700EBCC
:103200008203E5E70120704753F8042D002AF2D12C
:103210008342F9D800205DF8044B704738B502FBB3
:1032200001F5294600F06AF8044618B12A46002143
:10323000FDF74EF9204638BD002958D030B551F879
:10324000043C83B0002BA1F10404B8BFE418019042
:1032500000F09CFB284A0198136833B1A3420DD9B2
:10326000216804EB010C63452FD06360146003B048
:10327000BDE8304000F08CBBA34210D81A465B6812
:10328000002BF9D1116802EB010C644519D02FD342
:103290006360546003B0BDE8304000F079BB116852
:1032A00002EB010CA44516D022D8216804EB010CD6
:1032B0006345EDD11D685B682944C4E9001354607F
:1032C000D5E7236819441160D1E71D685B6829447C
:1032D000C4E90013CAE7246821445418A3421160CA
:1032E000C5D1D3E900432144C2E90013BFE77047C9
:1032F0000C230360BBE700BF08020020F8B5CD1C1B
:1033000025F0030508350C2D38BF0C25002D064689
:1033100023DBA94221D8254F00F038FB3A6822B3BD
:10332000144603E063682246FBB11C4623685B1B1E
:10333000F8D40B2B15D8636894420CBF3B605360E4
:10334000304600F025FB04F10B00231D20F00700A0
:10335000C21A01D01B1AA350F8BD0C233360002001
:10336000F8BD23601C442560EAE77968C9B12946A5
:10337000304600F015FA431C0CD0C41C24F00304A2
:10338000A04205D0211A304600F00AFA013001D0DF
:103390002560D5E70C233046336000F0F9FA0020B1
:1033A000F8BD304600F0FCF97860E0E70802002044
:1033B0002DE9F0478F689F420C461D46164638D8C7
:1033C0008246888910F4906F0ED108683D462A46DF
:1033D000314600F05FFAA2682368D21B2B44A2603A
:1033E00023600020BDE8F0874B69096903EB4308BF
:1033F000236808EBD878A3EB01096B1C4FEA680837
:103400004B444345424684BF98464246430513D544
:1034100011465046FFF772FF074608B321694A4636
:10342000FCF7BCFFA38923F4906343F08003A381DE
:1034300007E008681F46CAE7504600F0ABFA0746A7
:1034400050B107EB0900A8EB09032761C4F8148009
:10345000A36020602F46BAE721695046FFF7ECFED3
:103460000C23CAF80030A38943F040034FF0FF302B
:10347000A381B7E72DE9F04F936883B09146002B05
:103480006ED017688D6880460C460868083744E09F
:10349000A38913F4906F2ED0D4E90415A0EB010A90
:1034A00005EB450505EBD5750AEB06006D100130FF
:1034B000A8422A4684BF05462A465B0537D51146F1
:1034C0004046FFF71BFF00283BD052462169019080
:1034D000FCF764FFA289019B22F4906242F0800213
:1034E000A281A5EB0A0203EB0A006561A2602361D9
:1034F00020603546B2465946524600F0CBF9A068E6
:10350000D9F808102368451B8E1B03EB0A00A56041
:103510002060C9F808601EB3083757E902B6002ECC
:10352000FAD0B542AA46B3D93546B246E3E740469B
:1035300000F030FA03460028D3D121694046FFF756
:103540007BFE0C23C8F80030A389002243F040031F
:103550004FF0FF30A381C9E9012203B0BDE8F08F2D
:103560000020C9F8040003B0BDE8F08F2DE9F04F4A
:1035700092468A8915069DB0884681461C4603D529
:103580000A69002A00F0EF80002209929AF80030C0
:103590007E4D039420228DF8292030228DF82A2098
:1035A0000126002B72D0544603E014F8013F002B93
:1035B00076D0252BF9D1B4EB0A0B74D12278002AEE
:1035C00064D000234FF0FF32CDE905230493079325
:1035D0008DF853301A93013404E0049A06FA03F389
:1035E00013430493A246052214F8011B2846FFF753
:1035F00057F8431B0028F0D1049BD80644BF202273
:103600008DF8532019079AF8001044BF2B228DF82B
:1036100053202A2954D1039A1168043200290392B5
:103620007CDB07919AF801100AF1010A2E2959D082
:10363000574C03222046FFF733F840B1049B001B90
:10364000402404FA00F0034304930AF1010A1AF833
:10365000011B50488DF828100622FFF721F800289A
:1036600062D04D4B002B52D003AA00924B4B4246E6
:1036700004A94846FDF744F807467A1C06D0099B82
:103680003B4409939AF80030002B8CD1B8F80C30E9
:103690005B0654BF09984FF0FF301DB0BDE8F08FB6
:1036A000B4EB0A0BF2D05B46524641464846FFF760
:1036B0007FFE0130EAD0099B22785B4409937EE7C4
:1036C000A1F13002092AB1D8079B1AF8011F03EBB8
:1036D000830302EB4303A1F13002092AF5D92E2915
:1036E0000793A5D19AF801102A2927D1039B9AF8AC
:1036F00002101A6805920433002A0AF102000393AB
:10370000B8BF4FF0FF338246B8BF059390E7039BE5
:10371000073323F0070308330393B0E7494243F02C
:103720000203079104937DE703AA00921B4B4246D4
:1037300004A94846FDF7FCFA07469EE7A1F13002CE
:103740000023092A05930AF1010A3FF671AF1AF81E
:10375000011F03EB830302EB4303A1F13002092AAB
:10376000F5D9059364E74021FFF7C8FDC8F80000CC
:10377000C8F8100018B14022C8F8142004E70C2340
:10378000C9F800304FF0FF3087E700BFE00A0108BA
:10379000E80A0108EC0A010801070008B133000833
:1037A00038B5074D0022044608462A6009F034F96E
:1037B000431C00D038BD2B68002BFBD0236038BDE4
:1037C0001002002000B50B4C25681446EE681A461E
:1037D00085B003460D464CB107490095CDE901146B
:1037E0003046064900F022F800F08EFB04490C46F2
:1037F000F3E700BF00000020F40A0108040B0108F1
:10380000E408010808B513460022FFF7DBFF00BFFC
:103810000CB400B583B004AB53F8042B019300F053
:1038200025F903B05DF804EB02B070470EB410B593
:1038300083B005AB064C53F8042B01930146206876
:1038400000F014F903B0BDE8104003B0704700BFAA
:103850000000002010B4034CD4F8E440A4465DF806
:10386000044B60476400002082B049B15AB16BB18B
:1038700013780B601278101E18BF012002B0704739
:1038800001A9002AF3D1104602B070476FF0010081
:10389000F4E700BF88420DD98B1883420AD900EBA8
:1038A000020CBAB1624613F801CD02F801CD99427B
:1038B000F9D170470F2A0ED8034602F1FF3C4AB1F6
:1038C0000CF1010C013B8C4411F8012B03F8012F82
:1038D0006145F9D1704740EA01039B0750D1A2F13D
:1038E000100370B501F1200C23F00F0501F1100E4B
:1038F00000F11004AC441B095EF8105C44F8105C45
:103900005EF80C5C44F80C5C5EF8085C44F8085CFB
:103910005EF8045C44F8045C0EF1100EE64504F118
:103920001004E9D1013312F00C0F01EB031102F086
:103930000F0400EB031327D0043C24F003064FEAE6
:10394000940C1E441C1F8E465EF8045B44F8045F12
:10395000B442F9D10CF1010402F0030203EB840339
:1039600001EB840102F1FF3C4AB10CF1010C013B77
:103970008C4411F8012B03F8012F6145F9D170BD7A
:1039800002F1FF3C03469BE72246EBE7704700BF8E
:10399000704700BFF8B51446F9B1CAB106460D46E6
:1039A00000F014FFA04202D32F463846F8BD21464E
:1039B0003046FFF7A3FC07460028F6D022462946EA
:1039C000FCF7ECFC30462946FFF736FC3846F8BDDC
:1039D0002746FFF731FC3846F8BDBDE8F8401146F0
:1039E000FFF78CBC9368013B002B936011DA10B495
:1039F0009469A34209DB0A2907D01368581C106098
:103A0000197008465DF8044B70475DF8044B00F0F0
:103A10007DB91368581C106019700846704700BFC4
:103A20009BB1F8B5134406460F46541E5D1E01E0D7
:103A3000AC4208D014F8011F3A463046FFF7D2FFD7
:103A4000431CF5D1F8BD0020F8BD0020704700BF31
:103A5000936810B5144613B95360184610BD00F0B2
:103A60006BFC0023C4E9013310BD00BF2DE9F04F0A
:103A700088469FB015461C46814618B18369002BC5
:103A800000F0A280924B984500F0A480914B98459D
:103A900000F0B180904B984508BFD9F80C80B8F879
:103AA0000C30180740F19D80D8F81030002B00F042
:103AB000988000230B932978884E059420238DF855
:103AC000313030238DF832300127002974D02C4654
:103AD0000B4604E014F8013F002B00F08F80252BEB
:103AE000F8D1B4EB050B40F08C802378002B63D029
:103AF00000234FF0FF32CDE90723069309938DF899
:103B00005B301C93013404E0069A07FA03F3134375
:103B100006932546052214F8011B3046FEF7C0FD2A
:103B2000831B0028F0D1069BD90644BF20228DF8C4
:103B30005B2029781A0744BF2B228DF85B202A29A5
:103B400070D1059A1168043200290592C0F29B8059
:103B50000991697801352E2976D0614C03222046DF
:103B6000FEF79EFD38B1069B001B402404FA00F0CE
:103B700003430693013515F8011B5A488DF83010A0
:103B80000622FEF78DFD002800F08380564B002BA7
:103B90006DD005AA0092554B424606A94846FCF74F
:103BA000AFFD0390039B013306D00B9B039A29784A
:103BB00013440B9300298AD1B8F80C305B0617D454
:103BC0000B981FB0BDE8F08F00F096FB404B984576
:103BD0007FF45CAFD9F80480B8F80C3018073FF5D3
:103BE00063AF4146484600F00DF900283FF461AF4D
:103BF0004FF0FF30E5E7D9F8088050E7B4EB050B4C
:103C0000DAD0AA46C5F1010503E0934536D91AF882
:103C1000011F42464846FFF7E5FE013005EB0A0268
:103C2000F3D1C9E7A1F13002092A94D8099B15F80C
:103C3000011F03EB830302EB4303A1F13002092AC6
:103C4000F5D92E29099388D169782A292BD1059B8A
:103C5000A9781A6807920433002A05F10200059337
:103C6000B8BF4FF0FF330546B8BF079375E7059B14
:103C7000073323F007030833059396E70B9A23785D
:103C80005A440B9232E7494243F0020309910693EA
:103C90005FE705AA0092154B424606A94846FDF784
:103CA00047F803907EE7A1F130020023092A079329
:103CB00005F101053FF651AF15F8011F03EB830332
:103CC00002EB4303A1F13002092AF5D9079344E737
:103CD000FC050108DC050108BC050108E00A010833
:103CE000E80A0108EC0A010801070008213A000867
:103CF00010B4054C8446134620685DF8044B0A4610
:103D00006146FFF7B3BE00BF00000020F8B50D46C6
:103D10001446064608B1836943B3254B9C422AD01A
:103D2000244B9C4229D0244B9C4208BFF468A389B1
:103D3000A269A2601A0722D5236903B322686169C8
:103D4000D31AEDB299422F4629DD0133A16801391A
:103D5000A160511C2160157062699A4216D0A38936
:103D6000DB0701D50A2D11D03846F8BD00F0C4FAA2
:103D70000F4B9C42D4D17468D9E7B468D7E7214689
:103D8000304600F03FF838B92369D7E7214630467E
:103D900000F04CF90028E7D04FF0FF37E4E7214668
:103DA000304600F043F90028F6D122680123CDE720
:103DB000FC050108DC050108BC05010810B4044C31
:103DC00003460A4620685DF8044B1946FFF79EBF7C
:103DD0000000002010B4034CD4F8E040A4465DF885
:103DE000044B60476400002049B1FF2A02D80A70E2
:103DF000012070478A2303604FF0FF307047084668
:103E0000704700BF3C4B70B51D6806460C460DB1AF
:103E1000AB69E3B1394B9C421FD0394B9C424DD02A
:103E2000384B9C4208BFEC68B4F90C3018079AB2C2
:103E300019D5216911B312F001002FD00020A06024
:103E400060694042A06100292ED0002070BD284644
:103E500000F052FA294B9C42DFD16C68B4F90C3067
:103E600018079AB2E5D4D1063ED5520728D4216965
:103E700043F00803A3819AB20029DCD102F4207038
:103E8000B0F5007FD7D02146304600F011FCB4F9E0
:103E90000C3021699AB212F00100CFD1950758BFBA
:103EA0006069A0600029D0D1120658BF0846CDD560
:103EB00043F04003A3814FF0FF3070BDAC68B3E71F
:103EC000616B51B104F14402914204D03046FFF7D6
:103ED000B3F9B4F90C300022626321690022C4E90D
:103EE000001223F02403C3E7092243F040033260A9
:103EF0004FF0FF30A38170BD00000020FC050108D9
:103F0000DC050108BC05010808B5062000F0FCFC32
:103F1000012008F0AFFD00BF8B891A072DE9F041A1
:103F20000C4680463FD44A68002A58DDE66A002ED7
:103F300052D00022D8F80050C8F8002013F4805264
:103F400051D10123216A4046B047431C5ED0A3896A
:103F5000E66A5F0705D56368C01A636B0BB1236C13
:103F6000C01A216A024600234046B047411C3CD19A
:103F7000D8F80030002B38D01D2B01D0162B4DD196
:103F800023690022C4E90032616BC8F8005019B3FC
:103F900004F14403994202D04046FFF74DF9002056
:103FA0006063BDE8F0810E69B6B10D680E609A07D6
:103FB0000CBF4B690023AD1B8B600BE02B463246D8
:103FC000216AA76A4046B847B0F1000CA5EB0C0582
:103FD000664413DD002DF1DC0020BDE8F0810A6CA1
:103FE000002AA3DCF8E7606DB3E700236360236970
:103FF0002360A389DB04C7D56065C5E7A38943F0C7
:1040000040034FF0FF30A381BDE8F081D8F80030C5
:10401000002B9CD01D2B06D0162B04D0A38943F077
:104020004003A381D9E7C8F80050D5E738B50B693C
:10403000BBB10D46044608B18369B3B10D4B9D4237
:1040400011D00D4B9D4213D00C4B9D4208BFE5682B
:10405000B5F90C302BB129462046BDE83840FFF7B2
:104060005BBF002038BD6568F2E700F045F9E5E781
:10407000A568EDE7FC050108DC050108BC050108A1
:1040800038B540B303690446E3B1174B1D680DB161
:10409000AB69CBB1154B9C420FD0154B9C4221D044
:1040A000144B9C4208BFEC68B4F90C3053B1214664
:1040B0002846BDE83840FFF72FBF6C68B4F90C30D4
:1040C000002BF4D1002038BD284600F015F9074B2D
:1040D0009C42E2D1F1E7084B08491868BDE8384036
:1040E00000F0C2BAAC68DFE700000020FC05010860
:1040F000DC050108BC050108880301082D40000803
:1041000000207047014900F0AFBA00BF2D40000801
:104110000020704770B568224D1E02FB05F50E4663
:1041200005F17401FFF7EAF8044640B100210C30B4
:10413000C4E90016A06005F16802FCF7C9F9204641
:1041400070BD00BF274B2DE9F0411E68B3690746DB
:1041500053B348364FF00408D6E90134013B04D587
:104160001EE05A1C04F168041AD0B4F90C50013B4B
:10417000002DF6D11C4B6566C4E90055C4E9025315
:10418000C4E90455A5610822294604F15C00FCF746
:104190009FF9C4E90D55C4E912552046BDE8F081E8
:1041A00035682DB12E46D7E7304600F01FF8D0E72E
:1041B0004FF4D6713846FFF7A1F8044668B10560A0
:1041C000C0F804800C302946A06025464FF4D07218
:1041D000FCF77EF934602E46BEE70C2330603B606E
:1041E000DBE700BF880301080100FFFF2DE9F84F5E
:1041F000344B35491A68816290424FF00003C0E9A0
:104200001233036504BF012383610546FFF79AFF5C
:1042100068602846FFF796FFA8602846FFF792FFE0
:104220006F68E86000240423C7E90243082221469E
:10423000C7E90044C7E904447C66BC6107F15C003F
:10424000FCF746F9DFF88CB0AE68DFF88CA0DFF839
:104250008C90DFF88C801D4BC7F828A0C7E9087B3D
:10426000C7F82C90C7F830800822F360C6E90044F4
:10427000C6E904447466B460B461214606F15C008A
:10428000FCF726F9C6E9086BC6E90AA9C6F830802A
:10429000EE680F4BF360C6E90044C6E90444746657
:1042A000B460B4612146082206F15C00FCF710F905
:1042B0000123C6E9086BC6E90B98C6F828A0AB61D4
:1042C000BDE8F88F880301080541000809000100D6
:1042D00012000200794A0008A14A0008E14A0008D9
:1042E000014B0008024B0349186800F0BDB900BF3C
:1042F000880301082D400008836903B976E77047F9
:10430000704700BF704700BF704700BF704700BFD5
:10431000024B0349186800F087B900BF0000002075
:1043200001410008024B0349186800F07DB900BF45
:1043300000000020114100089368002B00F08580E8
:104340002DE9F04FB1F90C300C461907804683B0C7
:10435000174698B225D523691BB310F002033D68B8
:104360002DD04FF0000ADFF8BCB25646B9465E4584
:104370003346524628BF5B464046002E52D0216A43
:10438000A76AB847002856DDD9F808301B1A8244BE
:10439000361AC9F80830002BE9D1002003B0BDE877
:1043A000F08F21464046FFF72DFD002840F0368172
:1043B000B4F90C303D6898B210F00203D1D110F07E
:1043C000010944D14E46009746B38205D4F808B09F
:1043D00040F18380B3455A4600F2B28010F4906FEA
:1043E00040F0BF80206801924946FFF753FAA36866
:1043F000019AA3EB0B012368A1601344B24623602A
:104400000026009B9868A0EB0A00D1449860002821
:10441000C3D0B4F90C0080B2002ED6D1D5E90096F5
:104420000835D1E7D5E900A60835A0E72146404682
:10443000FFF7FCFD80B3B4F90C3043F040034FF0BC
:10444000FF30A38103B0BDE8F08F002070471E4607
:10445000AA46994618461D46009756B388B34A4661
:10446000D4E904132068B24228BF3246884205D9F5
:10447000A16803EB010B5A4500F3A680934263DC6D
:10448000216AA76A2A464046B847B0F1000BD2DD40
:10449000B9EB0B09CAD00120009A9368A3EB0B0378
:1044A0005D44A6EB0B069360002B3FF476AF002E25
:1044B000D4D10AF1080353E902569A460833002E74
:1044C000F9D032460A212846FEF7EAF8002800F023
:1044D0009C800130A0EB0509C1E720682369984260
:1044E00016D86369B34213D86FF00042B24228BFB6
:1044F0003246216A92FBF3F2A76A02FB03F34046BD
:104500004A46B847B0F1000A95DDA6EB0A0678E7FF
:10451000B345DA4628BFB24652464946FFF7BAF9D4
:10452000A3682268A3EB0A035244A3602260002B15
:10453000EBD121464046FFF779FD0028E5D07AE728
:104540002068B34632464EE729460192FFF7A2F9AA
:10455000019AA3689B1AA3602368134423609346BF
:1045600096E723682169A3EB010B636903EB430A18
:104570000AEBDA7A0BF101034FEA6A0A3344534536
:10458000524684BF9A46524643052CD511464046B2
:10459000FEF7B4FE00283BD05A4621690190FBF794
:1045A000FDFEA289019B22F4906242F08002A2816A
:1045B00003EB0B002361AAEB0B03C4F814A0A36068
:1045C0002060B34632460EE729465A46FFF762F9A5
:1045D00023685B44236021464046FFF727FD0028FF
:1045E0003FF456AF27E74046FFF7D4F903460028CB
:1045F000DED121694046FEF71FFEB4F90C300C22D3
:1046000023F08003C8F8002017E7721C914627E7C3
:104610000C22B4F90C30C8F800200EE74FF0FF3040
:10462000BCE600BF00FCFF7F2DE9F041884600F1A9
:1046300048070026D7E90154013D0FD4A389012B77
:1046400005F1FF3506D9B4F90E300133204601D00B
:10465000C04706436B1C04F16804EFD13F68002F8C
:10466000E8D13046BDE8F0812DE9F8430746884699
:1046700000F148064FF00009D6E90154013D11D47C
:10468000A389012B05F1FF3508D9B4F90E300133A8
:10469000214603D03846C04749EA00096B1C04F1A3
:1046A0006804EDD13668002EE6D14846BDE8F883AF
:1046B000F0B58B890C46990797B007D504F14703ED
:1046C0000122C4E90432236017B0F0BDB4F90E1022
:1046D000002905462DDB6A4600F03EFA002827DB5C
:1046E000019E06F470464FF48067A6F50056B6FAB0
:1046F00086F6394628467609FEF700FE30B3A389D0
:104700001A4AAA6243F08003C4E90407A381206027
:10471000002ED9D0B4F90E10284600F033FA002844
:10472000D2D0A38923F0030343F00103A381CBE795
:10473000A38913F0800F14BF40274FF480673946D8
:1047400028460026FEF7DAFD0028D8D1B4F90C304F
:104750009A05B9D423F0030304F1470243F002039E
:104760000121C4E90421A3812260ADE705410008CD
:1047700070B50C46B1F90E10002996B016461D46CC
:1047800013DB6A4600F0E8F900280EDB019901F41A
:104790007041A1F50051B1FA81F14FF480634909EC
:1047A00000202960336016B070BDB4F90C300022CF
:1047B0001B062A6004D540230020336016B070BD6C
:1047C0004FF480630020336016B070BD51F8040CC4
:1047D0000028A0F10400BCBF0B58C018704700BFF0
:1047E00038B5446C0CB1002038BD80210546FEF779
:1047F00085FD0246686430B1031F7C3243F8044FE4
:104800009342FBD1EFE74FF0FF3038BD1F29F8B5D9
:10481000054608D8466C0C4617464EB156F824009B
:1048200046F82470F8BD162303604FF0FF30F8BD42
:104830008021FEF763FD0646686440B1031F00F166
:104840007C05002143F8041F9D42FBD1E6E74FF0B1
:10485000FF30F8BD1F2938B5054620D8426C0C46FC
:104860006AB152F8213053B1012B16D0591C10D027
:104870000025204642F824509847284638BD28464F
:1048800000F0F8F8224601462846BDE8384000F01E
:10489000DBB816230360012038BD002038BD162385
:1048A00003604FF0FF3038BD1F292AD8426C38B55D
:1048B0000C46054682B152F8243002EB84024BB11B
:1048C000591C19D0012B15D000252046156098479A
:1048D000284638BD012038BD8021FEF70FFD024675
:1048E000686458B1031F00217C3043F8041F9842CC
:1048F000FBD1E0E7032038BD022038BD4FF0FF3088
:1049000038BD4FF0FF30704738B5144B1F281D6875
:104910001FD86A6C044662B152F820304BB1012BAB
:1049200015D0591C0FD0002542F820509847284632
:1049300038BD284600F09EF8224601462846BDE8CC
:10494000384000F081B816232B60012038BD0020CC
:1049500038BD16232B604FF0FF3038BD000000201B
:10496000124B1F2870B51E6808D80D46716C04469E
:1049700049B151F8240041F8245070BD162333602A
:104980004FF0FF3070BD80213046FEF7B7FC014686
:10499000706440B1031F00F17C0C002243F8042F27
:1049A0006345FBD1E5E74FF0FF3070BD000000200C
:1049B00038B50B4B1D686C6C0CB1002038BD8021E4
:1049C0002846FEF79BFC686438B1031F00F17C02A7
:1049D00043F8044F9342FBD1EFE74FF0FF3038BD6F
:1049E0000000002038B5174B1F281D6826D86A6CB8
:1049F000044682B152F8243002EB84024BB1591CB8
:104A00001AD0012B16D0002520461560984728465D
:104A100038BD012038BD80212846FEF76FFC0246D4
:104A2000686458B1031F00217C3043F8041F83429F
:104A3000FBD1DFE7032038BD022038BD4FF0FF3047
:104A400038BD00BF0000002070B50C46084D03467D
:104A50000026204611461C462E6008F003F8431C31
:104A600000D070BD2B68002BFBD0236070BD00BF51
:104A70001002002007F0F4BF10B50C46B1F90E107B
:104A800000F0A8F8002803DB636D0344636510BDE4
:104A9000A38923F48053A38110BD00BF0020704779
:104AA0002DE9F0410C46B1F90C101F46CB05054627
:104AB00016460BD421F48051A1813B46B4F90E1067
:104AC00032462846BDE8F04100F01EB8B4F90E1099
:104AD0000223002200F068F8B4F90C10EAE700BFE6
:104AE00010B50C46B1F90E1000F05EF8A389421C17
:104AF0000EBF23F4805343F480536065A38110BD3F
:104B0000B1F90E1000F016B838B50C46084D8446C1
:104B1000114620461A4600232B60644607F0C0FF6A
:104B2000431C00D038BD2B68002BFBD0236038BD60
:104B30001002002038B5074D0022044608462A60BE
:104B400007F0BCFF431C00D038BD2B68002BFBD006
:104B5000236038BD1002002070B50C46084D034696
:104B60000026204611461C462E6007F0AAFF431C73
:104B700000D070BD2B68002BFBD0236070BD00BF40
:104B80001002002038B5074D0022044608462A606E
:104B900007F09CFF431C00D038BD2B68002BFBD0D6
:104BA000236038BD1002002038B50C46084D8446FD
:104BB000114620461A4600232B60644607F088FF02
:104BC000431C00D038BD2B68002BFBD0236038BDC0
:104BD0001002002038B50C46084D84461146204688
:104BE0001A4600232B60644607F04AFF431C00D09E
:104BF00038BD2B68002BFBD0236038BD100200208D
:104C000038B510EE104AC4F30A53B3F57D7FB7EE02
:104C1000C07A1ED227EE077BB3F5667F6FD327EEEF
:104C2000071B634B93ED142B93ED125B93ED0E3B3F
:104C3000A7EE025B93ED0C0B93ED104BA7EE030B6D
:104C400027EE017BA1EE040BA5EE070BB7EEC00B20
:104C500038BD40F22E42934254D8554991ED086B2D
:104C600027EE066BFDEEC66B91ED0A5B16EE903AF1
:104C700003F500031B1613F0020F06EE903A01F144
:104C8000700208BF0A46D807B8EEE66BA6EE457B71
:104C900027EE076B1AD503F0030301EBC30393ED73
:104CA000002B92ED1A4B92ED185B92ED163BA6EE9F
:104CB000045B27EE027B27EE064B26EE046BA4EE88
:104CC000037BA5EE067BB7EEC70B38BD92ED142B28
:104CD00092ED127B92ED0E3B92ED0C0B92ED104B90
:104CE00026EE065BA6EE027BA6EE030B26EE056B18
:104CF000A5EE040BA7EE060BB7EEC00B38BDB7EE62
:104D0000000A38BDB3F5FF6F3DD22A4BC4F383626E
:104D100003EB820153F822200D69C4F31603C4F398
:104D2000C25043F400038340086A03FB02F2A3FB72
:104D30000010E3FB050202F100518D0F01F040412C
:104D4000511A00F08FFF1C4B9FED177B05EBD474BD
:104D500041EC160B14F0020FA3F1700208BF1346CA
:104D6000E90726EE077B27EE076B10D504F0030456
:104D700002EBC40494ED002B93ED1A4B93ED185BFA
:104D800093ED163B93E7BDE8384000F053B893ED40
:104D9000142B93ED127B93ED0E3B93ED0C0B93EDE7
:104DA000104B9DE7AFF30080182D4454FB21193CB4
:104DB0008006010820060108F006010810B582B03F
:104DC0008DED010A0446FBF7BFFA9DED010A046070
:104DD00002B010BD28B1F1EE407A27EE800A222001
:104DE000ECE7F0EE407A27EE800A2220E6E700BFEB
:104DF0009FED010AEEE700BF000000109FED010AE1
:104E0000E8E700BF0000201A9FED010AE2E700BFBB
:104E1000000000709FED060AFFEE007AB7EE007A00
:104E200000284FF0220047FE277A87EE800AC5E768
:104E30000000000070EE407AB4EE400A87EEA77AD8
:104E4000F1EE10FAB0EE470A01D62120B6E770471E
:104E500030B510EE104AC4F30A53B3F57D7FB7EEB8
:104E6000C06A83B01BD226EE065BB3F5667F70D3B3
:104E700026EE052B25EE021B754B93ED1A3B93EDA9
:104E8000187B93ED164BA5EE037BA2EE046BB0EE00
:104E9000460BA7EE010BB7EEC00B03B030BD40F2DE
:104EA0002E42934260D86A4991ED087B26EE077B3B
:104EB000FDEEC77B91ED0A5B17EE903A03F5000318
:104EC0001B1613F0020F07EE903A01F1700208BFB3
:104ED0000A46D807B8EEE77BA7EE456BB0EE460B67
:104EE00026EE067B1BD403F0030301EBC30392ED14
:104EF0001A5B93ED003B92ED186B20EE030B92EDE5
:104F0000164BA7EE056B20EE075B27EE057BA5EEA3
:104F1000040BA6EE070BB7EEC00B03B030BD92ED4D
:104F2000142B27EE075B92ED126B92ED0E3BA7EE72
:104F3000026B92ED0C0B92ED104BA7EE030B27EEDC
:104F4000057BA5EE040BA6EE070BB7EEC00B03B076
:104F500030BD220D12F4FF6FDFD1B7EEC55B00EE5E
:104F6000104A8DED015AD8E7B3F5FF6F4BD2394B9C
:104F7000C4F3836203EB820153F822200D69C4F36A
:104F80001603C4F3C25043F400038340086A03FBD2
:104F900002F2A3FB0010E3FB050202F100518D0FAA
:104FA00001F04041511A00F05DFE2B4B9FED267B36
:104FB00005EBD47441EC160B14F0020FA3F1700250
:104FC00008BF1346E90726EE077B27EE076B1FD4C1
:104FD00004F0030402EBC40493ED1A4B94ED002B90
:104FE00093ED185B27EE027B93ED163BA6EE045B78
:104FF00027EE064B26EE046BA4EE037BA5EE067BA4
:10500000B7EEC70B89E703B0BDE83040FFF712BF2A
:1050100093ED142B26EE065B93ED127B93ED0E3B86
:10502000A6EE027B93ED0C0B93ED104BA6EE030B5B
:1050300026EE056BA5EE040BA7EE060BB7EEC00B34
:105040006BE700BFAFF30080182D4454FB21193CDF
:105050008006010820060108F00601080000000093
:1050600008B52DED048BB0EE408B00F0B5F8104B79
:1050700093F9003001330BD0B4EE488BF1EE10FA07
:1050800006D69FED099BB4EEC98BF1EE10FA02D45F
:10509000BDEC048B08BDFBF757F989EE090BBDEC9D
:1050A000048B2123036008BD000000000000000005
:1050B000D001002008B52DED028BB0EE408A00F043
:1050C0008FF8144B93F900300133F0EE408A0FD083
:1050D000B4EE488AF1EE10FA0AD6B0EE480A00F0B3
:1050E00025FCF7EE007AB4EEE70AF1EE10FA04DCE4
:1050F000B0EE680ABDEC028B08BDFBF725F9BDECEC
:10510000028B034621221A600348BDE8084000F0E4
:1051100015BC00BFD0010020E408010808B52DED42
:10512000028BB0EE408A00F07FF9144B93F9003007
:105130000133F0EE408A0FD0B4EE488AF1EE10FA57
:105140000AD6B0EE480A00F0F1FBF7EE007AB4EEB2
:10515000E70AF1EE10FA04DCB0EE680ABDEC028B4F
:1051600008BDFBF7F1F8BDEC028B034621221A6063
:105170000348BDE8084000F0E1BB00BFD0010020BB
:10518000E408010800F056BA08B52DED028BB0EE28
:10519000408A00F0F3FA0E4B93F9003001330BD044
:1051A000B4EE488AF1EE10FA06D6DFED0A8AB4EEC4
:1051B000E88AF1EE10FA02D4BDEC028B08BDFBF7D1
:1051C000C3F888EEA80ABDEC028B2123036008BD5A
:1051D000D001002000000000B1EEC00B704700BFFE
:1051E00008B510EE102A22F00043B3F17E5F2DEDDA
:1051F000028B12D00ADCB3F17C5F18DAB3F10C5FDA
:105200006BDCBDEC028B9FED770A08BD70EE407A37
:1052100087EEA70ABDEC028B08BDBDEC028B9FEDAB
:10522000720ADFED727A002A30FE270A08BD002AD2
:10523000C0F29080F7EE008A38EEC00AB6EE008A1F
:1052400020EE088AB0EE480A00F098FADFED687A9E
:105250009FED687A9FED686ADFED685ADFED686A56
:10526000A8EE277ADFED677AA7EE086AE8EE257ADE
:10527000E6EE086ADFED645A9FED647AE7EE885A3D
:10528000A6EE887ADFED627A10EE103AE5EE887AC3
:1052900023F47F6323F00F03B0EE476A9FED5D7A3E
:1052A000F0EE676AA6EE087A07EE903AB0EE486A2A
:1052B000E6EE888AA7EEE76A70EE276A27EE088A8C
:1052C00086EE267AC8EE286ABDEC028BA0EE267A1E
:1052D00037EE870A30EE000A08BD20EE007ADFEDD7
:1052E000447A9FED446ADFED446A9FED445ADFED56
:1052F000445AA7EE276ABDEC028BE6EE076ADFEDA3
:10530000417A9FED416AE7EE057AE6EE875AA7EE0D
:10531000876A9FED3E5ADFED3E7ADFED3E6AA5EEED
:10532000875AE6EE077AE5EE076AF7EE005AE7EEEF
:10533000875A26EE877A9FED386ADFED387AC7EE16
:10534000256AB0EE467AA0EE667A30EE470A37EE6E
:10535000C00A08BDB7EE007A30EE070AF6EE007A12
:1053600060EE277ADFED226A9FED226ADFED224AA6
:10537000DFED225A9FED225A9FED268AA7EEA66AFC
:10538000DFED206AE6EE274AE7EEA56ADFED1E5A5A
:105390009FED1E6AA4EEA75AE6EEA75ADFED1C6A3F
:1053A000A5EE276AE5EEA76AA6EE278AA6EEA77AFB
:1053B00028EE278AF0EE478AB0EE670A00F0DEF9A1
:1053C00088EE286ADFED167AB0EE407AE7EE067ACC
:1053D0009FED140A77EE877AF0EE006AA7EEE60AF0
:1053E00018E700BFDB0FC93F00000000DB0F49409A
:1053F00008EF1138047F4F3A461124BD2EC69D3D5B
:10540000A80A4E3E613330BF2D57014090B0A6BE72
:1054100039D119C0ABAA2A3E6821A233DA0FC93F9D
:105420006821A2B3DA0F494038B510EE105A25F0C2
:105430000044B4F17E5F2DED048B00F085807ADCB2
:10544000B4F17C5F0FDAB4F1485F80F29C80DFED4D
:10545000697A70EE277AB7EE007AF4EEC77AF1EE49
:1054600010FA00F38D8000F061FAF7EE007A37EE63
:10547000C00AB6EE008A20EE088A9FED5F7ADFED63
:105480005F6A9FED5F6A9FED5F5ADFED5F5ADFED68
:105490005F8AE8EE076A9FED5E7AA8EE067A9FEDD6
:1054A0005D6AA6EE885AA7EE086A9FED5B7ADFED8B
:1054B0005B6AE5EE085AA6EE087AE5EE886AE7EE42
:1054C000087AE6EE888AB0EE480AB0EE679A00F0F5
:1054D00055F9534B9C4268EE888A42DC10EE103A34
:1054E00023F47F6323F00F0306EE903AA6EEE68ADC
:1054F00070EE267A88EE895AC8EE274A9FED497ADF
:10550000DFED497AB0EE006AA4EEC67A30EE000A0A
:10551000F0EE675AE6EEC65A90EE057A37EE657AF7
:1055200037EEC77A002D0ADCBDEC048BB1EE477A6A
:10553000B0EE470A38BD70EE407A87EEA77ABDEC30
:10554000048BB0EE470A38BD9FED367ADFED377A2F
:1055500020EE077ABDEC048BA0EE277AB0EE470A66
:1055600038BD88EE896A9FED327ADFED307AA0EEA1
:10557000060AF0EE006AA0EE267A37EEC77AD1E787
:10558000B0EE407ADBE760EE007A9FED1B7ADFED4C
:105590001B6A9FED1C6ADFED1A5A9FED1B5AE7EE5E
:1055A000876ABDEC048BA6EEA76A9FED197ADFED42
:1055B000196AA7EEA57AA6EE275AE7EE276ADFED6D
:1055C000175A9FED156A9FED117AE5EE275AA6EE60
:1055D000A76AA5EEA77AF7EE006AE6EE276A67EEFD
:1055E000277AB0EE407A87EEA66AA0EE067AB0EE91
:1055F000470A38BDCAF2497108EF1138047F4F3AA3
:105600002EC69D3D461124BDA80A4E3EABAA2A3E99
:10561000613330BF2D57014039D119C090B0A6BEBB
:105620009999793F2EBD3BB3DB0F493FDB0FC93F53
:105630002EBD3B3310B582B0CDED010A019B23F0A6
:105640000042B2F1FF4FF0EE407A30DC10EE100A6B
:1056500020F00041B1F1FF4F29DCB3F17E5F40D073
:105660009C1704F0020444EAD07431B372B3B2F16F
:10567000FF4F3ED0B1F1FF4F28D08A1AB2F1F45F4C
:105680004FEAE25132DA002B40DA3C313EDA9FED4C
:10569000330A012C4CD0022C41D064B19FED307AFA
:1056A000DFED307A30EE070A30EE670A03E09DED59
:1056B000017A37EE270A02B010BD022C0ED09FED02
:1056C0002A0A032C00FE270A02B010BD9FED270A0C
:1056D000DFED277A002820FE270AECE79FED210A5C
:1056E000E9E702B0BDE8104000F04CB89FED1F0A9A
:1056F000CFE7B1F1FF4F04F1FF3420D0022C26D8C0
:105700001C4B03EB840494ED030AD4E79DED017A6E
:1057100087EE870A00F00AF900F034F8B9E79FED48
:10572000107ADFED107A30EE070A37EEC00AC2E7D2
:1057300010EE103A03F1004300EE103ABBE7022CE2
:1057400008D80C4B03EB840494ED000AB3E79FEDFB
:10575000030AB0E79FED080AADE700BF00000000B4
:105760002EBDBB33DB0F4940DB0F49C0DB0FC93F08
:10577000DB0FC9BF60070108DB0F493FB1EEC00A6C
:10578000704700BF38B510EE105A25F00044B4F150
:10579000A14FF0EE407A0ADBB4F1FF4F57DCDFEDAA
:1057A000517A9FED510A002D37FE800A38BD4F4BCC
:1057B0009C425BDCB4F1445F4CDB4FF0FF3267EEA0
:1057C000A76ADFED4B4ADFED4B5A9FED4B5A9FED39
:1057D0004B4A26EEA67AB0EE666AE7EE245A531CD0
:1057E000DFED474ADFED476AA5EE875AE7EE246A08
:1057F000DFED455ADFED454AE6EE875AA5EE074A4A
:105800009FED435ADFED436AA5EE875AE4EE074A5F
:10581000DFED415AE4EE876AE5EE075A66EE866AE6
:1058200025EE877A37D03D4B03EB820376EE876A0D
:1058300093ED000A93ED047A96EEA70A002D70EE20
:10584000677A37EE670AB1DAB1EE400A38BD30EE5A
:10585000000A38BD9FED327A30EE077AF7EE006A23
:10586000B4EEE67AF1EE10FAA7DD38BD00F05EF88E
:105870002C4B9C4216DCA3F5D0039C4227DCF0EEB7
:10588000007ABFEE007AA0EE277A002230EE270AD7
:10589000C7EE007A93E776EE876AE6EEE77AB0EE37
:1058A000670A38BD204B9C420BDCF7EE087AB7EE56
:1058B000007AA0EE277A022230EE670AC0EE077A5D
:1058C0007DE7BFEE007AC7EE007A032277E7F7EEB6
:1058D000007A30EE677A30EE270A0122C7EE007AAE
:1058E0006DE700BFDB0FC93FDB0FC9BFFFFFDF3E26
:1058F000D769853C59DA4B3D356B883D6E2EBA3DF4
:1059000021A215BD6BF16EBD95879DBD2549123E47
:10591000388EE3BDABAAAA3ECDCC4CBE78070108B9
:10592000CAF24971FFFF973FFFFF1B4010EE103A8C
:1059300023F0004300EE103A704700BF9FED010ACC
:10594000704700BF0000C07F81F0004102E000BF4F
:1059500083F0004330B54FEA41044FEA430594EA2F
:10596000050F08BF90EA020F1FBF54EA000C55EA6A
:10597000020C7FEA645C7FEA655C00F0E2804FEA3B
:105980005454D4EB5555B8BF6D420CDD2C4480EA1D
:10599000020281EA030382EA000083EA010180EA4D
:1059A000020281EA0303362D88BF30BD11F0004F9B
:1059B0004FEA01314FF4801C4CEA113102D04042D1
:1059C00061EB410113F0004F4FEA03334CEA13330C
:1059D00002D0524263EB430394EA050F00F0A78024
:1059E000A4F10104D5F1200E0DDB02FA0EFC22FA1F
:1059F00005F2801841F1000103FA0EF2801843FA13
:105A000005F359410EE0A5F120050EF1200E012A03
:105A100003FA0EFC28BF4CF0020C43FA05F3C01841
:105A200051EBE37101F0004507D54FF0000EDCF1BA
:105A3000000C7EEB00006EEB0101B1F5801F1BD363
:105A4000B1F5001F0CD349085FEA30004FEA3C0C67
:105A500004F101044FEA445212F5800F80F09A805D
:105A6000BCF1004F08BF5FEA500C50F1000041EB61
:105A7000045141EA050130BD5FEA4C0C404141EB65
:105A80000101013C28BFB1F5801FE9D291F0000F60
:105A900004BF01460020B1FA81F308BF2033A3F10F
:105AA0000B03B3F120020CDA0C3208DD02F1140C06
:105AB000C2F10C0201FA0CF021FA02F10CE002F141
:105AC0001402D8BFC2F1200C01FA02F120FA0CFC3A
:105AD000DCBF41EA0C019040E41AA2BF01EB045183
:105AE000294330BD6FEA04041F3C1CDA0C340EDC81
:105AF00004F11404C4F1200220FA04F001FA02F3C4
