:020000040800F2
:10000000000002207DD20008E5470008E74700080D
:10001000E9470008EB470008ED4700080000000032
:10002000000000000000000000000000B1CF000848
:10003000EF4700080000000051D000083FCB000847
:10004000CDD20008CDD20008CDD20008CDD2000814
:10005000CDD20008CDD20008CDD20008CDD2000804
:10006000CDD20008CDD20008CDD20008F14700085B
:1000700001480008CDD20008CDD20008CDD200083A
:10008000CDD20008CDD20008CDD20008CDD20008D4
:10009000CDD20008CDD20008CDD20008CDD20008C4
:1000A000CDD2000811480008CDD20008CDD20008FA
:1000B000CDD20008CDD20008CDD20008CDD20008A4
:1000C000CDD20008CDD20008CDD20008CDD2000894
:1000D000CDD2000821480008CDD20008CDD20008BA
:1000E000CDD20008CDD2000800000000CDD200081B
:1000F000CDD20008CDD20008CDD20008CDD2000864
:10010000CDD20008CDD20008CDD20008CDD2000853
:10011000CDD20008CDD20008CDD20008CDD2000843
:10012000CDD20008CDD20008CDD20008CDD2000833
:10013000CDD20008CDD20008CDD20008CDD2000823
:1001400000000000000000000000000000000000AF
:10015000CDD20008CDD20008CDD20008CDD2000803
:10016000CDD20008CDD20008CDD20008CDD20008F3
:10017000CDD20008CDD20008CDD20008000000008A
:10018000CDD20008CDD20008CDD20008CDD20008D3
:10019000CDD20008CDD20008CDD20008CDD20008C3
:1001A000CDD20008CDD20008CDD20008CDD20008B3
:1001B000CDD20008CDD20008CDD20008CDD20008A3
:1001C000CDD20008CDD20008CDD20008CDD2000893
:1001D000CDD20008CDD20008CDD20008CDD2000883
:1001E000CDD20008CDD20008CDD20008CDD2000873
:1001F000CDD20008CDD20008CDD20008CDD2000863
:10020000CDD20008CDD20008CDD20008CDD2000852
:10021000CDD20008CDD20008CDD20008CDD2000842
:10022000CDD20008CDD20008CDD2000800000000D9
:10023000CDD20008CDD2000800000000CDD20008C9
:10024000CDD20008CDD20008CDD20008CDD2000812
:10025000CDD20008CDD20008CDD20008CDD2000802
:10026000CDD20008CDD20008CDD20008CDD20008F2
:10027000CDD20008CDD20008CDD200080000000089
:10028000CDD20008CDD20008CDD200080000000079
:0802900000000000CDD20008BF
:1002A0000348044B834202D0034B03B11847704705
:1002B0007C0000207C00002000000000054806496A
:1002C0000B1AD90F01EBA301491002D0034B03B164
:1002D000184770477C0000207C00002000000000D0
:1002E00010B5064C237843B9FFF7DAFF044B13B17E
:1002F0000448AFF300800123237010BD7C00002070
:1003000000000000D0D2000808B5044B1BB104491E
:100310000448AFF30080BDE80840CFE700000000CC
:1003200080000020D0D20008014B1868704700BF41
:100330000000002070B50D4E0D4D761BB61006D096
:10034000002455F8043B01349847A642F9D1094EE0
:10035000094D761B0CF0BCFFB61006D0002455F8F2
:10036000043B01349847A642F9D170BDA8D60008D5
:10037000A8D60008ACD60008A8D60008844641EAF2
:10038000000313F003036DD1403A41D351F8043B0D
:1003900040F8043B51F8043B40F8043B51F8043B5F
:1003A00040F8043B51F8043B40F8043B51F8043B4F
:1003B00040F8043B51F8043B40F8043B51F8043B3F
:1003C00040F8043B51F8043B40F8043B51F8043B2F
:1003D00040F8043B51F8043B40F8043B51F8043B1F
:1003E00040F8043B51F8043B40F8043B51F8043B0F
:1003F00040F8043B51F8043B40F8043B51F8043BFF
:1004000040F8043B51F8043B40F8043B403ABDD26D
:10041000303211D351F8043B40F8043B51F8043B0F
:1004200040F8043B51F8043B40F8043B51F8043BCE
:1004300040F8043B103AEDD20C3205D351F8043B9E
:1004400040F8043B043AF9D2043208D0D2071CBF6A
:1004500011F8013B00F8013B01D30B880380604693
:10046000704700BF082A13D38B078DD010F0030309
:100470008AD0C3F10403D21ADB071CBF11F8013B79
:1004800000F8013B80D331F8023B20F8023B7BE7C8
:10049000043AD9D3013A11F8013B00F8013BF9D2F3
:1004A0000B7803704B7843708B788370604670478D
:1004B000830730B548D0541E002A3FD0CAB2034645
:1004C00001E0013C3AD303F8012B9D07F9D1032C3D
:1004D0002DD9CDB245EA05250F2C45EA054536D97B
:1004E000A4F1100222F00F0C03F1200EE6444FEAB3
:1004F000121C03F1100242E9045542E90255103280
:100500007245F8D10CF1010214F00C0F03EB02124A
:1005100004F00F0C13D0ACF1040323F003030433F5
:10052000134442F8045B9342FBD10CF003042CB15A
:10053000CAB21C4403F8012B9C42FBD130BD644677
:100540001346002CF4D1F9E703461446BFE71A46D8
:10055000A446E0E72DE9F04F9BB083460192104698
:100560004BEA02029A469307049140F0B182B0F13F
:10057000040918BF4FF00109019B9A0802925B0021
:100580000022059207934F465646049B062B40F2E5
:10059000DB80049B019A4FEA5308072B02FB08B843
:1005A00000F0DB81049A0199531E282A01FB03BA4B
:1005B00000F20E8254465D4641462846B047002868
:1005C00021464046C0F2F881B047002854DD002F94
:1005D0005BD1019BDBF80020D8F80010CBF80010AD
:1005E0005B44C8F800200893089B0993534562D8E0
:1005F000019A06931C46002355465946C2F100094C
:10060000D3469A4620460391B04700280399A04656
:1006100040F34E81A345C0F0EE80A84603945546B2
:100620008A460DE0DBF80010D8F80030CBF8003037
:10063000C8F80010C8440125CB44A345C0F09B82F4
:1006400051465846B0470028C0F2C080F4D1002F70
:10065000E8D0012F00F00E81019A41465B460BEB7A
:10066000020C08781A7803F8010B01F8012BACEBA7
:100670000302002AF5DCDDE721462846B04715EAEB
:10068000200838BFA046002FA3D0012F00F0108211
:10069000019B0BEB03005A46089098F80010137862
:1006A00002F8011B08F8013B831A002BF5DC089BBC
:1006B000099353459CD9049A019B03FB02B4089A01
:1006C000944231D9DDF824805D42C34528D2C24628
:1006D00009E0D9F80030DAF80020C9F80020CAF89B
:1006E0000030DA451CD9D146AA4449465046B047A5
:1006F000002815DD002FECD0012F00F0FA80079ABA
:1007000053460AEB0200197899F8002009F8011BFA
:1007100003F8012BA0EB0902002AF4DCDA45E2D849
:10072000019B98444445D0D8059B002B4BD0059B9A
:100730001AAA013B059302EBC30353E910B30493D8
:10074000049B062B3FF625AF019B049A0BEB030598
:1007500003FB02B8A845E7D9DDF81C90CDF80C8062
:100760005C42AB4527D2AA4609E0D8F80030DAF857
:100770000020C8F80020CAF80030DA451BD9D0465E
:10078000A24441465046B047002814DD002FECD06B
:10079000012F00F0BB8053460AEB0900197898F846
:1007A000002008F8011B03F8012BA0EB0802002A27
:1007B000F4DCDA45E3D8019B1D44039BAB42D0D85F
:1007C000059B002BB3D11BB0BDE8F08F45465146C9
:1007D000DDF80C80002F5AD1019B2268DBF8000065
:1007E0002060CBF800201C44CB44A0464FF0010A07
:1007F000A345BFF407AF5246DA468B46002A3FF4C2
:100800005AAF049B019A02FB03B4069BA8EB0309B1
:10081000A3EB0B024A45A8BF4A46002A40F0A2803B
:100820000199621BA5EB0A03521A9A4228BF1A4685
:10083000002A40F01B8199454D46A4EB030004D2E9
:100840005A461D4683464B461046019A93426AD942
:100850000599072900F2FB80B3FBF2F3B5FBF2F533
:1008600004931AAB03EBC10343E910B54B1C05938A
:1008700083468AE6029945465846013903682A6844
:1008800040F8042B002945F8043BF6DCD2E6012FA2
:100890001FD0019B5A461C44107898F8003008F885
:1008A000010B02F8013BA4EB0803002BF4DC9BE7EF
:1008B0000BD1002F40D1069B20681A681860226077
:1008C000019A981806904FF0010A019B1C44A0461B
:1008D0008EE7029ADC46013AD8F80030DCF80000D6
:1008E00048F8040B002A4CF8043BF4DC019B1C4440
:1008F0007AE7029B5146013BD9F80020086849F885
:10090000040B002B41F8042BF5DCEAE6029B514670
:10091000013BD8F80020086848F8040B002B41F888
:10092000042BF5DC29E7019B9D427FF6FDAE019B80
:10093000B5FBF3F3049328E6012F00F0A780069A95
:10094000019BD01898F800C0137802F801CB08F882
:10095000013B831A002BF5DCB4E7079B13440BEB38
:10096000430A34E6022FA8EB020140F0C5805A4446
:10097000584691F800C0037800F801CB01F8013B1C
:10098000131A002BF5DC0199621BA5EB0A03521A1E
:100990009A4228BF1A46002A3FF44DAFA01A42449B
:1009A000057898F8001008F8015B00F8011BA2EB2D
:1009B00008010029F4DC3EE7B0470028FFF607AE47
:1009C00021462846B04714EA200838BFA846FEE56D
:1009D000D40801FB04F30BEB0305294658461C46DB
:1009E0000393B0474FEA440900280BEB4404214627
:1009F0002846C0F29B80B047002875DD039BA8EB1A
:100A0000030441462046B047039B002808EB03013E
:100A100006914046C0F2A280B04700285BDD039CEF
:100A2000AAEB09094C4421464846B04700285146E4
:100A30002046C0F28780B04700283FF7BDAD514641
:100A40004846B04719EA200438BF5446B4E5019C33
:100A5000B3FBF4F122463346FFF77CFDA5427FF657
:100A600066AE019BB5FBF3F304938EE5022FA4EB76
:100A7000020094D09208013AD8F80010056848F8AE
:100A8000045B002A40F8041BF5DCD4E6DDF818C04E
:100A9000029ADCF80030D8F800004CF8040B013A58
:100AA000002A48F8043BF4DC0698019B184409E747
:100AB000029A5846013A0368D8F8001040F8041B1F
:100AC000002A48F8043BF5DC019B5B4408938BE566
:100AD0004FF0020950E506992046B047069914EAFE
:100AE000200838BF88469AE721465846B0471BEA97
:100AF000200538BF254681E792085846A446013AAA
:100B000003680C6840F8044B002A41F8043BF6DC0B
:100B100001996446621BA5EB0A03521A9A4228BF48
:100B20001A46002A3FF487AEA01AA3E7B047002870
:100B3000FFF664AF21465846B04714EA200538BF97
:100B40005D465BE7B0470028FFF636AD51464846A4
:100B5000B0471AEA200438BF4C462DE5B0470028BC
:100B6000FFF65DAF06992046B047069911EA2008C6
:100B700038BFA04653E753462A46DA4645469B46C9
:100B8000DDF80C803AE600BF08B410B5002A9DB02D
:100B9000044633DB4FF40273ADF814300291069132
:100BA00020AB17D0013A4FF6FF7104920792ADF8CF
:100BB00016101F9A019302A900F048F9421C01DAAD
:100BC0008B232360029B00221A701DB0BDE81040E9
:100BD00001B070474FF6FF7104920792ADF81610FE
:100BE0001F9A019302A900F031F9431C01DA8B230B
:100BF00023601DB0BDE8104001B070478B23036037
:100C00004FF0FF30F5E700BF0CB410B51F4B0029C3
:100C10001C689CB035DB4FF40273ADF814300290C1
:100C200006901FAB18D001394FF6FF72049107915F
:100C3000ADF8162002A91E9A0193204600F006F98D
:100C4000421C01DA8B232360029B00221A701CB025
:100C5000BDE8104002B070474FF6FF720491079153
:100C6000ADF8162002A91E9A0193204600F0EEF876
:100C7000431C01DA8B2323601CB0BDE8104002B096
:100C800070478B2323604FF0FF30F5E70000002012
:100C90002DE9F0478F689F420C461D46164638D80E
:100CA0008246888910F4906F0ED108683D462A4626
:100CB000314600F025FCA2682368D21B2B44A260B9
:100CC00023600020BDE8F0874B69096903EB430806
:100CD000236808EBD878A3EB01096B1C4FEA68087E
:100CE0004B444345424684BF98464246430513D58C
:100CF0001146504600F0E2FC074608B321694A4617
:100D0000FFF73CFBA38923F4906343F08003A381A6
:100D100007E008681F46CAE7504600F029FD07466D
:100D200050B107EB0900A8EB09032761C4F8148050
:100D3000A36020602F46BAE72169504600F05CFCB2
:100D40000C23CAF80030A38943F040034FF0FF3072
:100D5000A381B7E72DE9F04F936883B09146002B4C
:100D60006ED017688D6880460C460868083744E0E6
:100D7000A38913F4906F2ED0D4E90415A0EB010AD7
:100D800005EB450505EBD5750AEB06006D10013046
:100D9000A8422A4684BF05462A465B0537D5114638
:100DA000404600F08BFC00283BD052462169019060
:100DB000FFF7E4FAA289019B22F4906242F08002DC
:100DC000A281A5EB0A0203EB0A006561A260236120
:100DD00020603546B2465946524600F091FBA06865
:100DE000D9F808102368451B8E1B03EB0A00A56089
:100DF0002060C9F808601EB3083757E902B6002E14
:100E0000FAD0B542AA46B3D93546B246E3E74046E2
:100E100000F0AEFC03460028D3D12169404600F023
:100E2000EBFB0C23C8F80030A389002243F04003F9
:100E30004FF0FF30A381C9E9012203B0BDE8F08F74
:100E40000020C9F8040003B0BDE8F08F2DE9F04F91
:100E500092468A8915069DB0884681461C4603D570
:100E60000A69002A00F0EF80002209929AF8003007
:100E70007E4D039420228DF8292030228DF82A20DF
:100E80000126002B72D0544603E014F8013F002BDA
:100E900076D0252BF9D1B4EB0A0B74D12278002A35
:100EA00064D000234FF0FF32CDE90523049307936C
:100EB0008DF853301A93013404E0049A06FA03F3D0
:100EC00013430493A246052214F8011B284600F0A0
:100ED000C7FA431B0028F0D1049BD80644BF202248
:100EE0008DF8532019079AF8001044BF2B228DF873
:100EF00053202A2954D1039A1168043200290392FD
:100F00007CDB07919AF801100AF1010A2E2959D0C9
:100F1000574C0322204600F0A3FA40B1049B001B6B
:100F2000402404FA00F0034304930AF1010A1AF87A
:100F3000011B50488DF82810062200F091FA002875
:100F400062D04D4B002B52D003AA00924B4B42462D
:100F500004A94846AFF3008007467A1C06D0099BD7
:100F60003B4409939AF80030002B8CD1B8F80C3030
:100F70005B0654BF09984FF0FF301DB0BDE8F08FFD
:100F8000B4EB0A0BF2D05B46524641464846FFF7A7
:100F90007FFE0130EAD0099B22785B4409937EE70B
:100FA000A1F13002092AB1D8079B1AF8011F03EBFF
:100FB000830302EB4303A1F13002092AF5D92E295C
:100FC0000793A5D19AF801102A2927D1039B9AF8F3
:100FD00002101A6805920433002A0AF102000393F2
:100FE000B8BF4FF0FF338246B8BF059390E7039B2D
:100FF000073323F0070308330393B0E7494243F074
:101000000203079104937DE703AA00921B4B42461B
:1010100004A9484600F0CAF807469EE7A1F130024D
:101020000023092A05930AF1010A3FF671AF1AF865
:10103000011F03EB830302EB4303A1F13002092AF2
:10104000F5D9059364E7402100F038FBC8F80000AB
:10105000C8F8100018B14022C8F8142004E70C2387
:10106000C9F800304FF0FF3087E700BF64D60008B2
:101070006CD6000870D6000800000000910C000833
:101080002DE9F84F92461F460A698B68DDF82890D3
:101090009A42B8BF1A46CAF8002091F843300C466D
:1010A000064613B10132CAF80020226891065DD5C8
:1010B000DAF800300233CAF80030226812F0060F66
:1010C00011461ED1E168CB1A002BD8BF114618DD9E
:1010D00004F1190B4FF0000805E0E568DAF800307C
:1010E000ED1A45450CDD01235A4639463046C847BE
:1010F000013008F10108F0D14FF0FF30BDE8F88F62
:10110000216894F84330003B18BF01238A060AD5B2
:10111000E1185A1C302081F84300224494F845100D
:1011200082F84310023304F1430239463046C8477F
:101130000130E1D0236803F00603042B1DD0A3681F
:101140002269934225DD4FF000089B1A98441A3417
:10115000002501E045451CDA012322463946304688
:10116000C847013005F10105F4D1C5E712F0060FBB
:1011700012D0003B18BF0123D5E7DAF80030E16850
:101180002269C91AA368934221EAE178DDDC0029CB
:10119000DDDC0020BDE8F88FE168DAF80030CB1A1A
:1011A000002BD8BF114693DCABE700BF2DE9F04719
:1011B0000C4684B09046227E0C990746994604F16D
:1011C0004300002A33D0A2F15803DDB2202D67D8A6
:1011D000202B65D8DFE813F0DE00640064006400B3
:1011E0006400640064006400640064006400A300A0
:1011F0006E0064006400640064006E0064006400BB
:101200006400640021007F00C00064006400AE0040
:1012100064007F0064006400E50023681A0640F162
:1012200004810B6862691D1D0D601B681A60002334
:1012300082462361CDF80090434603AA21463846F2
:10124000FFF71EFF013020D0236952464146384641
:10125000C847013019D02368E068039E9B0719D561
:10126000831B002B16DD04F1190A002504E0E06859
:10127000039E831BAB420DDD012352464146384697
:10128000C847013005F10105F1D14FF0FF3004B03E
:10129000BDE8F087B042B8BF304604B0BDE8F08783
:1012A000012384F84220236104F1420A002384F8D8
:1012B0004330BFE723681A0602D45E0600F1C180FE
:1012C0000D682A6804350D601546002A6BDBDFF8CF
:1012D00084C10A2610E023681D0640F19C800B683B
:1012E0001D1D0D601D68DFF86CC16F2A0CBF08263C
:1012F0000A26002384F843306268A260002A7FDB5C
:10130000236823F004032360002D5BD1002A79D1E8
:101310008246082E65D0A0EB0A0020618AE70B68A0
:101320000122186804330B6004F1420A84F8420079
:101330002261BBE70B686268181D0860D3F800A043
:101340000021504600F08CF8002800F08180A0EBCE
:101350000A0060602061A9E7236843F0200323604E
:101360007822DFF8F4C084F845200A68151D0D6066
:101370001D0643D4590641D51588DE0744BF43F006
:1013800020032360002D44D1236823F02003236031
:101390001026AEE7582384F84530DFF8B8C023683C
:1013A000E3E72368DCE76268A2602D21002AC5F12B
:1013B000000584F8431002DB23F004032360DFF808
:1013C00094C00A268246B5FBF6F306FB13512A4663
:1013D0001CF801100AF8011DB2421D46F3D2082E76
:1013E00099D12368D90796D5626823699A4292DC1D
:1013F00030230AF8013C0AF1FF3A8CE71568BCE794
:10140000002DDFD19CF8003084F8423004F1420A0C
:101410007FE710266DE713F0400F0B6803F104051A
:101420000D600CBF1D681D885DE713F0400F0B6851
:10143000626903F104050D601B6814BF1A801A600D
:10144000F5E60A68B2F9005004320A602A463CE721
:1014500060687FE778D600088CD60008000000009E
:1014600001F0FF01102A2BDB10F0070F08D010F855
:10147000013B013A8B422DD010F0070F42B3F6D159
:10148000F0B441EA012141EA014122F007047FF072
:1014900000070023F0E80256083C85EA010586EAC9
:1014A000010685FA47F5A3FA87F586FA47F6A5FA05
:1014B00087F68EB9EED1F0BC01F0FF0102F0070211
:1014C00032B110F8013B013A83EA010313B1F8D1BC
:1014D0000020704701387047002D06BF354603389D
:1014E000073815F0010F07D1013015F4807F02BFD6
:1014F000013015F4C03F0130F0BC0138704700BF27
:1015000088420DD98B1883420AD900EB020CBAB17C
:10151000624613F801CD02F801CD9942F9D1704726
:101520000F2A0ED8034602F1FF3C4AB10CF1010C20
:10153000013B8C4411F8012B03F8012F6145F9D1CF
:10154000704740EA01039B0750D1A2F1100370B528
:1015500001F1200C23F00F0501F1100E00F1100431
:10156000AC441B095EF8105C44F8105C5EF80C5C3F
:1015700044F80C5C5EF8085C44F8085C5EF8045CB7
:1015800044F8045C0EF1100EE64504F11004E9D1B4
:10159000013312F00C0F01EB031102F00F0400EB0A
:1015A000031327D0043C24F003064FEA940C1E4496
:1015B0001C1F8E465EF8045B44F8045FB442F9D108
:1015C0000CF1010402F0030203EB840301EB84013C
:1015D00002F1FF3C4AB10CF1010C013B8C4411F8C3
:1015E000012B03F8012F6145F9D170BD02F1FF3CD9
:1015F00003469BE72246EBE7002958D030B551F867
:10160000043C83B0002BA1F10404B8BFE41801909E
:1016100000F0E8F8284A0198136833B1A3420DD9C5
:10162000216804EB010C63452FD06360146003B0A4
:10163000BDE8304000F0D8B8A34210D81A465B6825
:10164000002BF9D1116802EB010C644519D02FD39E
:101650006360546003B0BDE8304000F0C5B8116865
:1016600002EB010CA44516D022D8216804EB010C32
:101670006345EDD11D685B682944C4E900135460DB
:10168000D5E7236819441160D1E71D685B682944D8
:10169000C4E90013CAE7246821445418A342116026
:1016A000C5D1D3E900432144C2E90013BFE7704725
:1016B0000C230360BBE700BF98000020F8B5CD1CE9
:1016C00025F0030508350C2D38BF0C25002D0646E6
:1016D00023DBA94221D8254F00F084F83A6822B3D1
:1016E000144603E063682246FBB11C4623685B1B7B
:1016F000F8D40B2B15D8636894420CBF3B60536041
:10170000304600F071F804F10B00231D20F00700B3
:10171000C21A01D01B1AA350F8BD0C23336000205D
:10172000F8BD23601C442560EAE77968C9B1294601
:10173000304600F045F8431C0CD0C41C24F00304D0
:10174000A04205D0211A304600F03AF8013001D00D
:101750002560D5E70C233046336000F045F80020C3
:10176000F8BD304600F02CF87860E0E798000020E3
:10177000F8B51446F9B1CAB106460D4600F036F880
:10178000A04202D32F463846F8BD21463046FFF727
:1017900095FF07460028F6D022462946FEF7EEFDC3
:1017A00030462946FFF728FF3846F8BD2746FFF7A1
:1017B00023FF3846F8BDBDE8F8401146FFF77EBF6D
:1017C00038B5074D0022044608462A6008F04CF957
:1017D000431C00D038BD2B68002BFBD0236038BDE4
:1017E000A0000020704700BF704700BF51F8040CF4
:1017F0000028A0F10400BCBF0B58C018704700BF00
:1018000038B510EE104AC4F30A53B3F57D7FB7EE36
:10181000C07A1ED227EE077BB3F5667F6FD327EE23
:10182000071B634B93ED142B93ED125B93ED0E3B73
:10183000A7EE025B93ED0C0B93ED104BA7EE030BA1
:1018400027EE017BA1EE040BA5EE070BB7EEC00B54
:1018500038BD40F22E42934254D8554991ED086B61
:1018600027EE066BFDEEC66B91ED0A5B16EE903A25
:1018700003F500031B1613F0020F06EE903A01F178
:10188000700208BF0A46D807B8EEE66BA6EE457BA5
:1018900027EE076B1AD503F0030301EBC30393EDA7
:1018A000002B92ED1A4B92ED185B92ED163BA6EED3
:1018B000045B27EE027B27EE064B26EE046BA4EEBC
:1018C000037BA5EE067BB7EEC70B38BD92ED142B5C
:1018D00092ED127B92ED0E3B92ED0C0B92ED104BC4
:1018E00026EE065BA6EE027BA6EE030B26EE056B4C
:1018F000A5EE040BA7EE060BB7EEC00B38BDB7EE96
:10190000000A38BDB3F5FF6F3DD22A4BC4F38362A2
:1019100003EB820153F822200D69C4F31603C4F3CC
:10192000C25043F400038340086A03FB02F2A3FBA6
:101930000010E3FB050202F100518D0F01F0404160
:10194000511A00F08FFF1C4B9FED177B05EBD474F1
:1019500041EC160B14F0020FA3F1700208BF1346FE
:10196000E90726EE077B27EE076B10D504F003048A
:1019700002EBC40494ED002B93ED1A4B93ED185B2E
:1019800093ED163B93E7BDE8384000F053B893ED74
:10199000142B93ED127B93ED0E3B93ED0C0B93ED1B
:1019A000104B9DE7AFF30080182D4454FB21193CE8
:1019B00048D30008E8D20008B8D3000810B582B0B8
:1019C0008DED010A0446FEF7AFFC9DED010A0460AF
:1019D00002B010BD28B1F1EE407A27EE800A222035
:1019E000ECE7F0EE407A27EE800A2220E6E700BF1F
:1019F0009FED010AEEE700BF000000109FED010A15
:101A0000E8E700BF0000201A9FED010AE2E700BFEF
:101A1000000000709FED060AFFEE007AB7EE007A34
:101A200000284FF0220047FE277A87EE800AC5E79C
:101A30000000000070EE407AB4EE400A87EEA77A0C
:101A4000F1EE10FAB0EE470A01D62120B6E7704752
:101A500030B510EE104AC4F30A53B3F57D7FB7EEEC
:101A6000C06A83B01BD226EE065BB3F5667F70D3E7
:101A700026EE052B25EE021B754B93ED1A3B93EDDD
:101A8000187B93ED164BA5EE037BA2EE046BB0EE34
:101A9000460BA7EE010BB7EEC00B03B030BD40F212
:101AA0002E42934260D86A4991ED087B26EE077B6F
:101AB000FDEEC77B91ED0A5B17EE903A03F500034C
:101AC0001B1613F0020F07EE903A01F1700208BFE7
:101AD0000A46D807B8EEE77BA7EE456BB0EE460B9B
:101AE00026EE067B1BD403F0030301EBC30392ED48
:101AF0001A5B93ED003B92ED186B20EE030B92ED19
:101B0000164BA7EE056B20EE075B27EE057BA5EED7
:101B1000040BA6EE070BB7EEC00B03B030BD92ED81
:101B2000142B27EE075B92ED126B92ED0E3BA7EEA6
:101B3000026B92ED0C0B92ED104BA7EE030B27EE10
:101B4000057BA5EE040BA6EE070BB7EEC00B03B0AA
:101B500030BD220D12F4FF6FDFD1B7EEC55B00EE92
:101B6000104A8DED015AD8E7B3F5FF6F4BD2394BD0
:101B7000C4F3836203EB820153F822200D69C4F39E
:101B80001603C4F3C25043F400038340086A03FB06
:101B900002F2A3FB0010E3FB050202F100518D0FDE
:101BA00001F04041511A00F05DFE2B4B9FED267B6A
:101BB00005EBD47441EC160B14F0020FA3F1700284
:101BC00008BF1346E90726EE077B27EE076B1FD4F5
:101BD00004F0030402EBC40493ED1A4B94ED002BC4
:101BE00093ED185B27EE027B93ED163BA6EE045BAC
:101BF00027EE064B26EE046BA4EE037BA5EE067BD8
:101C0000B7EEC70B89E703B0BDE83040FFF712BF5E
:101C100093ED142B26EE065B93ED127B93ED0E3BBA
:101C2000A6EE027B93ED0C0B93ED104BA6EE030B8F
:101C300026EE056BA5EE040BA7EE060BB7EEC00B68
:101C40006BE700BFAFF30080182D4454FB21193C13
:101C500048D30008E8D20008B8D30008000000000C
:101C600008B52DED048BB0EE408B00F0B5F8104BAD
:101C700093F9003001330BD0B4EE488BF1EE10FA3B
:101C800006D69FED099BB4EEC98BF1EE10FA02D493
:101C9000BDEC048B08BDFEF747FB89EE090BBDECDC
:101CA000048B2123036008BD000000000000000039
:101CB0006400002008B52DED028BB0EE408A00F0E4
:101CC0008FF8144B93F900300133F0EE408A0FD0B7
:101CD000B4EE488AF1EE10FA0AD6B0EE480A00F0E7
:101CE00025FCF7EE007AB4EEE70AF1EE10FA04DC18
:101CF000B0EE680ABDEC028B08BDFEF715FBBDEC2B
:101D0000028B034621221A600348BDE8084000F018
:101D100015BC00BF6400002048D5000808B52DEDB3
:101D2000028BB0EE408A00F07FF9144B93F900303B
:101D30000133F0EE408A0FD0B4EE488AF1EE10FA8B
:101D40000AD6B0EE480A00F0F1FBF7EE007AB4EEE6
:101D5000E70AF1EE10FA04DCB0EE680ABDEC028B83
:101D600008BDFEF7E1FABDEC028B034621221A60A2
:101D70000348BDE8084000F0E1BB00BF640000205C
:101D800048D5000800F056BA08B52DED028BB0EE2C
:101D9000408A00F0F3FA0E4B93F9003001330BD078
:101DA000B4EE488AF1EE10FA06D6DFED0A8AB4EEF8
:101DB000E88AF1EE10FA02D4BDEC028B08BDFEF702
:101DC000B3FA88EEA80ABDEC028B2123036008BD9C
:101DD0006400002000000000B1EEC00B704700BF9F
:101DE00008B510EE102A22F00043B3F17E5F2DED0E
:101DF000028B12D00ADCB3F17C5F18DAB3F10C5F0E
:101E00006BDCBDEC028B9FED770A08BD70EE407A6B
:101E100087EEA70ABDEC028B08BDBDEC028B9FEDDF
:101E2000720ADFED727A002A30FE270A08BD002A06
:101E3000C0F29080F7EE008A38EEC00AB6EE008A53
:101E400020EE088AB0EE480A00F098FADFED687AD2
:101E50009FED687A9FED686ADFED685ADFED686A8A
:101E6000A8EE277ADFED677AA7EE086AE8EE257A12
:101E7000E6EE086ADFED645A9FED647AE7EE885A71
:101E8000A6EE887ADFED627A10EE103AE5EE887AF7
:101E900023F47F6323F00F03B0EE476A9FED5D7A72
:101EA000F0EE676AA6EE087A07EE903AB0EE486A5E
:101EB000E6EE888AA7EEE76A70EE276A27EE088AC0
:101EC00086EE267AC8EE286ABDEC028BA0EE267A52
:101ED00037EE870A30EE000A08BD20EE007ADFED0B
:101EE000447A9FED446ADFED446A9FED445ADFED8A
:101EF000445AA7EE276ABDEC028BE6EE076ADFEDD7
:101F0000417A9FED416AE7EE057AE6EE875AA7EE41
:101F1000876A9FED3E5ADFED3E7ADFED3E6AA5EE21
:101F2000875AE6EE077AE5EE076AF7EE005AE7EE23
:101F3000875A26EE877A9FED386ADFED387AC7EE4A
:101F4000256AB0EE467AA0EE667A30EE470A37EEA2
:101F5000C00A08BDB7EE007A30EE070AF6EE007A46
:101F600060EE277ADFED226A9FED226ADFED224ADA
:101F7000DFED225A9FED225A9FED268AA7EEA66A30
:101F8000DFED206AE6EE274AE7EEA56ADFED1E5A8E
:101F90009FED1E6AA4EEA75AE6EEA75ADFED1C6A73
:101FA000A5EE276AE5EEA76AA6EE278AA6EEA77A2F
:101FB00028EE278AF0EE478AB0EE670A00F0DEF9D5
:101FC00088EE286ADFED167AB0EE407AE7EE067A00
:101FD0009FED140A77EE877AF0EE006AA7EEE60A24
:101FE00018E700BFDB0FC93F00000000DB0F4940CE
:101FF00008EF1138047F4F3A461124BD2EC69D3D8F
:10200000A80A4E3E613330BF2D57014090B0A6BEA6
:1020100039D119C0ABAA2A3E6821A233DA0FC93FD1
:102020006821A2B3DA0F494038B510EE105A25F0F6
:102030000044B4F17E5F2DED048B00F085807ADCE6
:10204000B4F17C5F0FDAB4F1485F80F29C80DFED81
:10205000697A70EE277AB7EE007AF4EEC77AF1EE7D
:1020600010FA00F38D8000F061FAF7EE007A37EE97
:10207000C00AB6EE008A20EE088A9FED5F7ADFED97
:102080005F6A9FED5F6A9FED5F5ADFED5F5ADFED9C
:102090005F8AE8EE076A9FED5E7AA8EE067A9FED0A
:1020A0005D6AA6EE885AA7EE086A9FED5B7ADFEDBF
:1020B0005B6AE5EE085AA6EE087AE5EE886AE7EE76
:1020C000087AE6EE888AB0EE480AB0EE679A00F029
:1020D00055F9534B9C4268EE888A42DC10EE103A68
:1020E00023F47F6323F00F0306EE903AA6EEE68A10
:1020F00070EE267A88EE895AC8EE274A9FED497A13
:10210000DFED497AB0EE006AA4EEC67A30EE000A3E
:10211000F0EE675AE6EEC65A90EE057A37EE657A2B
:1021200037EEC77A002D0ADCBDEC048BB1EE477A9E
:10213000B0EE470A38BD70EE407A87EEA77ABDEC64
:10214000048BB0EE470A38BD9FED367ADFED377A63
:1021500020EE077ABDEC048BA0EE277AB0EE470A9A
:1021600038BD88EE896A9FED327ADFED307AA0EED5
:10217000060AF0EE006AA0EE267A37EEC77AD1E7BB
:10218000B0EE407ADBE760EE007A9FED1B7ADFED80
:102190001B6A9FED1C6ADFED1A5A9FED1B5AE7EE92
:1021A000876ABDEC048BA6EEA76A9FED197ADFED76
:1021B000196AA7EEA57AA6EE275AE7EE276ADFEDA1
:1021C000175A9FED156A9FED117AE5EE275AA6EE94
:1021D000A76AA5EEA77AF7EE006AE6EE276A67EE31
:1021E000277AB0EE407A87EEA66AA0EE067AB0EEC5
:1021F000470A38BDCAF2497108EF1138047F4F3AD7
:102200002EC69D3D461124BDA80A4E3EABAA2A3ECD
:10221000613330BF2D57014039D119C090B0A6BEEF
:102220009999793F2EBD3BB3DB0F493FDB0FC93F87
:102230002EBD3B3310B582B0CDED010A019B23F0DA
:102240000042B2F1FF4FF0EE407A30DC10EE100A9F
:1022500020F00041B1F1FF4F29DCB3F17E5F40D0A7
:102260009C1704F0020444EAD07431B372B3B2F1A3
:10227000FF4F3ED0B1F1FF4F28D08A1AB2F1F45F80
:102280004FEAE25132DA002B40DA3C313EDA9FED80
:10229000330A012C4CD0022C41D064B19FED307A2E
:1022A000DFED307A30EE070A30EE670A03E09DED8D
:1022B000017A37EE270A02B010BD022C0ED09FED36
:1022C0002A0A032C00FE270A02B010BD9FED270A40
:1022D000DFED277A002820FE270AECE79FED210A90
:1022E000E9E702B0BDE8104000F04CB89FED1F0ACE
:1022F000CFE7B1F1FF4F04F1FF3420D0022C26D8F4
:102300001C4B03EB840494ED030AD4E79DED017AA2
:1023100087EE870A00F00AF900F034F8B9E79FED7C
:10232000107ADFED107A30EE070A37EEC00AC2E706
:1023300010EE103A03F1004300EE103ABBE7022C16
:1023400008D80C4B03EB840494ED000AB3E79FED2F
:10235000030AB0E79FED080AADE700BF00000000E8
:102360002EBDBB33DB0F4940DB0F49C0DB0FC93F3C
:10237000DB0FC9BF28D40008DB0F493FB1EEC00A0C
:10238000704700BF38B510EE105A25F00044B4F184
:10239000A14FF0EE407A0ADBB4F1FF4F57DCDFEDDE
:1023A000517A9FED510A002D37FE800A38BD4F4B00
:1023B0009C425BDCB4F1445F4CDB4FF0FF3267EED4
:1023C000A76ADFED4B4ADFED4B5A9FED4B5A9FED6D
:1023D0004B4A26EEA67AB0EE666AE7EE245A531C04
:1023E000DFED474ADFED476AA5EE875AE7EE246A3C
:1023F000DFED455ADFED454AE6EE875AA5EE074A7E
:102400009FED435ADFED436AA5EE875AE4EE074A93
:10241000DFED415AE4EE876AE5EE075A66EE866A1A
:1024200025EE877A37D03D4B03EB820376EE876A41
:1024300093ED000A93ED047A96EEA70A002D70EE54
:10244000677A37EE670AB1DAB1EE400A38BD30EE8E
:10245000000A38BD9FED327A30EE077AF7EE006A57
:10246000B4EEE67AF1EE10FAA7DD38BD00F05EF8C2
:102470002C4B9C4216DCA3F5D0039C4227DCF0EEEB
:10248000007ABFEE007AA0EE277A002230EE270A0B
:10249000C7EE007A93E776EE876AE6EEE77AB0EE6B
:1024A000670A38BD204B9C420BDCF7EE087AB7EE8A
:1024B000007AA0EE277A022230EE670AC0EE077A91
:1024C0007DE7BFEE007AC7EE007A032277E7F7EEEA
:1024D000007A30EE677A30EE270A0122C7EE007AE2
:1024E0006DE700BFDB0FC93FDB0FC9BFFFFFDF3E5A
:1024F000D769853C59DA4B3D356B883D6E2EBA3D28
:1025000021A215BD6BF16EBD95879DBD2549123E7B
:10251000388EE3BDABAAAA3ECDCC4CBE40D4000859
:10252000CAF24971FFFF973FFFFF1B4010EE103AC0
:1025300023F0004300EE103A704700BF9FED010A00
:10254000704700BF0000C07F81F0004102E000BF83
:1025500083F0004330B54FEA41044FEA430594EA63
:10256000050F08BF90EA020F1FBF54EA000C55EA9E
:10257000020C7FEA645C7FEA655C00F0E2804FEA6F
:102580005454D4EB5555B8BF6D420CDD2C4480EA51
:10259000020281EA030382EA000083EA010180EA81
:1025A000020281EA0303362D88BF30BD11F0004FCF
:1025B0004FEA01314FF4801C4CEA113102D0404205
:1025C00061EB410113F0004F4FEA03334CEA133340
:1025D00002D0524263EB430394EA050F00F0A78058
:1025E000A4F10104D5F1200E0DDB02FA0EFC22FA53
:1025F00005F2801841F1000103FA0EF2801843FA47
:1026000005F359410EE0A5F120050EF1200E012A37
:1026100003FA0EFC28BF4CF0020C43FA05F3C01875
:1026200051EBE37101F0004507D54FF0000EDCF1EE
:10263000000C7EEB00006EEB0101B1F5801F1BD397
:10264000B1F5001F0CD349085FEA30004FEA3C0C9B
:1026500004F101044FEA445212F5800F80F09A8091
:10266000BCF1004F08BF5FEA500C50F1000041EB95
:10267000045141EA050130BD5FEA4C0C404141EB99
:102680000101013C28BFB1F5801FE9D291F0000F94
:1026900004BF01460020B1FA81F308BF2033A3F143
:1026A0000B03B3F120020CDA0C3208DD02F1140C3A
:1026B000C2F10C0201FA0CF021FA02F10CE002F175
:1026C0001402D8BFC2F1200C01FA02F120FA0CFC6E
:1026D000DCBF41EA0C019040E41AA2BF01EB0451B7
:1026E000294330BD6FEA04041F3C1CDA0C340EDCB5
:1026F00004F11404C4F1200220FA04F001FA02F3F8
:1027000040EA030021FA04F345EA030130BDC4F1B5
:102710000C04C4F1200220FA02F001FA04F340EAAA
:102720000300294630BD21FA04F0294630BD94F05B
:10273000000F83F4801306BF81F480110134013D42
:102740004EE77FEA645C18BF7FEA655C29D094EAB3
:10275000050F08BF90EA020F05D054EA000C04BF31
:102760001946104630BD91EA030F1EBF002100201C
:1027700030BD5FEA545C05D14000494128BF41F0BB
:10278000004130BD14F580043CBF01F5801130BD1F
:1027900001F0004545F0FE4141F470014FF00000AA
:1027A00030BD7FEA645C1ABF194610467FEA655C5B
:1027B0001CBF0B46024650EA013406BF52EA0335FD
:1027C00091EA030F41F4002130BD00BF90F0000FEB
:1027D00004BF0021704730B54FF4806404F1320427
:1027E0004FF000054FF0000150E700BF90F0000FE0
:1027F00004BF0021704730B54FF4806404F1320407
:1028000010F0004548BF40424FF000013EE700BFD6
:1028100042004FEAE2014FEA31014FEA02701FBF66
:1028200012F07F4393F07F4F81F06051704732F098
:102830007F4208BF704793F07F4F04BF41F40021EF
:10284000704730B54FF4607401F0004521F000414D
:102850001CE700BF50EA010208BF704730B54FF0D7
:1028600000050AE050EA010208BF704730B511F0D8
:10287000004502D5404261EB41014FF4806404F110
:1028800032045FEA915C3FF4D8AE4FF003025FEA96
:10289000DC0C18BF03325FEADC0C18BF033202EB1A
:1028A000DC02C2F1200300FA03FC20FA02F001FA74
:1028B00003FE40EA0E0021FA02F11444BDE600BF17
:1028C00053B94AB9002908BF00281CBF4FF0FF3197
:1028D0004FF0FF3000F074B9ADF1080C6DE904CE93
:1028E00000F006F8DDF804E0DDE9022304B07047EB
:1028F0002DE9F047089D04468E46002B4DD18A42B3
:10290000944669D9B2FA82F252B101FA02F3C2F1E5
:10291000200120FA01F10CFA02FC41EA030E944076
:102920004FEA1C48210CBEFBF8F61FFA8CF708FB97
:1029300016E341EA034306FB07F199420AD91CEB6F
:10294000030306F1FF3080F01F81994240F21C81A1
:10295000023E63445B1AA4B2B3FBF8F008FB1033E9
:1029600044EA034400FB07F7A7420AD91CEB04041E
:1029700000F1FF3380F00A81A74240F207816444EE
:10298000023840EA0640E41B00261DB1D440002373
:10299000C5E900433146BDE8F0878B4209D9002DD7
:1029A00000F0EF800026C5E9000130463146BDE861
:1029B000F087B3FA83F6002E4AD18B4202D38242CB
:1029C00000F2F980841A61EB030301209E46002D7A
:1029D000E0D0C5E9004EDDE702B9FFDEB2FA82F2CF
:1029E000002A40F09280A1EB0C014FEA1C471FFA2D
:1029F0008CFE0126200CB1FBF7F307FB131140EA14
:102A000001410EFB03F0884208D91CEB010103F1E0
:102A1000FF3802D2884200F2CB804346091AA4B2A2
:102A2000B1FBF7F007FB101144EA01440EFB00FE76
:102A3000A64508D91CEB040400F1FF3102D2A645DB
:102A400000F2BB800846A4EB0E0440EA03409CE77A
:102A5000C6F12007B34022FA07FC4CEA030C20FA27
:102A600007F401FA06F31C43F9404FEA1C4900FA47
:102A700006F3B1FBF9F8200C1FFA8CFE09FB1811C4
:102A800040EA014108FB0EF0884202FA06F20BD937
:102A90001CEB010108F1FF3A80F08880884240F287
:102AA0008580A8F102086144091AA4B2B1FBF9F0CB
:102AB00009FB101144EA014100FB0EFE8E4508D9C6
:102AC0001CEB010100F1FF346CD28E456AD902384B
:102AD000614440EA0840A0FB0294A1EB0E01A14230
:102AE000C846A64656D353D05DB1B3EB080261EB9E
:102AF0000E0101FA07F722FA06F3F1401F43C5E978
:102B0000007100263146BDE8F087C2F12003D840AD
:102B10000CFA02FC21FA03F3914001434FEA1C47EF
:102B20001FFA8CFEB3FBF7F007FB10360B0C43EAE1
:102B3000064300FB0EF69E4204FA02F408D91CEB91
:102B4000030300F1FF382FD29E422DD9023863448F
:102B50009B1B89B2B3FBF7F607FB163341EA03412F
:102B600006FB0EF38B4208D91CEB010106F1FF387E
:102B700016D28B4214D9023E6144C91A46EA004675
:102B800038E72E46284605E70646E3E61846F8E607
:102B90004B45A9D2B9EB020864EB0C0E0138A3E750
:102BA0004646EAE7204694E74046D1E7D0467BE731
:102BB000023B614432E7304609E76444023842E7A9
:102BC000704700BF10B584B00024009401940294B3
:102BD000039401F0E5FE01238DF800308DF80140EB
:102BE00001941F228DF8082087228DF809208DF886
:102BF0000A408DF80B408DF80C308DF80D308DF8B3
:102C00000E408DF80F40684601F0E8FE042001F008
:102C1000D5FE04B010BD000008B50268034B9A420F
:102C200000D008BD06F0E0F8FBE700BF000001405F
:102C300072B6FEE700B59FB04C2200210BA8FDF74D
:102C400037FC2022002103A8FDF732FC022006F009
:102C500073F800230093394BDA6A22F00102DA623A
:102C6000DB6A03F001030093354B9A6942F440425A
:102C70009A619B6903F440430093009B304B9B692E
:102C800013F4005FFAD02F4BD3F8F42042F0020285
:102C9000C3F8F420D3F8F43003F002030193019B4E
:102CA00000230293264B9A6942F440429A619B6941
:102CB00003F440430293214BDA6A42F00102DA62E4
:102CC000DB6A03F001030293029B1D4B9B6913F423
:102CD000005FFAD001230B934FF480330C9302234F
:102CE0001493159305221692C022179218931993E4
:102CF0001A9308231B9300231C931D930BA802F027
:102D0000FBFCB0B93F2303930323049300230593F3
:102D1000082306934023079308934FF48062099297
:102D20000A93042103A803F03BF920B91FB05DF812
:102D300004FBFFF77DFFFFF77BFF00BF0004005897
:102D4000004802580044025830B58BB0FFF73AFFF4
:102D500006F01CF8FFF76EFF00F070FF06F024FF8E
:102D600001F06EFA01F0C6FA01F042FB01F09AFBA5
:102D700001F0D4FB01F00EFC01F084FC01F0DAFC60
:102D800006F096FE06F034FF01F0A8F901F000FA13
:102D900000F07EFA00F0FEF8022000F08DF901202C
:102DA00000F090F9012000F093F9092000F09CF95F
:102DB00000230893ADF824300693ADF81C3004933B
:102DC000ADF814300023039303AB04AA06A908A8A6
:102DD00000F0C0F9BDF91A30BDF91C201D4D1E4C84
:102DE00001920093BDF918302A4680212046FDF754
:102DF0000BFFBDF91A30BDF91C2001920093BDF9FB
:102E000018302A4680212046FDF7FEFE09F0A4FE78
:102E100008F062FA09F0B2FEBDF91A30BDF91C20C3
:102E20000C4D0D4C01920093BDF918302A468021BB
:102E30002046FDF7E9FEBDF91A30BDF91C200192CC
:102E40000093BDF918302A4680212046FDF7DCFEAC
:102E5000E2E700BF60D40008A400002008B56423A6
:102E60000122D021034806F0A1FC08B9012008BDC9
:102E70000020FCE7AC04002000B585B04FF0FF3324
:102E800002930192009001230A46D021024806F0E5
:102E9000B7FB05B05DF804FBAC040020F0B585B0CD
:102EA0000446154661F07F018DF80F10094E4FF072
:102EB000FF37009701230DF10F02D021304606F0B5
:102EC0000FFA00972B462246D021304606F0DAFA58
:102ED00005B0F0BDAC04002000B583B08DF807103C
:102EE000012201460DF10700FFF7C6FF0A2005F099
:102EF0008DFF03B05DF804FB08B513460A46014692
:102F00001846FFF7CBFF08BD10B5044C224601213F
:102F10007520FFF7F1FF207810BD00BF24010020CD
:102F200038B505460C460C212520FFF7D5FF29466C
:102F30002620FFF7D1FF21466320FFF7CDFF812137
:102F40002720FFF7C9FF38BD70B506460C46154669
:102F50008C212520FFF7C0FF31462620FFF7BCFF5C
:102F600044F080012720FFF7B7FF012005F04EFF56
:102F70002A4621464920FFF7BFFF70BD10B5044C1B
:102F8000224601210020FFF7DFFF207810BD00BF9F
:102F90002401002008B50AE04FF47A734022424928
:102FA000424807F0C5FE4FF4967005F02FFFFFF77B
:102FB00055FF0028F0D001216B20FFF78DFF202165
:102FC0006A20FFF789FF0D212420FFF785FF0021EC
:102FD0000A20FFF7A5FF80216B20FFF77DFF0A2065
:102FE00005F014FF01210B20FFF79AFF01216B2050
:102FF000FFF772FFFFF788FF712818BF732801D011
:10300000012008BD00216C20FFF766FF18211C205D
:10301000FFF762FF00211B20FFF75EFF01211D204B
:10302000FFF75AFF01211A20FFF756FF0021192050
:10303000FFF752FF20216A20FFF74EFF0D212420C9
:10304000FFF74AFFFFF79AFF482801D00120D8E791
:1030500000210A20FFF764FF642005F0D7FE0F214E
:103060000A20FFF75DFF642005F0D0FE104A03211F
:103070001020FFF769FF00210A20FFF751FF6420AD
:1030800005F0C4FE16210A20FFF74AFF642005F070
:10309000BDFE01216B20FFF71FFF064A0721032019
:1030A000FFF752FF0020ACE77CD40008F0050020B9
:1030B0003C0100202401002008B501461C20FFF738
:1030C0000BFF08BD08B501461B20FFF705FF08BD33
:1030D00010B5044601461D20FFF7FEFE21461A20CA
:1030E000FFF7FAFE10BD000010B5044613211920A9
:1030F000FFF7F2FE092C17D900210A20FFF710FF75
:10310000642005F083FE12210A20FFF709FF6420E6
:1031100005F07CFE0E4A07210320FFF715FF21462C
:103120001920FFF7D9FE10BD00210A20FFF7F8FE95
:10313000642005F06BFE16210A20FFF7F1FE6420E3
:1031400005F064FE024A07210320FFF7FDFEE6E7D3
:10315000240100202DE9F04180460D4617461E4609
:10316000474C224615213B20FFF7C6FE22786378A4
:1031700043EA0223A8F80030A278E37843EA022366
:10318000A8F802302279637943EA0223A8F80430D0
:10319000227A637A43EA02233B80A27AE37A43EA03
:1031A00002237B80227B637B43EA0223BB80E37B99
:1031B0001B021BB2A27B134306EE903A637C1B02F8
:1031C0001BB2227C134307EE103AE27C120212B2C9
:1031D000A37C134307EE903AF8EEE66A294A137887
:1031E000803B06EE103AB8EEC66A9FED275A26EEEF
:1031F000056AF7EE005A36EE256A66EE866AFDEE3F
:10320000E66A16EE903A2B80B8EEC77A5378803B88
:1032100006EE903AF8EEE66A66EE856A76EEA56A04
:1032200027EE267ABDEEC77A17EE103A6B80F8EEDD
:10323000E77A9378803B07EE103AB8EEC77A27EE2C
:10324000057A37EE257A67EE877AFDEEE77A17EE94
:10325000903AAB80A279E37943EA0223153B07EE6B
:10326000903AF8EEE77ADFED096A87EEA67AF3EE98
:10327000057A77EE277AC6ED007ABDE8F08100BFC7
:10328000240100203C0100200000803B5CEFA643AD
:1032900010B5002410E00A4B53F824000368EF2215
:1032A0009A62026844F61F63D362C360054B53F809
:1032B000241002F0D1F80134082CECDD10BD00BF61
:1032C000BCD4000898D40008082835D8B5EEC00A48
:1032D000F1EE10FA20D4DFED257AB4EEE70AF1EE34
:1032E00010FA01DDB0EE670A9FED207AC0EE077A92
:1032F0009FED1F7A67EE877AFCEEE77A17EE903A39
:1033000003F5FA731B4A52F8202042B91A4A52F8C0
:1033100020201268536370479FED180ADBE7042AE8
:103320000BD0082A0FD00C2A13D0102A17D0124A1B
:1033300052F820201268D36570470F4A52F82020B7
:103340001268936370470C4A52F820201268D363C6
:103350007047094A52F82020126813647047064AE1
:1033600052F8202012689365704700BF0000344374
:103370000000FA4498D40008BCD400080000000003
:10338000014B01221A7070473F010020014B0222BD
:103390001A7070473F010020014B03221A707047DA
:1033A0003F010020014B04221A7070473F010020AA
:1033B000014B00221A7070473F01002038B52DEDF7
:1033C000048BB0EE409AF0EE608A05460C4660EE43
:1033D000007A20EEA00A77EE807A9FED1B0A77EE46
:1033E000C07A9FED1A0A77EEC07A9FED190A87EE30
:1033F000800AFEF75FFCB0EE408AF0EE490AB0EEBC
:10340000680AFEF7BFFCF0EE408AB0EE480AFEF70D
:103410001FFBB0EE409AB0EE480AFEF7F1F99FEDBF
:103420000D7A20EE070ADFED0C0A70EE200A29EE75
:10343000070AFEF7A7FC78EEC08AC5ED008A84ED86
:10344000008ABDEC048B38BD7B86CC4580B49345A7
:1034500000CF2D4600808942CDCCA1420000000063
:1034600010B50C46F6EE007AB4EEE70AF1EE10FA6B
:1034700018D570EE007A9FED1A7A67EE877AC0ED64
:10348000007AB7EEC00A9FED127B20EE070BB7EE75
:10349000C00BFEF7DDFAF3EE0E7A20EE270A84ED7C
:1034A000000A10BDB7EEC00AB7EE007B37EE400B46
:1034B00030EE000B9FED087B20EE070BB7EEC00B44
:1034C00080ED000A00230B60EBE700BFAFF3008044
:1034D000182D4454FB210940000000000000494021
:1034E0000000484219B140000130C0B27047C0B27C
:1034F0004000C0B27047000070B584B0002422E0E4
:10350000B6EE000A01A96846FFF7AAFF03A902A8C0
:10351000DDED010A9DED000AFFF750FF0121204675
:10352000FFF7E0FF064600212046FFF7DBFF0546D8
:103530009DED020A3046FFF7C7FE9DED030A2846BF
:10354000FFF7C2FE0134032C06DC032C18BF002C4D
:10355000D6D19FED020AD5E704B070BD000000008F
:1035600070B584B0002426E0F6EE007A01A9684622
:10357000B7EE000A30EE670AFFF772FF03A902A850
:10358000DDED010A9DED000AFFF718FF012120463D
:10359000FFF7A8FF064600212046FFF7A3FF0546D8
:1035A0009DED020A3046FFF78FFE9DED030A284687
:1035B000FFF78AFE0134032C06DC032C18BF002C15
:1035C000D2D1DFED027AD1E704B070BD0000000077
:1035D00070B584B0002423E0B6EE000A2BE001A908
:1035E0006846FFF73DFF03A902A8DDED010A9DED46
:1035F000000AFFF7E3FE01212046FFF773FF0646AE
:1036000000212046FFF76EFF05469DED020A304679
:10361000FFF75AFE9DED030A2846FFF755FE0134D9
:10362000032C13DC032C18BF002C0CBF0123002338
:10363000D2D19FED070A002BD1D001A96846F7EE41
:10364000007A37EEC00AFFF70BFFCCE704B070BD7D
:103650000000000070B584B0002427E0B6EE000A38
:103660002FE001A96846F7EE007A37EEC00AFFF7AF
:10367000F7FE03A902A8DDED010A9DED000AFFF7A0
:103680009DFE01212046FFF72DFF06460021204622
:10369000FFF728FF05469DED020A3046FFF714FEAE
:1036A0009DED030A2846FFF70FFE0134032C0FDCC3
:1036B000032C18BF002C0CBF01230023CED19FED9B
:1036C000050A002BCDD001A96846FFF7C9FED0E757
:1036D00004B070BD0000000070B584B0002422E08A
:1036E000B6EE000A01A96846FFF7BAFE03A902A8D0
:1036F000DDED010A9DED000AFFF760FE0121204685
:10370000FFF7F0FE064600212046FFF7EBFE0546D8
:103710009DED020A3046FFF7D7FD9DED030A2846CE
:10372000FFF7D2FD0134032C06DC032C18BF002C5C
:10373000D6D19FED020AD5E704B070BD00000000AD
:10374000B0F90020B1F900309A42CCBF012000202E
:10375000B4BF01230023C01A704708B500EE100A59
:10376000B8EEC00AFEF710FBB7EE007AC7EE007A9B
:10377000FDEEE77A17EE903A18B208BD08B5FFF7EC
:1037800009FC08BD064BB3F900300380054B1B88CC
:103790004380054B1B888380044B1B88C380704784
:1037A000660000205401002056010020580100202E
:1037B00010B582B00E4C22680E4921F81200013279
:1037C0000D4B83FB0203A3EBE27303EB4303D31A1A
:1037D000236003C90090ADF80410084B02220321B6
:1037E0006846FCF7B7FEBDF9020002B010BD00BF8D
:1037F000480100204001002056555555413700082A
:103800002DE9F04F2DED048B8BB000230DF1160246
:1038100007A904A8FFF79EFCBDF91050BDF912805E
:10382000BDF91470BDF9163006EE103AB8EEC66B4D
:103830009FEDE54B26EE046B9FEDE55B86EE057B89
:10384000BDEEC77B17EE103A1CB2BDF9183006EE7C
:10385000103AB8EEC66B26EE046B86EE057BBDEE25
:10386000C77B17EE103A1BB20293BDF91A2007EE80
:10387000102AB8EEC77B27EE047B87EE056BBDEE02
:10388000C66B16EE102A12B20392BDF91C60BDF988
:103890001EA0BDF9209005F0B3FACF4B1860CF4AB7
:1038A0001368C31A07EE903AF8EE677A9FEDCC7A68
:1038B00087EE878A10602846FFF77AFF0546404664
:1038C000FFF776FF80463846FFF772FF074630461F
:1038D000FFF76EFF06465046FFF76AFF82464846EE
:1038E000FFF766FF81461FFA85FB15FB05F01FFAFF
:1038F00088F518FB08F81FFA88F818FA80F01FFA04
:1039000087F817FB07F7BFB217FA80F000B2FFF78E
:1039100024FF1BFB00FB0FFA8BF709EE107A15FB57
:1039200000F52BB2009318FB00F80FFA88F2019211
:1039300016FB06F61AFB0AF080B210FA86F619FB9F
:1039400009F080B210FA86F000B2FFF706FFA54B2F
:10395000B3F800C0A4EB0C040FFA84FCA24B1B8844
:103960000299CB1A1BB2A14AB2F800E00399A1EB6D
:103970000E0E0FFA8EFEF6EE008A28EE288AFDEE75
:10398000C87A17EE901A9A4CB4F9002050420CFBFA
:1039900000F0984FB7F900B003FB1B00964EB6F944
:1039A00000800EFB1800954DB5F8009010FB0190BB
:1039B0000290BDF90890A5F800900EFB0BF009FBF2
:1039C0000C0008FB130010FB01200FFA80FAA4F88A
:1039D00000A009FB03F20AFB1E2208FB0C2212FBCB
:1039E00001B20FFA82FBA7F800B00AFB03F309FB50
:1039F0000E330CFB1B3C1CFB018189B23180029B06
:103A000013FB03F310FB00F080B210FA83F011FBFC
:103A100001F112FB02F292B212FA81F212FA80F074
:103A200000B2FFF79AFEB5F800C01CFB00FC0FFACD
:103A30008CFCA5F800C0218811FB00F109B221809F
:103A40003A8812FB00F212B23A80338813FB00F37B
:103A50001BB2338002FB0CF001FB1300410000EEAF
:103A6000101AB8EEC00AFEF759F9BDEEC00A10EE02
:103A7000101A0FFA81F9B4F90030B5F90000B7F95E
:103A80000010B6F9002001FB02F203FB00225000F7
:103A900000EE100A01FB01F103FB03135B00C3F10D
:103AA000010100EE901AF8EEE00AB8EEC00AFEF747
:103AB00069F9BDEEC08A18EE101A09B208EE101AA4
:103AC000DDED017AF8EEE70ADDED007AB8EEE70AFF
:103AD000FEF758F9BDEEC00A10EE103A0FFA83FA5D
:103AE000019B03FB03F8009B03FB038300EE103AEA
:103AF000B8EEC00BFEF7B4F8F7EEC00BB8EEC90A8B
:103B0000FEF740F9FDEEC07A17EE903A1BB207EED1
:103B1000903A07EE109AB8EEC77ADFED395A27EEE1
:103B2000257A06EE90AAF8EEE66A9FED366A66EE12
:103B3000866A37EE267ABDEEC77A17EE103A0FFA8C
:103B400083F8B8EEC88A28EE258AF8EEE77A67EEA1
:103B5000867A38EE278ABDEEC88A18EE103A1BB274
:103B600008EE103AB8EEC88A28EE288AB0EE480A65
:103B7000FDF76EFFBDEEC00A10EE103A0FFA83F9A2
:103B8000B0EE480AFDF73CFEBDEEC00A10EE103A5A
:103B90000FFA83FA07EE908AB8EEE77A67EE288A82
:103BA000B0EE680AFDF754FFBDEEC00A10EE103A01
:103BB0000FFA83F8B0EE680AFDF722FEFDEEC07A38
:103BC00022E000BFAFF30080182D4454FB210940D0
:103BD0000000000000806640500100204C010020E1
:103BE00000007A445A0100205C0100205E010020A0
:103BF00054010020560100205801002066000020DA
:103C000048E17A3F00D7A33C17EE901A1FFA8AF2D8
:103C100012FB01F32B801FFA89F311FB03F12180C2
:103C20001FFA88F812FB08F23A8013FB08F333807E
:103C30000BB0BDEC048BBDE8F08F00BF86B0254B08
:103C4000D3F8E02042F01002C3F8E020D3F8E020DF
:103C500002F010020092009AD3F8E02042F0040231
:103C6000C3F8E020D3F8E02002F004020192019AA8
:103C7000D3F8E02042F08002C3F8E020D3F8E0203F
:103C800002F080020292029AD3F8E02042F0010290
:103C9000C3F8E020D3F8E02002F001020392039A77
:103CA000D3F8E02042F00202C3F8E020D3F8E0208D
:103CB00002F002020492049AD3F8E02042F00802D3
:103CC000C3F8E020D3F8E03003F008030593059B28
:103CD00006B07047004402588AB00368554A9342C0
:103CE00029D0554A934235D0544A934240D0544A41
:103CF00093424BD0534A934256D0534A934261D099
:103D0000524A93426CD0524A934277D0514A9342DE
:103D100000F08280504A93421AD1504BD3F8F020E1
:103D200042F48022C3F8F020D3F8F03003F480236B
:103D30000993099B0CE0494BD3F8E82042F00202BA
:103D4000C3F8E820D3F8E83003F002030093009BA7
:103D50000AB07047414BD3F8E82042F00402C3F8A0
:103D6000E820D3F8E83003F004030193019BEFE768
:103D70003A4BD3F8E82042F00802C3F8E820D3F821
:103D8000E83003F008030293029BE1E7334BD3F8DA
:103D9000F02042F00202C3F8F020D3F8F03003F034
:103DA00002030393039BD3E72C4BD3F8E82042F0A4
:103DB0004002C3F8E820D3F8E83003F0400304934E
:103DC000049BC5E7254BD3F8E82042F08002C3F8F6
:103DD000E820D3F8E83003F080030593059BB7E7AC
:103DE0001E4BD3F8E82042F48072C3F8E820D3F8E1
:103DF000E83003F480730693069BA9E7174BD3F8CA
:103E0000F02042F48032C3F8F020D3F8F03003F40D
:103E100080330793079B9BE7104BD3F8F02042F4C5
:103E20000032C3F8F020D3F8F03003F400330893E5
:103E3000089B8DE70004004000080040000C004093
:103E40000004014000180040001C00400020004019
:103E50000040014000440140004801400044025835
:103E600000B591B000230B930C930D930E930F9319
:103E700003688A4A934238D0894A93424ED0894A8D
:103E8000934263D0884A934277D0884A934200F0A5
:103E90008C80874A934200F0A080864A934200F0CB
:103EA000B480854A934200F0C880844A934200F06F
:103EB000DC80834A93422ED1824BD3F8E02042F03B
:103EC0000202C3F8E020D3F8E03003F002030A93C3
:103ED0000A9B4FF400730B9302230C9301230F935F
:103EE0000BA9794803F072FA15E0764BD3F8E0207D
:103EF00042F00202C3F8E020D3F8E03003F00203FE
:103F00000193019B10230B9302230C930F930BA996
:103F10006D4803F05BFA11B05DF804FB694BD3F810
:103F2000E02042F00802C3F8E020D3F8E03003F0CC
:103F300008030293029B4FF480530B9302230C93CC
:103F40000F930BA9614803F041FAE4E75D4BD3F806
:103F5000E02042F00102C3F8E020D3F8E03003F0A3
:103F600001030393039B01230B9302230C930F93F1
:103F70000BA9574803F02AFACDE7524BD3F8E020BB
:103F800042F00402C3F8E020D3F8E03003F0040369
:103F90000493049B40230B9302230C9303230F935E
:103FA0000BA94C4803F012FAB5E7464BD3F8E020D2
:103FB00042F00202C3F8E020D3F8E03003F002033D
:103FC0000593059B4FF480430B9302230C930F93AF
:103FD0000BA93D4803F0FAF99DE73A4BD3F8E020EE
:103FE00042F00102C3F8E020D3F8E03003F001030F
:103FF0000693069B40230B9302230C9309230F93F4
:104000000BA9334803F0E2F985E72E4BD3F8E02003
:1040100042F00102C3F8E020D3F8E03003F00103DE
:104020000793079B80230B9302230C9309230F9381
:104030000BA9274803F0CAF96DE7224BD3F8E0201B
:1040400042F01002C3F8E020D3F8E03003F0100390
:104050000893089B20230B9302230C9304230F93B4
:104060000BA91D4803F0B2F955E7164BD3F8E02031
:1040700042F00202C3F8E020D3F8E03003F002037C
:104080000993099B4FF480730B9302230C93012334
:104090000F930BA90C4803F099F93CE7000400408A
:1040A00000080040000C00400004014000180040DF
:1040B000001C00400020004000400140004401403E
:1040C000004801400044025800040258000C025805
:1040D00000000258000802580010025800B58FB0C6
:1040E00000230A930B930C930D9307930893099362
:1040F000009301930293039304930593069322483C
:10410000224A0260EF224260836044F61F62C2606E
:104110000361836100F0A0FF30BB4FF480530A932A
:104120000AA9194801F0ECF808BB174800F0C4FFD1
:1041300000BB00230793099307A9134801F040FA35
:10414000D8B96023009342F20F73019300220292C8
:10415000049269460C4801F029F888B90A48FFF72B
:104160007FFE0FB05DF804FBFEF762FDD5E7FEF7BA
:104170005FFDDAE7FEF75CFDDBE7FEF759FDE0E700
:10418000FEF756FDEAE700BF2803002000040040C8
:1041900000B58FB000230A930B930C930D930793F4
:1041A0000893099300930193029303930493059357
:1041B00006932148214A0260EF224260836044F660
:1041C0001F62C2600361836100F046FF20BB4FF4B1
:1041D00080530A930AA9184801F092F8F8B91648D2
:1041E00000F06AFFF0B900230793099307A912486A
:1041F00001F0E6F9C8B9602300930022019202920F
:10420000049269460C4800F0D1FF88B90A48FFF7CC
:1042100027FE0FB05DF804FBFEF70AFDD7E7FEF7B7
:1042200007FDDCE7FEF704FDDDE7FEF701FDE2E751
:10423000FEF7FEFCEAE700BF740300200008004020
:1042400000B58FB000230A930B930C930D93079343
:1042500008930993009301930293039304930593A6
:1042600006932248224A0260EF224260836044F6AD
:104270001F62C2600361836100F0EEFE30BB4FF449
:1042800080530A930AA9194801F03AF808BB174865
:1042900000F012FF00BB00230793099307A91348FE
:1042A00001F08EF9D8B96023009342F20F730193A5
:1042B00000220292049269460C4800F077FF88B908
:1042C0000A48FFF7CDFD0FB05DF804FBFEF7B0FC28
:1042D000D5E7FEF7ADFCDAE7FEF7AAFCDBE7FEF771
:1042E000A7FCE0E7FEF7A4FCEAE700BFC00300205C
:1042F000000C004010B59AB000241694179418943E
:1043000019941394149415940C940D940E940F9482
:104310001094119412942C22214601A8FCF7C8F89D
:104320003148324B0360EF234360846044F61F63DF
:10433000C36004614461846100F08EFE002841D1B5
:104340004FF48053169316A9274800F0D9FF002890
:104350003BD1254800F0B0FE002839D1002313934B
:104360001493159313A9204801F02AF9002832D19B
:1043700060230C9342F20F730D9300220E920F9262
:104380001092119212920CA9174800F00FFF28BB4F
:104390000023019302930393049305934FF4005277
:1043A0000692079308934FF0007209920A930B93B9
:1043B00001A90D4801F054F998B90B48FFF750FDD9
:1043C0001AB010BDFEF734FCBAE7FEF731FCC0E7C7
:1043D000FEF72EFCC2E7FEF72BFCC9E7FEF728FC30
:1043E000D6E7FEF725FCE8E70C04002000040140B6
:1043F00000B58FB000230A930B930C930D93079392
:1044000008930993009301930293039304930593F4
:1044100006932248224A0260EF224260836044F6FB
:104420001F62C2600361836100F016FE30BB4FF46F
:1044300080530A930AA9194800F062FF08BB174885
:1044400000F03AFE00BB00230793099307A9134825
:1044500001F0B6F8D8B96023009342F20F730193CC
:1044600000220292049269460C4800F09FFE88B92F
:104470000A48FFF7F5FC0FB05DF804FBFEF7D8FB28
:10448000D5E7FEF7D5FBDAE7FEF7D2FBDBE7FEF771
:10449000CFFBE0E7FEF7CCFBEAE700BF60010020BE
:1044A0000018004000B589B00023019302930393E4
:1044B00004930593069307931648174A0260EF2268
:1044C0004260836044F61F62C2600361836100F052
:1044D000C3FDB0B90F4800F0EFFDA8B96023019308
:1044E00042F20F73029300220392059201A9094838
:1044F00000F05CFE58B90748FFF7B2FC09B05DF860
:1045000004FBFEF795FBE5E7FEF792FBE6E7FEF717
:104510008FFBF0E7AC010020001C004000B589B023
:104520000023019302930393049305930693079347
:104530001648174A0260EF224260836044F61F6209
:10454000C2600361836100F087FDB0B90F4800F0DD
:10455000B3FDA8B96023019342F20F7302930022C6
:104560000392059201A9094800F020FE58B90748B6
:10457000FFF776FC09B05DF804FBFEF759FBE5E7B1
:10458000FEF756FBE6E7FEF753FBF0E7F8010020E5
:104590000020004010B59AB0002416941794189487
:1045A00019941394149415940C940D940E940F94E0
:1045B0001094119412942C22214601A8FBF778FF45
:1045C0002E482F4B0360EF234360846044F61F6343
:1045D000C36004614461846100F03EFD00283BD16A
:1045E0004FF48053169316A9244800F089FE002842
:1045F00035D1224800F060FD002833D10023139309
:10460000159313A91D4800F0DBFF00282DD160236E
:104610000C9342F20F730D9300220E920F921092A0
:10462000119212920CA9154800F0C0FD00BB0023A6
:10463000019302930393049305934FF4005206925F
:1046400007930B9301A90D4801F00AF898B90B489C
:10465000FFF706FC1AB010BDFEF7EAFAC0E7FEF756
:10466000E7FAC6E7FEF7E4FAC8E7FEF7E1FACEE7B5
:10467000FEF7DEFADBE7FEF7DBFAE8E744020020AC
:104680000040014010B592B000240B940C940D949E
:104690000E940F94109411942C2221466846FBF737
:1046A00007FF2248224B0360EF234360846044F6F7
:1046B0001F63C36004614461846100F0CDFC40BBB2
:1046C0001A4800F0F9FC38BB60230B9342F20F73D9
:1046D0000C9300220D920E920F92109211920BA940
:1046E000124800F063FDD0B90023009301930293B8
:1046F000039304934FF40052059206930A9369467C
:104700000A4800F0ADFF68B90848FFF7A9FB12B0EE
:1047100010BDFEF78DFAD3E7FEF78AFAD4E7FEF76D
:1047200087FAE1E7FEF784FAEEE700BF9002002087
:104730000044014010B592B000240B940C940D94E9
:104740000E940F94109411942C2221466846FBF786
:10475000AFFE2248224B0360EF234360846044F69F
:104760001F63C36004614461846100F075FC40BB59
:104770001A4800F0A1FC38BB60230B9342F20F7380
:104780000C9300220D920E920F92109211920BA98F
:10479000124800F00BFDD0B900230093019302935F
:1047A000039304934FF40052059206930A936946CB
:1047B0000A4800F055FF68B90848FFF751FB12B0EE
:1047C00010BDFEF735FAD3E7FEF732FAD4E7FEF76D
:1047D0002FFAE1E7FEF72CFAEEE700BFDC0200203B
:1047E00000480140FEE7FEE7FEE7FEE7FEE7704710
:1047F00008B5024803F004FF08BD00BF0005002013
:1048000008B5024803F0FCFE08BD00BF7805002093
:1048100008B5024800F0D9FA08BD00BF58040020CE
:1048200008B5024805F0F4FC08BD00BFF005002003
:1048300000B583B00A4BD3F8F42042F00202C3F86B
:10484000F420D3F8F43003F002030193019B00221B
:104850000F216FF0010000F05FF803B05DF804FB7A
:10486000004402580F2801D90120704710B58AB0C2
:10487000044600220146192000F04EF8192000F0ED
:1048800081F8174B1C60174BD3F8F02042F001025F
:10489000C3F8F020D3F8F03003F001030093009B3D
:1048A00001A902A801F00CFD01F0F8FC43000E483C
:1048B000A0FB03239B0C013B0C480D4A026040F215
:1048C000E732C260436000230361836000F0C4FBF1
:1048D00010B101200AB010BD044800F029FAF9E730
:1048E0006C0000200044025883DE1B435804002063
:1048F000000001400649CB6823F4E0631B041B0C55
:10490000000200F4E0600343024A1A43CA607047A1
:1049100000ED00E00000FA0500B5174BDB68C3F3BB
:104920000223C3F1070CBCF1040F28BF4FF0040CA5
:1049300003F1040EBEF1060F14D9033B4FF0FF3E06
:104940000EFA0CFC21EA0C0199400EFA03F322EA5C
:1049500003031943002807DB0901C9B2074B1954A7
:104960005DF804FB0023E9E700F00F000901C9B27C
:10497000034B1954F4E700BF00ED00E000E400E051
:1049800014ED00E0002807DB00F01F0240090123BE
:104990009340024A42F82030704700BF00E100E037
:1049A000BFF35F8F044B5A6A22F480325A620022AE
:1049B000C3F89420704700BF00ED00E040F0010014
:1049C000054BC3F894005A6A42F480325A62BFF32E
:1049D0004F8FBFF36F8F704700ED00E04378144AAC
:1049E000C2F89830D2F8A03023F00103C2F8A0300A
:1049F0004368C2F89C30017BC37A1B0643EA01730B
:104A0000817A43EAC143417B43EA8143817B43EAA4
:104A10004143C17B43EA0143417A43EA0123017ADE
:104A200043EA410301780B43C2F8A030704700BF4E
:104A300000ED00E0F0B4036A026A22F001020262B3
:104A4000466884691F4A22400D68154323F002031B
:104A50008C6823431C4A1D4CA04218BF90420CBFD7
:104A6000012200220CD004F58044A04214BF00248F
:104A70000124174FB84203D014B9164CA04205D1F7
:104A800023F00803CC68234323F004035AB9124AE5
:104A9000904214BF002201220D4CA04203D012B953
:104AA0000C4A904207D126F4407C4A6942EA0C0C39
:104AB0008E6946EA0C06466085614A684263036275
:104AC000F0BC70478CFFFEFF000001400004014075
:104AD00000400140004801400044014070B4036AB6
:104AE000026A22F4807202624568C4691A4A22404E
:104AF0000E68164323F400738A6843EA0223174AB8
:104B0000174CA04218BF90420CBF0122002206D1D0
:104B100023F40063CC6843EA042323F480635AB986
:104B2000104A904214BF002201220F4CA04203D031
:104B300012B90E4A904207D125F4405C4A694CEA0A
:104B4000021C8D694CEA05154560C6614A68C2635E
:104B5000036270BC704700BF8CFFFEFF0000014085
:104B60000004014000440140004001400048014071
:104B700070B4036A026A22F4805202624468C56912
:104B8000144A2A400D6842EA052223F400538D6836
:104B900043EA0533104E114DA84218BFB0420DD064
:104BA00005F58045A84214BF0025012506F580467D
:104BB000B04203D015B90A4DA84204D124F4804470
:104BC0004D6944EA85144460C2614A680264036224
:104BD00070BC7047FF8CFFFE0000014000040140E4
:104BE0000048014070B4036A026A22F48032026213
:104BF0004268456D144C2C400D682C4323F400335F
:104C00008D6843EA0543114E114DA84218BFB042CA
:104C10000DD005F58045A84214BF0025012506F5F5
:104C20008046B04203D015B90A4DA84204D122F4FF
:104C300080324D6942EA0522426044654A688265D5
:104C4000036270BC704700BF8FFFFEFF0000014091
:104C5000000401400048014070B4036A026A22F473
:104C6000801202624468456D144A2A400D6842EA87
:104C7000052223F400138D6843EA0553104E114DAD
:104C8000A84218BFB0420DD005F58045A84214BF18
:104C90000025012506F58046B04203D015B90A4D1E
:104CA000A84204D124F480244D6944EA8524446058
:104CB00042654A68C265036270BC7047FF8FFFFEA1
:104CC00000000140000401400048014010B4036AA4
:104CD000046A24F001040462846924F0F00C4CEAB4
:104CE000021223F00A030B43826103625DF8044B56
:104CF000704710B4036A046A24F0100404628469E3
:104D000024F4704C4CEA023223F0A00343EA01136E
:104D1000826103625DF8044B704700008268034BB8
:104D200013400B4343F00703836070478FFFCFFFAF
:104D300090F83D30DBB2012B3AD1022380F83D30B0
:104D40000268D36843F00103D36003681A4AB3F1E1
:104D5000804F18BF93421DD0A2F57C42934219D0D8
:104D600002F58062934215D002F58062934211D021
:104D700002F5784293420DD0A2F56C42934209D0DD
:104D800002F59432934205D01A6842F001021A608B
:104D9000002070479968094A0A40062A18BFB2F5F0
:104DA000803F07D01A6842F001021A600020704765
:104DB00001207047002070470000014007000100FB
:104DC0007047704770477047704770B50446036876
:104DD000DE681D6915F0020F10D016F0020F0DD01D
:104DE0006FF002021A610123037703689B6913F0D5
:104DF000030F64D0FFF7E6FF0023237715F0040FBD
:104E000012D016F0040F0FD023686FF004021A615D
:104E10000223237723689B6913F4407F55D02046F3
:104E2000FFF7D0FF0023237715F0080F12D016F0FC
:104E3000080F0FD023686FF008021A61042323774C
:104E40002368DB6913F0030F46D02046FFF7BAFF53
:104E50000023237715F0100F12D016F0100F0FD08B
:104E600023686FF010021A61082323772368DB6937
:104E700013F4407F37D02046FFF7A4FF00232377A9
:104E800015F0010F02D016F0010F33D115F4025FB7
:104E900002D016F0800F35D115F4807F02D016F0C5
:104EA000800F37D115F0400F02D016F0400F39D1E6
:104EB00015F0200F02D016F0200F3BD170BDFFF788
:104EC00080FF2046FFF77FFF96E72046FFF779FF38
:104ED0002046FFF778FFA5E72046FFF772FF204640
:104EE000FFF771FFB4E72046FFF76BFF2046FFF79F
:104EF0006AFFC3E723686FF001021A612046FDF7DD
:104F00008BFEC3E723686FF402521A61204600F05B
:104F1000F0FBC1E723686FF480721A61204600F04D
:104F2000E9FBBFE723686FF040021A612046FFF7F4
:104F30004BFFBDE723686FF020021A61204600F0A6
:104F4000D7FBBBE730B503683D4A904214BF4FF032
:104F5000000E4FF0010EB0F1804F14BF72464EF0BC
:104F60000102AAB9374CA04214BF00240124364DD7
:104F7000A8420DD064B904F1804404F58234A04203
:104F800014BF0024012405F50065A84200D01CB11F
:104F900023F070034C68234312BB2A4A904214BF8B
:104FA00000220122284CA0421AD0CAB902F1804244
:104FB00002F58232904214BF0022012204F50064FF
:104FC000A0420DD062B9214A904214BF00220122B2
:104FD00004F59A34A04203D012B91D4A904204D17C
:104FE00023F4407CCB6843EA0C0323F080034A6936
:104FF000134303608A68C2620A688262154A90425B
:1050000014BF73464EF0010363B9104B984214BFAE
:105010000023012302F57052904203D013B90C4BC8
:10502000984201D10B69036301234361036913F0C3
:10503000010F03D0036923F00103036130BD00BFFA
:10504000000001400008004000040040004401400E
:10505000004801400004014060B310B5044690F8D8
:105060003D3013B3022384F83D30214651F8040B40
:10507000FFF768FF012384F8483084F83E3084F855
:105080003F3084F8403084F8413084F8423084F86E
:10509000433084F8443084F8453084F8463084F84E
:1050A000473084F83D30002010BD80F83C30FEF7DA
:1050B00013FED7E70120704760B310B5044690F89F
:1050C0003D3013B3022384F83D30214651F8040BE0
:1050D000FFF738FF012384F8483084F83E3084F825
:1050E0003F3084F8403084F8413084F8423084F80E
:1050F000433084F8443084F8453084F8463084F8EE
:10510000473084F83D30002010BD80F83C30FFF778
:1051100057FED7E70120704770B4036A026A22F095
:1051200010020262456884691A4A22400E6842EA07
:10513000062623F020038A6843EA0213164A174C16
:10514000A04218BF90420CBF0122002206D123F0DA
:105150008003CC6843EA041323F040035AB9104A91
:10516000904214BF002201220E4CA04203D012B97B
:105170000D4A904207D125F4406C4A694CEA820CF2
:105180008D694CEA8505456086614A6882630362E1
:1051900070BC7047FF8CFFFE00000140000401401E
:1051A00000440140004001400048014038B590F8FB
:1051B0003C30012B00F0958004460D46012380F819
:1051C0003C30142A00F28880DFE802F00B868686E5
:1051D0001F86868634868686488686865D8686868F
:1051E00071000068FFF726FC2268936943F008030A
:1051F00093612268936923F00403936122689369A1
:1052000029690B439361002067E00068FFF784FF82
:105210002268936943F4006393612268936923F4DD
:105220008063936122689369296943EA012393614A
:10523000002052E00068FFF751FC2268D36943F078
:105240000803D3612268D36923F00403D361226881
:10525000D36929690B43D36100203EE00068FFF762
:1052600087FC2268D36943F40063D3612268D36961
:1052700023F48063D3612268D369296943EA012357
:10528000D361002029E00068FFF7ACFC2268536D71
:1052900043F0080353652268536D23F004035365FC
:1052A0002268536D29690B435365002015E000689F
:1052B000FFF7D2FC2268536D43F400635365226804
:1052C000536D23F4806353652268536D296943EA63
:1052D00001235365002000E00120002384F83C30C6
:1052E00038BD0220FCE710B4846824F47F4C42EA05
:1052F00003220A4342EA0C0282605DF8044B7047C5
:1053000090F83C30012B00F08F8010B5044601234B
:1053100080F83C30022380F83D3002689068434BAF
:10532000034093600B68702B55D031D8502B6CD054
:105330000CD9602B2AD1CA6849682068FFF7D9FCCC
:1053400060212068FFF7EAFC002035E0402B0AD1FD
:10535000CA6849682068FFF7B9FC40212068FFF758
:10536000DDFC002028E05BD8202B07D003D9302BB0
:1053700004D0012020E00BB1102B05D11946206884
:10538000FFF7CCFC002017E0012015E0012013E01E
:10539000B3F5005F2CD00BD9254A9342EED012D939
:1053A000244A9342EAD010329342E7D0012003E02E
:1053B000B3F5805F36D10020012384F83D3000230F
:1053C00084F83C3010BDB3F5801FD7D0B3F1101F67
:1053D000D4D00120F0E7CB684A6889682068FFF7DD
:1053E00082FF2268936843F0770393600020E3E72D
:1053F000CB684A6889682068FFF775FF2268936860
:1054000043F4804393600020D6E7CA684968206867
:10541000FFF75CFC50212068FFF780FC0020CBE701
:105420000120C9E70120C7E7022070478800CEFFAE
:10543000200010003000100001F01F01012303FACA
:1054400001FC036A23EA0C030362036A02FA01F116
:105450000B4303627047000010B50446084600295C
:105460004ED194F83E30DBB2013B18BF0123002B34
:1054700040F09B8000286ED1022384F83E30012248
:1054800001462068FFF7D8FF23684A494A4A9342F9
:1054900018BF8B420BD002F57052934207D002F531
:1054A0008062934203D002F58062934203D15A6C2A
:1054B00042F400425A6423683E4AB3F1804F18BF59
:1054C000934264D0A2F57C42934260D002F58062A0
:1054D00093425CD002F58062934258D002F5784244
:1054E000934254D0A2F56C42934250D002F59432CC
:1054F00093424CD01A6842F001021A60002055E035
:1055000004290CD0082911D00C2916D010291BD041
:1055100094F84330DBB2013B18BF0123A7E794F8AE
:105520003F30DBB2013B18BF0123A0E794F84030C5
:10553000DBB2013B18BF012399E794F84130DBB29D
:10554000013B18BF012392E794F84230DBB2013BE4
:1055500018BF01238BE7042809D008280BD00C289A
:105560000DD010280FD0022384F8433087E70223A0
:1055700084F83F3083E7022384F840307FE702233A
:1055800084F841307BE7022384F8423077E799685A
:105590000A4A0A40062A18BFB2F5803F07D01A68A7
:1055A00042F001021A60002000E0012010BD00203E
:1055B000FCE700BF000001400004014007000100BB
:1055C00090F83C30012B45D070B4012380F83C307A
:1055D000022380F83D3003685A689C681E4E1F4DB8
:1055E000AB4218BFB34203D122F470024D682A4384
:1055F00022F070020D682A435A600368164AB3F11C
:10560000804F18BF934217D0A2F57C42934213D02B
:1056100002F5806293420FD002F5806293420BD074
:1056200002F57842934207D0A2F56C42934203D030
:1056300002F59432934204D124F080048A68144322
:105640009C60012380F83D30002380F83C301846F0
:1056500070BC704702207047000001400004014008
:1056600090F83C30012B3CD030B4012380F83C3022
:10567000CB6823F440738A68134323F480634A6839
:10568000134323F400630A68134323F480530A6925
:10569000134323F400534A69134323F480438A6A73
:1056A000134323F470238A6943EA024302680E4DD0
:1056B0000E4CA24218BFAA420CD123F470034C6ACC
:1056C00043EA045323F08073CC69234323F000732F
:1056D000096A0B435364002380F83C30184630BC01
:1056E00070470220704700BF0000014000040140E5
:1056F0007047704770470000002800F0398338B5C4
:105700000446036813F0010F25D0944A136903F08F
:105710003803926A102B15D0182B0FD06368B3F59D
:10572000803F3FD0002B53D18C4B1A6822F480323B
:105730001A601A6822F480221A6038E002F003022C
:10574000022AEBD1854B1B6813F4003F03D063683A
:10575000002B00F00F83236813F0020F00F0A180EC
:105760007E4A1369926A13F038035AD0182B55D029
:10577000E368002B00F0DE8078490A6822F0190205
:1057800013430B6003F03CFB0546744B1B6813F09E
:10579000040F40F0AD8003F033FB401B0228F4D926
:1057A0000320EEE26D4A136843F4803313606368AC
:1057B0002BB303F025FB0546684B1B6813F4003F31
:1057C000C9D103F01DFB401B6428F5D90320D8E2A2
:1057D000B3F5A02F09D0614B1A6822F480321A6009
:1057E0001A6822F480221A60E1E75C4B1A6842F4DE
:1057F00080221A601A6842F480321A60D7E703F0F8
:10580000FFFA0546554B1B6813F4003FA3D003F085
:10581000F7FA401B6428F5D90320B2E212F0030F17
:10582000A6D14E4B1B6813F0040F03D0E368002B86
:1058300000F0A282494A136823F01903E1680B4380
:10584000136003F0DDFA0546444B1B6813F0040FA8
:1058500006D103F0D5FA401B0228F5D9032090E2C7
:1058600003F0E8FA41F20303984212D82269402A71
:1058700007D03A494B6823F47C3343EA02334B6048
:105880000FE0364A536823F47C3343F4003353600B
:1058900007E0324A536823F0FE43216943EA01637B
:1058A0005360236813F0100F00F088802B4A1369AF
:1058B00003F03803926A082B56D0182B50D0E369B6
:1058C000002B00F0B880254A136843F08003136072
:1058D00003F096FA0546214B1B6813F4807F40F0D5
:1058E000888003F08DFA401B0228F4D9032048E297
:1058F00003F0A0FA41F20303984212D82269402A29
:1059000007D016494B6823F47C3343EA02334B60DB
:10591000C7E7124A536823F47C3343F400335360DF
:10592000BFE70E4A536823F0FE43216943EA01634F
:105930005360B6E7094A136823F00103136003F0CC
:105940005FFA0546054B1B6813F0040FA9D003F05E
:1059500057FA401B0228F5D9032012E200440258EE
:1059600002F00302012AAAD1A14B1B6813F4807F25
:1059700003D0E369802B40F0018203F05BFA41F22F
:105980000303984212D8226A202A07D098494B680C
:1059900023F0F84343EA82634B600FE0944A536874
:1059A00023F0F84343F08043536007E0904AD36804
:1059B00023F07C53216A43EA0163D360236813F028
:1059C000080F60D06369002B49D0894A536F43F0B8
:1059D0000103536703F014FA0546854B5B6F13F020
:1059E000020F50D103F00CFA401B0228F5D9032016
:1059F000C7E103F01FFA41F20303984212D8226A6A
:105A0000202A07D07A494B6823F0F84343EA82639F
:105A10004B60D3E7764A536823F0F84343F0804362
:105A20005360CBE7724AD36823F07C53216A43EA80
:105A30000163D360C2E76E4A136823F080031360EA
:105A400003F0DEF905466A4B1B6813F4807FB5D07E
:105A500003F0D6F9401B0228F5D9032091E1644AEE
:105A6000536F23F00103536703F0CAF90546604BF7
:105A70005B6F13F0020F06D003F0C2F9401B02283F
:105A8000F5D903207DE1236813F0200F29D0A36905
:105A90009BB1574A136843F48053136003F0B0F985
:105AA0000546534B1B6813F4005F1AD103F0A8F9A5
:105AB000401B0228F5D9032063E14D4A136823F403
:105AC0008053136003F09CF90546494B1B6813F49F
:105AD000005F06D003F094F9401B0228F5D903209B
